:400000000080002011000000711200007112000080B500AF024A034B1B68136001F05CF9BC760040FA46004010B5054C237833B9044B13B10448AFF300800123237010BDBB
:400040008881FF1F00000000C4500000084B10B51BB108490848AFF300800848036803B910BD074B002BFBD0BDE81040184700BF000000008C81FF1FC4500000C880FF1F5A
:400080000000000080B483B000AF0346FB71094B1B78002B08D1074B01221A70064AFB791370044B00221A7000BF0C37BD4680BC704700BFB481FF1FD081FF1F80B483B069
:4000C00000AF0346FB71094B1B78002B08D1074B01221A70064AFB791370044B00221A7000BF0C37BD4680BC704700BFB581FF1FD181FF1F80B500AFFF2001F0FFFCFF20E7
:4001000001F0FCFCFF2001F0F9FC00BF80BD00BF80B582B000AF7860084802F099FA786802F096FA064802F093FA786801F042FDFFF7E0FF00BF0837BD4680BDC8500000E9
:40014000D450000080B500AF01F0EAFB4FF47A7001F062F90348FFF7DBFF642001F05CF900BF80BDD850000080B582B000AF01F0A3FC0346FB71FB79FF2B11D0FB79482B5E
:4001800003D1094B48221A700AE0FB795A2B03D15A20FFF777FF03E0FB791846FFF78EFF00BF0837BD4680BDCC80FF1F80B582B000AF02F023FA0346FB71094802F048FA47
:4001C000FB79184602F02AFA064802F041FAFB791846FFF757FF00BF0837BD4680BD00BFE4500000D450000080B500AF104802F02FFA104B1B6801330E4A13600D4B1A681B
:400200000D4B1B689A4208DB0C4B01221A70094B00221A600A4802F01BFA0A4B1B68012B04D1094B1B680133074A136000BF80BDF8500000A481FF1FD080FF1FA881FF1FF3
:4002400010510000B081FF1FAC81FF1F80B500AF02F088F801F024FF01F0E2F901F0BAFA00BF80BD80B584B000AF002001F0C2FA01F0E0FA0346FB600A4802F0E9F93B46B1
:400280000A221946F86803F0DEF93B46184602F0DFF9054802F0DCF9FB6818461037BD4680BD00BF20510000D450000080B500AF002001F0F9FF002001F0D8FF012001F049
:4002C000B7FF002001F092F9012001F075FF012001F090FF00BF80BD80B582B000AFC7E900014FF00002094BD7E9000103F0EEF80346002B03D0002001F05CF902E00120E3
:4003000001F058F900BF0837BD4680BD0000F03F2DE9B0438EB000AFC7E90201C7E90023A54802F095F9D7E9020102460B4602F0B3FC03460C46C7E90234D7E90001FFF7F0
:40034000CBFF00237B6320E1796B9C4B83FB01239A10CB17D21A13469B0013445B00CA1A002A11D1964802F073F907F114030A221946786B03F067F907F11403184602F0CB
:4003800067F9904802F064F9786B02F0D1FD04460D464FF000024FF08043D7E9020102F057FF02460B462046294603F099F80346002B6CD04FF00002834BD7E9020102F0C2
:4003C00047FF03460C461A4623464FF000007F4902F03EFF03460C4625461C46786B02F0A7FD804689464FF00002794BD7E9020102F02EFF02460B464046494602F04CFCD8
:4004000002460B462046294602F0F8FD03460C461846214602F040FA4FF000026D4B02F03BFC03460C461A4623464FF00000694902F00EFF03460C46C7E90A3401F0AAF849
:400440000346002B0CBF01230023DBB2184601F083F84FF00002604BD7E90A0102F0CEFD03460C461A46234651A1D1E9000102F0EFFE03460C46C7E90834D7E9080103F0F8
:400480007FF803469BB2184600F0E8FF7AE04FF000024D4BD7E9020102F0DAFE03460C461A4623464FF00000484902F0D1FE03460C4625461C46786B02F03AFDD7E90223EC
:4004C00002F0E8FB02460B46904699464FF00002424BD7E9020102F0BBFE02460B464046494602F0D9FB02460B462046294602F085FD03460C461846214602F0CDF94FF0F0
:400500000002344B02F0C8FB03460C461A4623464FF000002F4902F09BFE03460C461A4623464FF000002B4902F0B4FB03460C46C7E90A3401F02EF80346002B0CBF012324
:400540000023DBB2184601F007F84FF00002224BD7E90A0102F052FD03460C461A46234613A1D1E9000102F073FE03460C46C7E90834D7E9080103F003F803469BB218465B
:4005800000F06CFF7B6B01337B63786B02F0D0FCD7E9022302F0A4FF0346002B7FF4D4AE002318463837BD46BDE8B083AFF300800000000080842E413051000067666666EA
:4005C0003C510000D4500000000024400000F0BF000059400000F03F00E08540000059C090B589B000AFC7E90201C7E90023012001F0E2FD224802F02BF8D7E90201024683
:400600000B4602F049FB03460C46C7E902341AA4D4E90034C7E90434D7E90001FFF75CFE0023FB6116E000F0B5FF0346002B0CBF01230023DBB2184600F08EFFD7E904013E
:4006400002F09EFF03469BB2184600F007FFFB690133FB61F86902F06BFCD7E9022302F03FFF0346002BDED1002318462437BD4690BD00BFAFF300800000000000DBDA4019
:400680004451000080B500AF064801F0E1FF4FF00002054B4FF000000449FFF7A1FF0023184680BD645100000000F03F0000104080B500AF064801F0CBFF4FF00002054B7F
:4006C0004FF000000449FFF78BFF0023184680BD705100000000F0BF0000104080B500AF064801F0B5FF4FF00002054B4FF000000449FFF70DFE0023184680BD7C510000F0
:400700000000F03F0000894080B500AF064801F09FFF4FF00002054B4FF000000449FFF7F7FD0023184680BD8C5100000000F0BF0000894080B500AF01F0A2FE0346002BFD
:400740000CBF01230023DBB2184601F07DFE01F097FE0346184680BD80B582B000AF78607B68DBB2184601F06FFE002318460837BD4680BD80B500AF01F0AEFE0346002B97
:400780000CBF01230023DBB2184601F087FE01F0A3FE0346184680BD80B582B000AF78607B68DBB2184601F079FE002318460837BD4680BD80B500AF02F04EF80346002B9C
:4007C0000CBF01230023DBB2184602F027F802F043F80346184680BD80B582B000AF78607B68DBB2184602F019F8002318460837BD4680BD80B500AF0020FFF7ADFF002055
:40080000FFF7CAFF0020FFF7E7FF642000F004FE00BF80BD80B500AF01F0F0FF0346002B0CBF01230023DBB2184601F0C9FF01F0E5FF0346002B0CBF01230023DBB2184657
:4008400080BD00BF80B500AF01F0AAFF0346002B0CBF01230023DBB2184601F083FF01F09FFF0346002B0CBF01230023DBB2184680BD00BF80B500AF024801F0E9FE00BF59
:4008800080BD00BF9C51000080B586B000AF7860396007F10C030A221946786802F0D3FE07F10C03184601F0D3FE0B4801F0D0FE07F10C030A221946386802F0C4FE07F178
:4008C0000C03184601F0C4FE044801F0C1FE00BF1837BD4680BD00BFA8510000D450000080B586B000AF7860396007F10C030A221946786802F0A7FE07F10C03184601F0C8
:40090000A7FE0B4801F0A4FE07F10C030A221946386802F098FE07F10C03184601F098FE044801F095FE00BF1837BD4680BD00BFA8510000D450000080B500AF024801F06D
:4009400087FE00BF80BD00BFAC51000080B584B000AF0A4801F07CFE094B1B68391D0A22184602F070FE3B1D184601F071FE054801F06EFE00BF1037BD4680BDB451000043
:40098000B081FF1FD450000080B58CB000AF0346B9607A60FB811A4801F05AFE07F110030A221946786802F04EFE07F11003184601F04EFE134801F04BFE07F110030A221B
:4009C0001946B86802F03FFE07F11003184601F03FFE0C4801F03CFEB7F90E3007F110010A22184602F02FFE07F11003184601F02FFE054801F02CFE00BF3037BD4680BD3E
:400A0000CC510000A8510000D450000080B588B000AF0A4801F01CFEFFF724FC3B460A22194602F010FE3B46184601F011FE044801F00EFE00BF2037BD4680BDD051000042
:400A4000D450000080B582B000AF0023FB719748FFF75EFB20E1012000F0DEFC944B1B78002B00F01981924B1B78213B392B00F20F8101A252F823F0810B0000910C000091
:400A8000910C0000910C0000910C0000910C0000910C0000910C0000910C0000910C00006D0B0000910C0000770B0000910C0000910C00007D0C00002D0C0000410C00006E
:400AC000550C0000910C0000910C0000910C0000910C0000910C0000690C0000910C0000910C0000910C0000910C0000910C00008B0B0000910C0000910C0000910C000091
:400B0000910C0000C70B0000910C0000910C0000910C0000910C0000910C0000910C0000910C0000BD0B0000950B0000910C0000910C0000910C0000910C0000B30B000061
:400B4000A70B0000910C0000910C0000910C0000910C0000E10B0000610B0000670B0000FFF7EAFE95E0FFF785FE92E0FFF78AFDFFF7E2FE8DE0FFF79BFDFFF7DDFE88E0C0
:400B8000FFF7ACFDFFF7D8FE83E0FFF7BDFDFFF7D3FE7EE0474B01221A60474B00221A60FFF7CAFE75E0434B00221A60FFF7C4FE6FE0FFF7CBFEFFF7BFFE6AE0FFF726FF1A
:400BC000FFF7BAFE65E0FFF74DFB034618B23A4B1B68FA791946FFF7D7FEFFF7ADFE58E0FB79002B08D10120FFF7B6FD0020FFF7D3FD0123FB7116E0FB79012B08D10020EC
:400C0000FFF7AAFD0020FFF7C7FD0023FB710AE0FB79022B07D10020FFF79EFD0120FFF7BBFD0023FB71FFF787FE32E0FFF782FD034619460120FFF727FEFFF77DFE28E0DD
:400C4000FFF798FD034619460220FFF71DFEFFF773FE1EE0FFF7AEFD034619460320FFF713FEFFF769FE14E0FFF7D4FD034619460920FFF735FEFFF75FFE0AE0FFF7E2FD12
:400C8000034619460020FFF72BFEFFF755FE00E000BF0020FFF7F6F9084B1B78502B3FF4DAAE00BF0837BD4680BD00BFD4510000D081FF1FB081FF1FAC81FF1FCC80FF1FAF
:400CC00080B582B000AF78607B68DBB2184600F025FC00BF0837BD4680BD00BF80B500AF0120FFF7EDFF01F007FC194801F0ECFC184801F0ADFC184801F0AAFC01F0FCF83F
:400D0000164801F0A5FC164801F03AF9154801F09FFCFFF79BFA144801F09AFCFFF7C6FA124801F095FCFFF70DFA114801F090FC104801F01FF8104801F08AFC0F4801F00E
:400D400087FC62B60020FFF7BBFF00BF80BD00BFAD010000E4510000F451000008520000E901000018520000345200004452000058520000690100006C5200008C520000AB
:400D800080B500AFFFF7AAFF084B1B78002BFBD0064B1B78482B02D0502B03D005E0FFF729FD02E0FFF74EFE00BFEDE7D181FF1F80B582B000AF786039603A68002178680B
:400DC00002F04EFC00BF0837BD4680BD80B584B000AFF860B9607A607A68B968F86802F034FC00BF1037BD4680BD00BF80B483B000AF0346FB71FEE780B487B000AF7860EA
:400E0000396000233B6100237B6127E07B699B007A6813441B68BB60BB68FB73BB6823F0FF03BB6014E03B695B003A6813441B781A46BB68134419463B695B003A6813446A
:400E40005B780B703B6901333B61FB7B013BFB73FB7B002BE7D17B6901337B617B69212BD4D900BF1C37BD4680BC704780B582B000AF464B00221A80454B58221A70454BD7
:400E800000221A80444B19221A70444B44221A80434B18221A70434B4FF450721A80424B18221A70042241494148FFF78FFF414B06221A70404B52221A70404B404A1278A0
:400EC000D2B21A703F4B40F618021A803E4B41F251221A800023FB7019237B6014E0FB785B00DAB2394B1B78DBB203F00103DBB21343DBB203F00303FB704FF4F07001F0B1
:400F0000BBFC7B68013B7B607B68002B02D0FB78032BE4D17B68002B02D10320FFF766FF2B4B4FF480721A80294B07221A70294B00221A70284B48221A70254B00221A705C
:400F4000264B00221A70264B02221A70254B04221A70254A244B1B78DBB243F00F03DBB21370224A214B1B78DBB243F00103DBB213701F4A1E4B1B78DBB263F07F03DBB22F
:400F8000137000BF0837BD4680BD00BF80400040824000408440004086400040884000408A4000408C4000408E40004018090048004100400043004000420040A146004063
:400FC0000F01004922420040204200402542004004400040064000400840004009400040014000400B400040A2430040A1430040A043004080B582B000AF274B1B78FB7191
:40100000264B1B78BB71264B1B787B71254AFB7903F00703DBB21370234AFB791B09DBB213701E4ABB7943F00303DBB213701C4A7B7943F00303DBB213701C4B10221A70E0
:401040001B4B80221A701B4B10221A701A4B40221A701A4B04221A70194B20221A70194B40221A70184B04221A70184B20221A70174B20221A700A2000F0F0F9084A7B791D
:401080001370064ABB791370124B44221A7000BF0837BD4680BD00BFCF010049F8460040F94600406E5800406F5800400D51004009590040005A0040045A0040175A004010
:4010C000185A0040005B0040035B0040285B00402B5B00407658004080B586B000AF72B64E4B61221A70FFF7C1FE4C4B01221A704B4A4B4B1B78DBB243F00403DBB21370F8
:401100000023FB7513E0FA7D13465B0013445B00444A13443B613B691A683B699B889BB219461046FFF744FEFB7D0133FB75FB7D092BE8D90023FB751CE0FA7D13469B0021
:4011400013445B00384A1344FB60FB681B68BB60FB685B687B60FB681A7A5B7A1B0213437B807B881A467968B868FFF72FFEFB7D0133FB75FB7D012BDFD92C494FF09040CA
:40118000FFF73AFE2A4A2A4B1B78DBB243F00203DBB21370274A274B1B78DBB243F00203DBB21370244A244B1B78DBB243F04003DBB21370214A214B1B78DBB243F01003A5
:4011C000DBB2137008221E491E48FFF7FFFD0A221D491E48FFF7FAFD0A221D491D48FFF7F5FD08221C491D48FFF7F0FD0A221C491C48FFF7EBFD1C4A1B4B1B78DBB243F069
:401200000803DBB21370FFF7F5FE0E220A491748FFF7DCFD00BF1837BD4680BD00480040E84600409C520000D8520000880000480350014013500140A0430040C24300402D
:40124000E408004802510040EC080048C0510040F80800481051004004090048225100400C0900483051004022430040B043004080B500AF02F0A4F903461B680C2B00D1EC
:40128000FEE7FEE780B584B000AF7860104B1A687B6813441A460F4BD31AB3F5007F09DC0B4B1B68FB600A4B1A687B681344084A136007E002F084F902460C2313604FF021
:4012C000FF33FB60FB6818461037BD4680BD00BFD480FF1F1082FF1F80B586B000AF224B7B61224B3B61204B7B6135E03B691B68FB603B695B68BB603B699B683B60002307
:401300007B600CE0FB681A68BB681A60BB680433BB60FB680433FB607B6804337B607A683B689A42EED13B69DB683B6000237B6008E0BB6800221A60BB680433BB607B6866
:4013400004337B607A683B689A42F2D13B6910333B617B69013B7B617B69002BC6D102F035F9FFF70DFDFEE701000000AC54000080B582B000AF184B184A1A60184A184BF2
:401380001B6843F40073136000237B600FE07B68032B04D8134A7B6852F8233000E0124B12497A6841F822307B6801337B607B682F2BECD90E4B1B78DAB20E4B1A700E4B29
:4013C0000A4A1A60FFF788FE0C4B00221A6000BF0837BD4680BD00BF0CED00E00004FA0514ED00E000000000711200000080FF1FBC760040C480FF1F08ED00E0C080FF1FCE
:4014000080B483B000AF0346FB7101BE00BF0C37BD4680BC704700BF80B582B000AF786008E00C4B1B68184601F026FA7B68A3F500437B607B68B3F5004FF2D8064B1B683B
:401440007A6802FB03F3184601F016FA00BF0837BD4680BDE480FF1FDC80FF1F80B582B000AF0346FB80FB88054A127802FB03F3184601F001FA00BF0837BD4680BD00BF8E
:40148000E080FF1F80B584B000AF03463960FB710F4B1B68FB60FB791F2B02D90020FFF7AFFFFB7903F01F0310339B00FA6813441B68BB60FB7903F01F0310339B00FA682C
:4014C00013443A681A60BB6818461037BD4680BD08ED00E080B582B000AF03460A46FB711346BB71BB79072B02D90020FFF788FFFB791F2B02D90020FFF782FFFB7903F087
:401500001F0303F1604303F56443BA795201D2B21A7000BF0837BD4680BD00BF80B485B000AF0346FB710B4B1B78DBB223F01003FB730849FB791B01DBB203F01003DAB2EB
:40154000FB7B1343DBB20B7000BF1437BD4680BC704700BF2051004080B485B000AF0346FB710B4B1B78DBB223F00203FB730849FB795B00DBB203F00203DAB2FB7B134361
:40158000DBB20B7000BF1437BD4680BC704700BF3051004080B400AF054B1B78DBB203F002035B08DBB21846BD4680BC704700BF3151004080B485B000AF0346FB710A4B71
:4015C0001B78DBB223F00103FB730749FB7903F00103DAB2FB7B1343DBB20B7000BF1437BD4680BC704700BF3051004080B485B000AF0346FB71094B1B78DBB203F07F03F5
:40160000FB730649FB79DB01DAB2FB7B1343DBB20B7000BF1437BD4680BC70473051004080B500AF064B1B78002B04D100F00AF8034B01221A7000F029F800BF80BD00BFFB
:40164000B781FF1F80B500AF102000F04FF907210320FFF73FFF0A490320FFF713FF094A084B1B78DBB243F00603DBB213700C2000F086F8044B00221A8000BF80BD00BF59
:40168000E118000009590040D881FF1F80B582B000AF01F0F9F80346FB712E4A2D4B1B78DBB243F00203DBB213702B4A2A4B1B78DBB243F00203DBB21370284A274B1B784A
:4016C000DBB243F00103DBB21370254A244B1B78DBB243F00103DBB21370224B1B78BB71BB7943F00203BB71BB7943F00103BB711C4ABB7913701C4B04221A701B4A1B4B77
:401700001B78DBB223F04003DBB21370174A174B1B78DBB243F00303DBB21370144B08221A70144B02221A70134A134B1B78DBB243F00803DBB213700A20FFF78FFE0F4BA7
:4017400008221A60FB79184601F0A2F800BF0837BD4680BDAB430040BB430040A1430040B14300400B5900400E5900400D59004008590040164600402F5B004080E200E02C
:4017800080B584B000AF0346FB71FB790A2B07D00C2B02D0082B06D008E0C423FB730BE08423FB7308E04423FB7305E0C423FB730020FFF725FE00BF054AFB7B1370FB79E2
:4017C000184600F04FF800BF1037BD4680BD00BF0A59004080B400AF054A054B1B78DBB243F00103DBB2137000BFBD4680BC70470859004080B584B000AF0346FB710C4B49
:401800001B78DBB203F00103FB73FB7B012B02D0FB79002BF3D0FB7B012B04D10120FFF71DFE034B1B78FB7B18461037BD4680BD0959004080B483B000AF084B1B88FB803F
:40184000074B1B881BB29BB2FA88D31A9BB21BB218460C37BD4680BC704700BFA25B0040DA81FF1F80B584B000AF0346FB71FB790A2B08D00C2B02D0082B08D00BE04FF434
:401880008053FB600DE04FF48063FB6009E04FF48073FB6005E00023FB600020FFF7B0FD00BF0C4B00221A80FB6842F2107202FB03F303F58063002B01DA03F2FF73DB12D9
:4018C0001A46054B1A60054B00221A8000BF1037BD4680BDDC81FF1FD481FF1FDA81FF1F80B400AF00BFBD4680BC704780B483B000AF0346FB710949084B1B78DBB25AB2D1
:4019000097F9073023F007035BB213435BB2DBB20B7000BF0C37BD4680BC70470241004080B500AF064B1B78002B04D100F00AF8034B01221A7000F03BF800BF80BD00BF3D
:40194000B881FF1F80B500AF11490420FFF79AFD07210420FFF7BEFD0E4B00221A700E4B72221A700D4B20221A700D490520FFF789FD07210520FFF7ADFD0A4B06221A7099
:40198000094B47221A70094B02221A7000BF80BDF91B0000BB81FF1F8F6400408A640040D11C00002F6400403F6400408C64004080B582B000AF00F067FF0346FB71154AC0
:4019C000144B1B78DBB243F02003DBB21370124A114B1B78DBB243F01003DBB213700F4B10221A600E4A0E4B1B78DBB243F01003DBB213700B4B20221A60084B20221A6086
:401A000000F09EF9FB79184600F042FF00BF0837BD4680BD9F6400409A64004000E100E09C64004080E200E080B483B000AF1B4B10221A601A4B1B78BB711A4B1B787B71EA
:401A4000194B1B78DBB2002B03D1BA797B799A4217D0BB79154AD35CFB71BB790133BB71BB79132B01D90023BB710D4ABB7913700D4B1B78DBB2002B06D00B4B00221A7013
:401A800002E00B4B1B78FB710A4B10221A60FB7918460C37BD4680BC704700BF80E100E0BC81FF1FBD81FF1FBE81FF1FE081FF1F4D64004000E100E090B583B000AF0C4B20
:401AC00010221A600B4B1B78FB800A4B00221A70094B10221A60FB881B029CB2FFF7A4FF03469BB223439BB218460C37BD4690BD80E100E0BB81FF1F00E100E080B485B04F
:401B000000AF0346FB71254B1B78FB73244B1B78BB73FA7BBB7B9A4208D2FA7BBB7B013B9A420CBF01230023DBB207E0FA7BBB7BD31A132B0CBF01230023DBB2002BE2D1A3
:401B4000BA7BFB7B9A420AD1164B1B78DBB203F00403002B03D1144AFB79137018E0FB7B132B01D90023FB73FB7B1049FA79CA54FB7B0133FB73094AFB7B1370094B1B7872
:401B8000DBB203F00203002B02D0094B20221A6000BF1437BD4680BC704700BFBA81FF1FB981FF1F6C6400404C640040F481FF1F00E200E080B584B000AF78600023FB813F
:401BC0000C4B1B78002B10D009E0FB897A6813441B781846FFF792FFFB890133FB81FB897A6813441B78002BEFD100BF1037BD4680BD00BFB881FF1F80B483B000AF0023CE
:401C0000FB712B4B1B78BB71BB797B71BB7903F01E03002B0CD097F9063003F01E035AB2244B1B785BB213435BB2DAB2214B1A70BB7903F02003002B30D01F4B1B787B715C
:401C40001E4B1B78DBB219461D4A7B7953540123FB71FB79002B21D01A4B1B78DBB2002B02D0194B01221A70144B1B78DBB20133DAB2124B1A70114B1B78DBB2132B02D90C
:401C80000E4B00221A700D4B1B78DAB20F4B1B78DBB29A4202D10B4B01221A70BB7903F02003002BADD100BF0C37BD4680BC70476A640040BB81FF1F4D640040BD81FF1FDC
:401CC000E081FF1FBE81FF1FBF81FF1FBC81FF1F80B400AF17E0154B1B78DBB2132B02D9124B00221A70124B104A1278D2B21146104A525CD2B21A700C4B1B78DBB20133F6
:401D0000DAB20A4B1A70094B1B78DAB20A4B1B789A4206D0094B1B78DBB203F00403002BD9D000BFBD4680BC704700BFB981FF1F4C640040F481FF1FBA81FF1F6C64004031
:401D400080B400AF094A094B1B78DBB243F00803DBB21370064A064B1B78DBB243F00803DBB2137000BFBD4680BC7047A2430040B243004080B582B000AF786000F03CF83B
:401D8000786800F009F8072000F018F800F028F800BF0837BD4680BD80B485B000AF7860054B1B68FB60FB6844337A681A6000BF1437BD4680BC704708ED00E080B483B04D
:401DC00000AF0346FB71054AFB795B01DBB2137000BF0C37BD4680BC704700BF01E400E080B400AF034B02221A6000BFBD4680BC704700BF00E100E080B400AF034B02227B
:401E00001A6000BFBD4680BC704700BF80E100E080B500AF224A224B1B78DBB203F00103DBB213701F4A1F4B1B78DBB223F00303DBB213701C4A1C4B1B78DBB223F0300340
:401E4000DBB21370184A184B1B78DBB243F03003DBB21370144A144B1B78DBB223F00F03DBB21370104A104B1B78DBB243F00F03DBB213700D4A0D4B1B78DBB243F00103B5
:401E8000DBB2137045F6BF5000F058F845F6BF5000F066F8002000F041F800BF80BD00BF004F0040024F00400B4F0040014F004080B400AF0D4A0D4B1B78DBB243F00103B9
:401EC000DBB213700A4A0A4B1B78DBB243F00103DBB21370074A074B1B78DBB243F00103DBB2137000BFBD4680BC7047A3430040B3430040004F004080B500AF064B1B7850
:401F0000002B04D1FFF784FF034B01221A70FFF7CFFF00BF80BD00BFC181FF1F80B483B000AF0346FB71044AFB79137000BF0C37BD4680BC704700BF034F004080B485B08C
:401F400000AF0346FB80FB88FB81044AFB89138000BF1437BD4680BC704700BF044F004080B483B000AF0346FB80044AFB88138000BF0C37BD4680BC704700BF064F0040AE
:401F800080B582B000AF786000F03CF8786800F009F8072000F018F800F028F800BF0837BD4680BD80B485B000AF7860054B1B68FB60FB6848337A681A6000BF1437BD4664
:401FC00080BC704708ED00E080B483B000AF0346FB71054AFB795B01DBB2137000BF0C37BD4680BC704700BF02E400E080B400AF034B04221A6000BFBD4680BC704700BF5D
:4020000000E100E080B400AF034B04221A6000BFBD4680BC704700BF80E100E080B500AF0A4B0C221A700A4A094B1B78DBB243F02003DBB21370074B80221A70012000F0AB
:402040005DF8012000F03EF800BF80BD04580040055800400658004080B400AF0D4A0D4B1B78DBB243F00203DBB213700A4A0A4B1B78DBB243F00203DBB21370074A074B43
:402080001B78DBB263F07F03DBB2137000BFBD4680BC7047A9430040B94300407758004080B500AF064B1B78002B04D1FFF7B6FF034B01221A70FFF7CFFF00BF80BD00BF02
:4020C000C281FF1F80B485B000AF0346FB710A4B1B78DBB223F00303FB73FB7903F00303DAB2FB7B1343FB73034AFB7B137000BF1437BD4680BC70470558004080B588B033
:4021000000AF0346FB71284A07F114031068516803C3127A1A70254A07F108031068516803C3127A1A70FB79082B39D8204A204B1B78DBB223F07F03DBB213701C481C4B11
:402140001B78DAB2FB7907F120010B4413F80C1CFB7907F1200E734413F8183C9B00DBB203F00C03DBB20B43DBB21343DBB20370104A104B1B78DBB223F00C03DBB2137092
:402180000C490C4B1B78DAB2FB7907F12000034413F8183C1343DBB243F00C03DBB20B7000BF2037BD4680BDEC520000F8520000065800400558004080B485B000AF03467B
:4021C000FB710B4B1B78DBB223F00403FB730849FB799B00DBB203F00403DAB2FB7B1343DBB20B7000BF1437BD4680BC704700BF3051004080B485B000AF0346FB710B4B8B
:402200001B78DBB223F00803FB730849FB79DB00DBB203F00803DAB2FB7B1343DBB20B7000BF1437BD4680BC704700BF3051004080B485B000AF0346FB710B4B1B78DBB2A4
:4022400023F01003FB730849FB791B01DBB203F01003DAB2FB7B1343DBB20B7000BF1437BD4680BC704700BF3051004080B485B000AF0346FB710B4B1B78DBB223F02003FD
:40228000FB730849FB795B01DBB203F02003DAB2FB7B1343DBB20B7000BF1437BD4680BC704700BF3051004080B485B000AF0346FB710B4B1B78DBB223F04003FB730849B4
:4022C000FB799B01DBB203F04003DAB2FB7B1343DBB20B7000BF1437BD4680BC704700BF3051004080B500AF094B02221A70094B0C221A70084B01221A70052000F060F8CC
:40230000032000F07FF8032000F03EF800BF80BD00580040015800400258004080B400AF0D4A0D4B1B78DBB243F00103DBB213700A4A0A4B1B78DBB243F00103DBB21370FA
:40234000074A074B1B78DBB263F07F03DBB2137000BFBD4680BC7047A9430040B94300407758004080B500AF064B1B78002B04D1044B01221A70FFF7B5FFFFF7CFFF00BF98
:4023800080BD00BFC381FF1F80B485B000AF0346FB710A4B1B78DBB223F00303FB73FB7903F00303DAB2FB7B1343FB73034AFB7B137000BF1437BD4680BC704701580040E4
:4023C00080B483B000AF0346FB71FB79072B11D80B4A0B4B1B78DBB223F07003DBB213700749074B1B78DAB2FB791B01DBB21343DBB20B7000BF0C37BD4680BC704700BF2F
:402400000258004080B483B000AF0346FB71FB79032B11D80B4A0B4B1B78DBB223F00C03DBB213700749074B1B78DAB2FB799B00DBB21343DBB20B7000BF0C37BD4680BCB3
:40244000704700BF0258004080B485B000AF0346FB710A4B1B78DBB223F00103FB730749FB7903F00103DAB2FB7B1343DBB20B7000BF1437BD4680BC704700BFC05100405A
:4024800080B400AF044B1B78DBB203F00103DBB21846BD4680BC7047C151004080B485B000AF0346FB710B4B1B78DBB223F00203FB730849FB795B00DBB203F00203DAB2A6
:4024C000FB7B1343DBB20B7000BF1437BD4680BC704700BFC051004080B400AF054B1B78DBB203F002035B08DBB21846BD4680BC704700BFC151004080B500AF064B1B7890
:40250000002B04D100F00AF8034B01221A7000F025F800BF80BD00BFC481FF1F80B400AF094B72221A70094B20221A70084B06221A70084B47221A70074B00221A7000BF06
:40254000BD4680BC704700BF8B6500408865004028650040386500408B64004080B582B000AF00F091F90346FB71114A104B1B78DBB243F02003DBB213700E4A0D4B1B78AC
:40258000DBB243F01003DBB213700B4A0A4B1B78DBB243F01003DBB2137000F07BF8FB79184600F075F900BF0837BD4680BD00BF9B650040986500409B64004080B483B065
:4025C00000AF044B1B78FB71FB7918460C37BD4680BC70474B65004080B483B000AF064B1B78DBB203F07F03FB71FB7918460C37BD4680BC704700BF6865004098B500AFA8
:40260000FFF7EAFF03461B021CB2FFF7D7FF03461BB223431BB29BB2184698BD80B483B000AF0346FB7100BF074B1B78DBB203F00403002BF8D1054AFB79137000BF0C3740
:40264000BD4680BC704700BF6B6400404B64004080B584B000AF78600023FB810C4B1B78002B10D009E0FB897A6813441B781846FFF7D4FFFB890133FB81FB897A681344D2
:402680001B78002BEFD100BF1037BD4680BD00BFC481FF1F80B400AF094A094B1B78DBB243F00403DBB21370064A064B1B78DBB243F00403DBB2137000BFBD4680BC704780
:4026C000A2430040B243004080B582B000AF786000F03CF8786800F009F8072000F018F800F028F800BF0837BD4680BD80B485B000AF7860054B1B68FB60FB6840337A6852
:402700001A6000BF1437BD4680BC704708ED00E080B483B000AF0346FB71054AFB795B01DBB2137000BF0C37BD4680BC704700BF00E400E080B400AF034B01221A6000BF48
:40274000BD4680BC704700BF00E100E080B400AF034B01221A6000BFBD4680BC704700BF80E100E080B485B000AF0346FB710B4B1B78DBB223F00403FB730849FB799B0035
:40278000DBB203F00403DAB2FB7B1343DBB20B7000BF1437BD4680BC704700BF1051004080B400AF054B1B78DBB203F004039B08DBB21846BD4680BC704700BF11510040A0
:4027C00080B485B000AF0346FB710B4B1B78DBB223F01003FB730849FB791B01DBB203F01003DAB2FB7B1343DBB20B7000BF1437BD4680BC704700BF1051004080B400AFEB
:40280000054B1B78DBB203F010031B09DBB21846BD4680BC704700BF1151004080B485B000AF0346FB710B4B1B78DBB223F02003FB730849FB795B01DBB203F02003DAB285
:40284000FB7B1343DBB20B7000BF1437BD4680BC704700BF1051004080B400AF054B1B78DBB203F020035B09DBB21846BD4680BC704700BF115100400230800803D000BFC9
:4028800001380046FCD17047EFF3108072B6704780F31088704700BF2DE9F0438BB006460F4600F075F8DFF8E480044698F900300D46013337D03046394600F0DFF9002808
:4028C00031D02BA3D3E900233046394600F026FE814668BB28A3D3E900233046394600F0FFFD00B398F90030254C002000210422022BCDF82090CDE90467CDE90267CDE9C8
:4029000006018DE814002CD0684600F0BDF940B3089B1BB100F054FE089B0360DDE906010BB0BDE8F083204629460BB0BDE8F083134898F9003003210022CDE90467CDE98C
:4029400002670190009108922BB90E4B4FF06042CDE90623D8E70C490020022BCDE90601D2D100F02DFE22230360D1E7AFF30080EF39FAFE422E864051302DD5104987C05E
:4029800004530000FFFFEF470000F07FE880FF1F2DE9F04FB04F21F00042BA4283B00C464FEAD17605460DD9AC4FBA4225D9C1F31303034340F0EF800EB10020014603B041
:4029C000BDE8F08FA64B9A4200F2CC80A54B9A4200F2DE808AA3D3E9002300F05DF90022A14B00F09BFD002800F005812846214600229D4B00F050F9E1E783A3D3E9002321
:402A000000F08CFD002840F0CB8081A3D3E900232846214600F064FD0028CED17EA3D3E90023924F284607EBC608214600F0E6FAD8E9002300F030F900F07AFD804600F02A
:402A400077FA77A3D3E9002306460F4600F0D6FA02460B462846214600F01CF972A3D3E90023CDE900013046394600F0C7FA82468B46DDE9000152465B4600F00BF90546EF
:402A80000C462A4623462846214600F0B7FA68A3D3E9002306460F4600F0B0FA66A3D3E9002300F0F7F832463B4600F0A7FA64A3D3E9002300F0F0F832463B4600F09EFAC0
:402AC00061A3D3E9002300F0E5F832463B4600F095FA5FA3D3E9002300F0DEF832463B4600F08CFA02460B462846214600F0D2F806460F462846214632463B46B8F1000F49
:402B000056D000F07BFA324604460D463B4600204FF0804100F0BEF802460B462046294600F096FB02460B465046594600F0B2F8DDE9002300F0AEF80B4602464A4900208C
:402B400000F0A8F86FF47F7398454FDA08F57A7801EB085100224FF0B87300F04FFA03B0BDE8F08F424B9A423FF658AF414BF4002344D3E9002300F08DF83F4BC6F1010870
:402B80001C44CDE90001D4E900ABC6EB080870E74FF0000875E702460B4600F07DF80EE717A3D3E900231046194600F027FA06E700F024FA0022804689464FF0804330465F
:402BC000394600F067F802460B464046494600F03FFB2A46234600F05DF802460B460020214900F057F803B0BDE8F08F01EB085103B0BDE8F08F804643E700BFAFF30080EB
:402C00009C7500883CE4377EEF39FAFE422E864051302DD5104987C0FE822B654715F73F0000E0FE422EE63F763C7935EF39EA3DD0A4BE726937663EF16BD2C541BDBB3E17
:402C40002CDE25AF6A56113F93BDBE166CC1663F3E5555555555C53F412E8640FFFFEF7F422ED63FFFFF2F3E0000F03F08530000B1A2F03F285300001853000041F0004190
:402C800001F58010C00F70470020704781F0004102E000BF83F0004330B54FEA41044FEA430594EA050F08BF90EA020F1FBF54EA000C55EA020C7FEA645C7FEA655C00F0A8
:402CC000E2804FEA5454D4EB5555B8BF6D420CDD2C4480EA020281EA030382EA000083EA010180EA020281EA0303362D88BF30BD11F0004F4FEA01314FF4801C4CEA113167
:402D000002D0404261EB410113F0004F4FEA03334CEA133302D0524263EB430394EA050F00F0A780A4F10104D5F1200E0DDB02FA0EFC22FA05F2801841F1000103FA0EF27A
:402D4000801843FA05F359410EE0A5F120050EF1200E012A03FA0EFC28BF4CF0020C43FA05F3C01851EBE37101F0004507D54FF0000EDCF1000C7EEB00006EEB0101B1F574
:402D8000801F1BD3B1F5001F0CD349085FEA30004FEA3C0C04F101044FEA445212F5800F80F09A80BCF1004F08BF5FEA500C50F1000041EB045141EA050130BD5FEA4C0CC5
:402DC000404141EB010111F4801FA4F10104E9D191F0000F04BF01460020B1FA81F308BF2033A3F10B03B3F120020CDA0C3208DD02F1140CC2F10C0201FA0CF021FA02F1EF
:402E00000CE002F11402D8BFC2F1200C01FA02F120FA0CFCDCBF41EA0C019040E41AA2BF01EB0451294330BD6FEA04041F3C1CDA0C340EDC04F11404C4F1200220FA04F0AD
:402E400001FA02F340EA030021FA04F345EA030130BDC4F10C04C4F1200220FA02F001FA04F340EA0300294630BD21FA04F0294630BD94F0000F83F4801306BF81F480110D
:402E80000134013D4EE77FEA645C18BF7FEA655C29D094EA050F08BF90EA020F05D054EA000C04BF1946104630BD91EA030F1EBF0021002030BD5FEA545C05D140004941AE
:402EC00028BF41F0004130BD14F580043CBF01F5801130BD01F0004545F0FE4141F470014FF0000030BD7FEA645C1ABF194610467FEA655C1CBF0B46024650EA013406BF8B
:402F000052EA033591EA030F41F4002130BD00BF90F0000F04BF0021704730B54FF4806404F132044FF000054FF0000150E700BF90F0000F04BF0021704730B54FF480647D
:402F400004F1320410F0004548BF40424FF000013EE700BF42004FEAE2014FEA31014FEA02701FBF12F07F4393F07F4F81F06051704792F0000F14BF93F07F4F704730B5A3
:402F80004FF4607401F0004521F0004120E700BF50EA010208BF704730B54FF000050AE050EA010208BF704730B511F0004502D5404261EB41014FF4806404F132045FEA76
:402FC000915C3FF4DCAE4FF003025FEADC0C18BF03325FEADC0C18BF033202EBDC02C2F1200300FA03FC20FA02F001FA03FE40EA0E0021FA02F11444C1E600BF70B54FF05F
:40300000FF0C4CF4E06C1CEA11541DBF1CEA135594EA0C0F95EA0C0F00F0DEF82C4481EA030621EA4C5123EA4C5350EA013518BF52EA033541F4801143F4801338D0A0FB25
:4030400002CE4FF00005E1FB02E506F00042E0FB03E54FF00006E1FB03569CF0000F18BF4EF0010EA4F1FF04B6F5007F64F5407404D25FEA4E0E6D4146EB060642EAC621FD
:4030800041EA55514FEAC52040EA5E504FEACE2EB4F1FD0C88BFBCF5E06F1ED8BEF1004F08BF5FEA500E50F1000041EB045170BD06F0004646EA010140EA020081EA0301C5
:4030C000B4EB5C04C2BFD4EB0C0541EA045170BD41F480114FF0000E013C00F3AB8014F1360FDEBF002001F0004170BDC4F10004203C35DA0C341BDC04F11404C4F12005BD
:4031000000FA05F320FA04F001FA05F240EA020001F0004221F0004110EBD37021FA04F642EB06015EEA430E08BF20EAD37070BDC4F10C04C4F1200500FA04F320FA05F0EC
:4031400001FA04F240EA020001F0004110EBD37041F100015EEA430E08BF20EAD37070BDC4F1200500FA05F24EEA020E20FA04F301FA05F243EA020321FA04F001F000412C
:4031800021FA04F220EA020000EBD3705EEA430E08BF20EAD37070BD94F0000F0FD101F00046400041EB010111F4801F08BF013CF7D041EA060195F0000F18BF704703F01C
:4031C0000046520043EB030313F4801F08BF013DF7D043EA0603704794EA0C0F0CEA135518BF95EA0C0F0CD050EA410618BF52EA4306D1D181EA030101F000414FF0000001
:4032000070BD50EA410606BF1046194652EA430619D094EA0C0F02D150EA013613D195EA0C0F05D152EA03361CBF104619460AD181EA030101F0004141F0FE4141F4700130
:403240004FF0000070BD41F0FE4141F4780170BD70B54FF0FF0C4CF4E06C1CEA11541DBF1CEA135594EA0C0F95EA0C0F00F0A7F8A4EB050481EA030E52EA03354FEA013132
:4032800000F088804FEA03334FF0805545EA131343EA12634FEA022245EA111545EA10654FEA00260EF000419D4208BF964244F1FD0404F5407402D25B084FEA3202B61AD3
:4032C00065EB03055B084FEA32024FF480104FF4002CB6EB020E75EB030E22BFB61A754640EA0C005B084FEA3202B6EB020E75EB030E22BFB61A754640EA5C005B084FEA20
:403300003202B6EB020E75EB030E22BFB61A754640EA9C005B084FEA3202B6EB020E75EB030E22BFB61A754640EADC0055EA060E18D04FEA051545EA16754FEA06164FEACB
:40334000C30343EA52734FEAC2025FEA1C1CC0D111F4801F0BD141EA00014FF000004FF0004CB6E711F4801F04BF01430020B4F1FD0C88BFBCF5E06F3FF6AFAEB5EB030C72
:4033800004BFB6EB020C5FEA500C50F1000041EB045170BD0EF0004E4EEA113114EB5C04C2BFD4EB0C0541EA045170BD41F480114FF0000E013C90E645EA060E8DE60CEA72
:4033C000135594EA0C0F08BF95EA0C0F3FF43BAF94EA0C0F0AD150EA01347FF434AF95EA0C0F7FF425AF104619462CE795EA0C0F06D152EA03353FF4FDAE1046194622E7EB
:4034000050EA410618BF52EA43067FF4C5AE50EA41047FF40DAF52EA43057FF4EBAE12E74FF0FF3C06E000BF4FF0010C02E000BF4FF0010C4DF804CD4FEA410C7FEA6C5C6D
:403440004FEA430C18BF7FEA6C5C1BD001B050EA410C0CBF52EA430C91EA030F02BF90EA020F0020704710F1000F91EA030F58BF994208BF90422CBFD8176FEAE37040F0B5
:40348000010070474FEA410C7FEA6C5C02D150EA013C07D14FEA430C7FEA6C5CD6D152EA033CD3D05DF8040B704700BF8446104662468C461946634600E000BF01B5FFF736
:4034C000B7FF002848BF10F1000F01BD4DF808EDFFF7F4FF0CBF012000205DF808FB00BF4DF808EDFFF7EAFF34BF012000205DF808FB00BF4DF808EDFFF7E0FF94BF0120EC
:4035000000205DF808FB00BF4DF808EDFFF7CEFF94BF012000205DF808FB00BF4DF808EDFFF7C4FF34BF012000205DF808FB00BF4FEA410212F5001215D211D56FF47873BE
:40354000B3EB625212D94FEAC12343F0004343EA505311F0004F23FA02F018BF404270474FF00000704750EA013005D111F0004008BF6FF0004070474FF00000704700BFF2
:403580004A0011D212F5001211D20DD56FF47873B3EB62520ED44FEAC12343F0004343EA505323FA02F070474FF00000704750EA013002D14FF0FF3070474FF00000704706
:4035C000014B1868704700BF4C81FF1F0E4B70B51E460E4C0025E41AA410A54204D056F8253098470135F8E701F04EFF084B094C1E46E41AA4100025A54204D056F82530BA
:4036000098470135F8E770BD9454000094540000945400009C540000931E222B10B50C4602D90020087010BD0A2A06D1002804DA2D230B704042012100E00021214400F096
:403640006BFB204610BDFFF7E7BF10B5431E0A44914204D011F8014B03F8014FF8E710BD03460244934202D003F8011BFAE770472DE9F04788B0149F002B1E461299B8BFE0
:4036800003F1004327F02007B6BF1E4600232D23462F1446109DDDF84CA00B7003D0452F03D1013501E0032300E0022307AA049206AA03928DE828042246334600F0F4FB47
:4036C000472F804602D1119BDB0728D5462F08EB050911D198F80030302B0AD10022002320463146FFF7F2FE18B9C5F10105CAF80050DAF80030994400220023204631463A
:40370000FFF7E4FE08B9302202E0CDF81C9006E0079B994503D9591C07911A70F8E74046079B159AC8EB0303136008B0BDE8F087034673B50029B8BF494203F8022BB4BF85
:403740002D222B22092942701ADD0DF1070216460A2591FBF5F405FB1411092C01F1300102F8011D2146F4DC3031541E02F8011CB4421A460AD214F8012B03F8012BF7E7A6
:403780001A463024214402F8024B5970101A02B070BD00002DE9F04F91B00C46DDF8688016461F46054601F017F903681846099300F0AAFA00230E93D8F800300A90073394
:4037C00023F0070303F1080294F81890D4F800B0C8F80020D3E90023C4E91223D4F84CA0D4F848802AF000430B934FF0FF32A74B40460B9901F050FCA0B94FF0FF32A34B96
:4038000040460B99FFF776FE60B90022002340465146FFF765FE10B12D2384F843309C4B9C4A0AE0424653464046514601F034FC002800F09281984B984AB9F1470F8CBFCF
:4038400090469846032323612BF0040323604FF0000A3DE0B9F1670F00F08A81B9F1470F00F0868123600193636800210DF13302059002920093424653460691CDF81090BE
:40388000CDF80CE02846FFF7F3FE09F0DF03472B804600F08481B9F1650F0D9900F28D8101394A4604F150000D91FFF741FF0E9A82468318012A236100F37C812268D10747
:4038C00000F178819DF8333013B12D2384F84330009733460FAA2146284600F09FF9013002D14FF0FF3096E123685A0501D4236965E0B9F1650F40F2D580D4E912010022AD
:403900000023FFF7E3FD78B30123654A31462846B8470130E5D00E9B0D9A9A420BDB2368D80708D423689B0740F111814FF0000804F1190906E10A9B099A31462846B8470D
:403940000130CED04FF0000804F11A090E9B013B9845E7DA01234A4631462846B8470130BFD008F10108F1E70D9B002B29DC01234B4A31462846B8470130B2D00D9B23B9B8
:403980000E9B13B92368D907CCD50A9B099A31462846B8470130A4D04FF0000904F11A0A0D9B5B42994509DA0123524631462846B847013095D009F10109F1E70E9B42460B
:4039C000A7E00E9AA36D9A42A8BF1A46002A914606DC4FF0000A29EAE97904F11A0B11E01346314642462846B8470130F1D178E701235A4631462846B84701303FF471AFF6
:403A00000AF1010AA36DC9EB03029245F0DB08EB03090D9A0E9B9A420FDB2368DA070CD40E9B0D9A9844C9EB08089B1A9845A8BF9846B8F1000F08DC0FE00A9B099A3146A3
:403A40002846B8470130EBD14BE743464A4631462846B84701303FF444AF4FF0000928EAE87804F11A0A09E00123524631462846B84701303FF435AF09F101090D9A0E9B6E
:403A80009B1AC8EB03039945EEDB4BE7FFFFEF7F3A5300003E53000042530000465300004A5300000E9A012A01DCDB0738D50123424631462846B84701303FF412AF0A9B71
:403AC000099A31462846B84701303FF40AAFD4E9120100220023FFF7F9FC20B14FF0000804F11A090EE00E9B08F10102013B19E001234A4631462846B84701303FF4F1AE8F
:403B000008F101080E9B013B9845F1DB534604F1500231462846B84701307FF403AFE0E64246012331462846B8470130EED1D8E601234A4631462846B84701303FF4D1AE5C
:403B400008F10108E3680F9A9B1A9845F0DBE0680F9B9842B8BF18465DE062680EA8531C0DF1340E4BF480637FF474AE062201E012B90122626075E6002106910DF1330130
:403B80008DE80C00236005904246CDF81090CDF80CE0029153462846FFF76AFD80460D9BD81C02DB626893421DDDA9F102095FFA89F970E60133236184E6B9F1660F14D103
:403BC0000029636807DD216113B92268D2071DD501330B4419E013B92268D00701D5023313E0012311E04FF067090D9B0E9A934205DB22682361D10708D5013305E0002BD3
:403C0000D4BFC3F102030123134423610D9B4FF0000AA36556E611B0BDE8F08F2DE9F04791461F460A698B6806469342B8BF1346C9F8003091F843200C46DDF8208012B1D8
:403C40000133C9F800302368990642BFD9F800300233C9F80030256815F0060510D104F1190A07E00123524639463046C04701301AD00135E368D9F800209B1A9D42F1DBAB
:403C800094F843302268003318BF012392060FD5E118302081F843005A1C94F845102244023382F8431003E04FF0FF30BDE8F08704F1430239463046C0470130F4D02268EB
:403CC000D9F80050E36802F00602042A08BF5D1B2269A3680CBF25EAE57500259342C4BF9B1AED184FF000091A344D4509D00123224639463046C0470130D5D009F101098D
:403D0000F3E70020BDE8F087034613F8012B002AFBD1181A01387047F0B58BB003460F466D461A4C04F1200E2E4620686168083403C674453546F7D1217920683171911EE2
:403D4000222930604FF0000001D938701CE07D1EB3FBF2F402FB14330AAE334413F8283C411C05F8013F23460CB10846F0E77C543A18C11A8B4206DAF95C1478FC5402F8E0
:403D800001190133F5E738460BB0F0BD4C5300002DE9F74F03690C6980469C427FDC013C01F114074FEA840E00F1140606EB0E0357F82450019356F824300135B3FBF5F52F
:403DC00007EB0E09C5B34FF0000A3846B446D34650F8043B9AB205FB02A21B0C4FEA124A05FB03A392B2C2EB0B0BBCF800204FEA134A5A441FFA83FBDCF800308145CBEB69
:403E0000134303EB224392B242EA03424FEA234B4CF8042BDCD256F80E306BB9019B043B9E421A4602D3C8F8104005E01268043B002AF8D1013CF3E7404600F0E6FF002881
:403E40002BDB304601354FF0000E57F8042B036891B2C1EB0E0E120C99B27144C2EB134303EB214389B24FEA234EB94541EA034340F8043BE9D256F8242006EB840362B931
:403E8000043B9E421A4602D3C8F8104005E01268043B002AF8D1013CF3E7284600E0002003B0BDE8F08F00002DE9F04F456A95B08246219CCDE9022345B9102000F090FD5D
:403EC000CAF82400456085600560C560DAF82430196859B15A68012393404A608B60504600F0BBFDDAF8243000221A60039BA04A002BBDBF01232360039B0023BCBF23F0A4
:403F000000430393DDF80C80A8BF236028F000431B0D1B0593421DD142F20F73209A1360029B43B9934A944BC8F31300002814BF1846104600E09048229B002B00F04685E7
:403F4000C37813B100F1080300E0C31C229A136000F03CBDDDE902450022002320462946FFF7B4FA074658B1209A01231360229B002B00F01E8581481860013800F026BD35
:403F800012AB019313AB009322462B46504600F0B7FFC8F30A56049056B1C5F3130343F07F51204641F44011A6F2FF3611971DE0139B129E1E4406F23243202B0ADD029A6A
:403FC00006F21240C3F1400322FA00F008FA03F3184304E0C3F12000029B03FA00F0FEF797FF0123A1F1F871013E11930022644BFEF750FE58A3D3E90023FEF7FFFF58A376
:40400000D3E90023FEF748FE044630460D46FEF78FFF55A3D3E90023FEF7F0FF02460B4620462946FEF738FE04460D46FFF780FA00228346002320462946FFF751FA58B142
:404040005846FEF775FF02460B4620462946FFF73DFA08B90BF1FF3BBBF1160F0DD8DDE90223484901EBCB01D1E90001FFF756FA30B10BF1FF3B002300E00123109300E0FB
:404080001090129B9E1B731E079343BFC3F10008002307934FF00008BBF1000F06DB079BCDF82CB05B440793002705E00023CBEB0808CBF100070B931E9B092B28D8052B82
:4040C000C4BF043B1E931E9BC8BF0025A3F10203D8BF0125032B20D8DFE803F0060E0204012302E0012308E000230A931F9B002B1DDD9946059321E000230A931F9B0BEBFF
:40410000030909F10103012B0593B8BF012315E0012500231E930A9501E001230A934FF0FF390022CDF8149012231F9206E04FF001094B46CDF81490CDF87C90DAF82440CE
:4041400000226260042101F114029A421CD86268490001326260F6E761436F63A787D23FB3C8608B288AC63FFB799F501344D33F0000F07F715300007A5300004B5300003D
:404180000000F83F885300006168504600F030FCDAF8243020601B680693059B0E2B00F25B81002D00F05881DDE90234BBF1000FCDE90E3430DD9F4A0BF00F034FEA2B15E8
:4041C00002EBC303E80618CBCDE908340CD5DDE90E01994B05F00F05D3E90823FFF738F80324CDE9020100E00224934E6DB1E90708D5DDE90801D6E90023FEF7FFFECDE98E
:40420000080101346D100836F0E7DDE90823DDE90201FFF71DF820E0CBF1000505B3DDE90E01844B05F00F0203EBC203D3E90023FEF7E4FECDE902017F4E2D110023022450
:4042400055B1EA0705D5D6E90023FEF7D7FE013401236D100836F3E71BB1CDE9020100E00224109BE3B1DDE902560022734B28463146FFF735F998B1059B8BB1B9F1000F24
:4042800040F3E6800BF1FF330893314600226C4B2846FEF7B3FE0134CDE902014E4602E0059ECDF820B02046FEF742FEDDE90223FEF7A4FE634B0022FEF7EEFCA1F150737B
:4042C00004460C931D46D6B9DDE9020100225E4BFEF7E0FC22460C9BCDE90201FFF71EF9002840F03F820C99224601F10043DDE90201FFF7F5F8002840F02B82A8E00A9A71
:404300004C4B711E002A49D003EBC103D3E9002300204E49FEF79CFF22462B46FEF7BAFCCDE90C01069CDDE90201FFF701F90546FEF7FEFD02460B46DDE90201FEF7AAFC62
:40434000DDE90C23303504F8015BCDE90201FFF7C7F8002840F01D83DDE9022300203749FEF798FCDDE90C23FFF7BAF8002840F0D180069BE31AB3426ADADDE90C010022FF
:404380002F4BFEF73BFE0022CDE90C01DDE902012B4BFEF733FECDE90201C4E703EBC1012246D1E900012B46FEF728FE069BCDE90C011D469C19DDE90201FFF7B9F8064610
:4043C000FEF7B6FD02460B46DDE90201FEF762FC303605F8016BAC42CDE902014FF0000222D11A4BDDE90C01FEF756FC02460B46DDE90201FFF792F8002840F08B80DDE92C
:404400000C2300201149FEF745FC02460B46DDE90201FFF765F8D8B114F8013C621E302B40F0B7821446F7E7054BFEF7E7FDCDE90201C0E788530000605400000000F03F53
:404440000000244000001C40000014400000E03FDDE90E34CDE90234139B002B7CDBBBF10E0F79DCAB4B03EBCB03D3E900671F9B002B14DA059B002B11DC40F06C81002228
:40448000A54B30463946FEF7B9FDDDE90223FFF73BF8059D2E46002840F05F8165E1069CDDE9028932463B4640464946FEF7D0FEFFF73EF80546FEF73BFD32463B46FEF76E
:4044C0009DFD0B46024649464046FEF7E3FB05F1300E069B04F801EBC3EB040E059B73452DD102460B46FEF7D7FB8046894602460B4630463946FEF7F3FF78B942464B461A
:4045000030463946FEF7E2FF002800F04482EB0704D440E2DDF820B000E01C4614F8012C631E392A07D1069A9A42F6D1069930220BF1010B0A701A7801321A702BE20022D6
:40454000764BFEF75BFD0022002380468946FEF7BDFF0028A6D01EE20A9A002A2BD01E9A012A0ADC119A12B103F2334302E0129BC3F136033D46444613E0059B5D1EAF4211
:40458000BFBF0B9BEA1B9B180B93059BB6BF2F467D1B0025002BA7BF4446059BC3EB08040023079A01211A4450469844079200F0F3FA064602E03D4644460A9E5CB1079B07
:4045C000002B08DDA342A8BF2346079AC3EB0808E41AD31A0793002F1DDD0A9BABB18DB131462A46504600F071FB049A01460646504600F0DAFA04990890504600F02DFA64
:40460000089B04937A1B06D000E03A460499504600F05CFB04900121504600F0BDFA0B9B05465BB31A460146504600F04FFB1E9B0546012B18DC029B83B9039BC3F313032B
:4046400073B9039B23F000473F0D3F054FB1079B08F1010801330793012702E0002700E0029F0B9B73B100E000272B6905EB8303186900F044FAC0F1200004E01E9B012B3E
:40468000D9DD0B9F0120079B184410F01F0008D0C0F12003042B02DDC0F11C0002E006D018461C30079B8044034404440793B8F1000F05DD42460499504600F055FB0490BB
:4046C000079B002B05DD29461A46504600F04CFB0546109B23B32946049800F096FB00281EDA00230A220499504600F0CDF90A9B0BF1FF3B0490002B00F05F8131460023BB
:404700000A22504600F0C0F9B9F1000F06463FDC3BE000BF885300000000144000002440059B002B2BDC1E9B022B28DDDDF81490B9F1000F11D129464B460522504600F003
:40474000A3F901460546049800F05FFB00280CDC03E0354600E000252E461F9B069C6FEA030B09E03546DDF820B0069B069A5C1C312313700BF1010B05960026F7E00A9B9D
:40478000DDF8149023B9069CB2E01E9B022BCFDC002C05DD31462246504600F0E5FA06469FB17168504600F023F90446326906F10C01023292000C30FEF747FF01222146C6
:4047C000504600F0D1FA059000E00596029B069F03F00103079329460498FFF7D9FA3146044600F13008049800F00FFB059A02902946504600F025FBC36802463BB901463D
:404800000A90049800F001FB0A9A034600E00123114650460A9300F020F90A9B53B91E9A42B9079A32B9B8F1390F2AD0029B002B1CDC1DE0029A002A04DB1BD11E9ACAB96E
:40484000079ABAB9002B13DD01220499504600F08BFA2946049000F0D8FA002803DC07D118F0010F04D0B8F1390F0AD004F131087C1C0CE0002B07F101040BDDB8F1390F30
:4048800003D139233B70013756E008F1010887F800806CE0069B2746E31A4B4504F8018C3BD000230A220499504600F0EDF8059B04909E424FF00A024FF00003314650462E
:4048C00004D100F0E1F80646059084E700F0DCF8002306460A220599504600F0D5F8059079E700230A220499504600F0CDF8049029460498FFF74CFA069B00F1300804F8B1
:40490000018BE31A4B45ECDB069B0596B9F1010FACBF4B4401331F46002601220499504600F022FA2946049000F06FFA002803DC15D118F0010F12D03C4614F8013C621EF8
:40494000392B09D1069B934204D10BF1010B3123069A02E01446F0E70133137007E03C4614F8013C621E302B01D11446F8E72946504600F072F8059B6BB12EB19E4203D0A3
:404980003146504600F069F80599504600F065F801E0DDF820B00499504600F05EF80023209A23700BF101031360229B1BB11C6001E008480AE0069808E0B9F1000F3FF7A1
:4049C000E2AE1E9B022B7FF7DEAEB1E615B0BDE8F08F00BF4A530000004870475081FF1F024B0146186800F0E7BA00BF4C81FF1F70B5456A04460E463DB91020FFF7F0FFA9
:404A00006062456085600560C560656AEB6843B1636ADB6853F8260078B1026843F8262017E021220421204600F0B8FA636AE860DB68002BECD1002070BD012101FA06F5E9
:404A40006A1D9200204600F0A9FA0028F3D04660856000230361C36070BD70B5446A06460D463CB91020FFF7BBFF7062446084600460C4603DB1736A6A68DB6853F8221051
:404A8000296043F8225070BD2DE9F04106460C460D691F4601F1140E0023DEF80000013381B202FB0171000C0F0C02FB007089B201EB00419D424FEA10474EF8041BECDC58
:404AC000D7B1A3689D4212DB616830460131FFF78FFF8046226904F10C01023292000C30FEF7B3FD21463046FFF7B7FF444604EB850301355F6125612046BDE8F081030CD7
:404B00001B0413B90004102300E0002310F07F4F04BF0002083310F0704F04BF0001043310F0404F04BF80000233002803DB420003D5581C704718467047202070470368FF
:404B400013F007020BD0D90722D49A074BBF5B089B08036003604CBF01200220704799B209B91B0C102213F0FF0F04BF1B0A0832190704BF1B090432990704BF9B080232EC
:404B8000D90702D45B0805D00132036010467047002070472020704710B50C460121FFF727FF01224461026110BD2DE9F74F14460A69236988469A42BEBF0B46A0461C46D4
:404BC000D8F81070D4F81090D8F80830D8F8041007EB09069E42C8BF0131FFF709FF00F114052B4605EB860C0022634502D243F8042BFAE704F1140208F1140102EB8903FD
:404C000001EB87070093009B0192934257D9B2F800B0BBF1000F23D08946AE464FF0000859F8044BBEF800A0A3B20BFB03A34FEA144ADEF8004043444FEA14480BFB0A84CE
:404C4000F24604EB13449BB243EA04434F454FEA14484AF8043B01D9D646E1E7CEF80480019B0432B3F802A0BAF1000F21D02C4689462B684FF00008B9F800E0B4F802B06F
:404C80009BB20AFB0EBEA346F04443EA08434BF8043B59F8043BB4F804E01B0C0AFB03E34F4503EB18434FEA134801D95C46E3E763600435A7E75CF8043D13B9013E002E7E
:404CC000F9DC066103B0BDE8F08F00002DE9F843154612F0030206460F4607D0214C013A002354F82220FFF7CFFE0746AD1036D0746A3CB91020FFF773FE70624460846086
:404D00000460C460D6F82480D8F808404CB940F271213046FFF740FF04460023C8F8080003604FF00008EB070AD5394622463046FFF73BFF814639463046FFF78EFE4F46DD
:404D40006D100CD0206808B10446ECE7224621463046FFF72AFF2060C0F80080F4E73846BDE8F883505400002DE9F0470C460746914626694FEA621A56444968A368751C55
:404D8000AB4202DA01315B00FAE73846FFF730FE002380461A4600F11401534503DA41F823200133F9E72AEAEA73206901EB830319F01F0904F1140101EB800E14D0C9F107
:404DC000200C002208689A4600FA09F0024343F8042B51F8042B8E4522FA0CF2F2D8CAF8042042B1B51C06E0043B51F8042B8E4543F8042FF9D8013D3846C8F810502146A8
:404E0000FFF72BFE4046BDE8F08703690A6910B59B1A11D192001430143183180A4453F8044D52F8041D8C4202D007D3012010BD9842F4D3002010BD184610BD4FF0FF30DC
:404E400010BD2DE9F8430C460746114620461546FFF7DBFF061E08D131463846FFF7C8FD012303614661BDE8F883BCBF23462C4638466168BABF1D4601260026FFF7B8FD20
:404E80002B69C660266905F1140904F1140101EB860709EB830800F114054FF0000C51F8042B59F8044B93B29C44A3B2240CC3EB0C03C4EB124202EB23429BB24FEA224C77
:404EC000C84543EA02428E4645F8042BE7D8BE450ED25EF8041B8AB26244131403EB114392B242EA03424FEA234C45F8042BEEE755F8043D0BB9013EFAE70661BDE8F883FB
:404F00002DE9F3411C4601219046089E099DFFF76FFDC4F31302C4F30A5407460CB142F480120192B8F1000F19D002A840F8088DFFF705FE009B48B1019AC0F1200102FACB
:404F400001F10B43C2407B61019200E07B61019B002B14BF02210121BB61396107E001A8FFF7EDFD019B01217B613961203034B1A4F2334404443460C0F1350009E0A0F20C
:404F8000324007EB810330601869FFF7B8FDC0EB41102860384602B0BDE8F08138B502FB01F4214600F008F8054618B122460021FEF756FB284638BD70B5CD1C25F00305DC
:404FC00008350C2D38BF0C25002D064601DBA94202D90C23336046E000F05CF8234B1C681A462146A1B10B685B1B0ED40B2B03D90B60CC18CD501EE08C420BBF63684B6864
:405000001360636018BF0C4615E00C464968E9E7174C23681BB9304600F02CF820602946304600F027F8431C18D0C41C24F00304A0420DD12560304600F02DF804F10B0077
:40504000231D20F00700C31A0ED05A42E25070BD211A304600F00EF80130EBD10C233360304600F018F8002070BD00BFCC81FF1FC881FF1F38B5064C0023054608462360FB
:40508000FCF700F9431C02D1236803B12B6038BD0882FF1F704770474FEA410C7FEA6C5C02D150EA013C0AD14FEA430C7FEA6C5C02D152EA033C02D14FF0000070474FF012
:4050C0000100704700000000234E657874696F6E3A2000000A0000007061676520486F6D6500000023496E7465727275707420285043293A2000000023496E7465727275EC
:405100007074202854696D6572293A200A000000234C617365725377697463680A000000234144432056616C75653A2000000000234D6F766520546F0A000000537465707A
:405140003A200000234D6F766520546F205769746820436F6E7374616E742053706565640A000000234D6F76652043570A000000234D6F7665204343570A0000234D6F7663
:40518000652039302043570A00000000234D6F7665203930204343570A000000526571756573740A000000002D000000430A0000460A0000214D6561737572656D656E748F
:4051C0002072756E6E696E673A200000642D0000662D0000706167652050435F436F6E74726F6C0023496E697420737461727465640A000023554152542073746172746596
:4052000064C2B40A0000000023537461727465642054696D65720A0023436F6E6E65637465642054696D657220496E746572727570740A00235374617274656420414443B5
:405240000A000000235374617274656420537465707065720A0000002353746172746564204E657874696F6E0A00000023436F6E6E6563746564204E657874696F6E2049F0
:405280006E746572727570740A0000002346696E697368656420496E69740A00004F00400C00405100403000F0510040100000000140800800090140000700140140800633
:4052C000001B0140000100400140000A004C0140000200500140200080080140E40700488000801A01406408004880000111213141615363730000000809010105070704A2
:405300000400000065787000000000000000E03F000000000000E0BF763C7935EF39EA3D763C7935EF39EABD0000E0FE422EE63F0000E0FE422EE6BF4300494E4600696E23
:4053400066004E414E006E616E003000303132333435363738396162636465666768696A6B6C6D6E6F707172737475767778797A00496E66696E697479004E614E00504F6B
:40538000534958002E000000000000000000F03F000000000000244000000000000059400000000000408F40000000000088C34000000000006AF8400000000080842E41F0
:4053C00000000000D01263410000000084D797410000000065CDCD41000000205FA00242000000E876483742000000A2941A6D42000040E59C30A2420000901EC4BCD64218
:4054000000003426F56B0C430080E03779C3414300A0D8855734764300C84E676DC1AB43003D9160E458E143408CB5781DAF154450EFE2D6E41A4B4492D54D06CFF08044C5
:40544000F64AE1C7022DB544B49DD9794378EA4405000000190000007D000000000000000080E03779C34143176E05B5B5B89346F5F93FE9034F384D321D30F94877825A19
:405480003CBF737FDD4F1575F8B500BFF8BC08BC9E4670474D00000071130000F8B500BFF8BC08BC9E46704729000000C0540000C880FF1FC000000088000000000000008F
:4054C0000000000048000000640000001082FF1F0090D00300FA0000400000000000007D010000000000000000000000000000000000000000000000000000000000000035
:4055000000000000385300000000000000000000000000000000000000000000000000000000000000000000000000000000000000000000000000000000000000000000E0
:4055400000000000EC80FF1F84530000855300008553000085530000855300008553000085530000855300008553000085530000FFFFFFFFFFFFFFFFFFFFFFFFFFFF000040
:4055800000000000000000000000000000000000000000000000000000000000000000000000000000000000000000000000000000000000000000000000000000000000EB
:4055C00000000000000000000000000000000000000000000000000000000000000000000000000000000000000000000000000000000000000000000000000000000000AB
:40560000000000000000000000000000000000000000000000000000000000000000000000000000000000000000000000000000000000000000000000000000000000006A
:40564000000000000000000000000000000000000000000000000000000000000000000000000000000000000000000000000000000000000000000000000000000000002A
:020000040003F7
:0200000480007A
:40000000024F0040045200400464004003650040010301400105014001070140270801404A090140550A01404B0B0140740C0140440D0140560E01403B0F0140011501405F
:400040005918014046190140141A0140411B0140094001400A4101400A42014004430140044401400A45014004460140024701400248014003490140064C0140044D01408C
:40008000095001400251014001100A4B09401006110260208A388B0F8C0F8F728838890F8B72E602E602EE040215038C042A060407080B1010331131120C13861531170EFC
:4000C000198C1B331E082433260428032A042D402F13300F3160330F3430358A3710382039023A023B283E103F405440580459045B045C225F01018106C00720090A0A04C9
:400100000C010E420F401510170419901A041D201E402101231025112641272428042A052B012E803020310A334034013724381439403A023D123E284008414A49054A024E
:400140005002521559045A825B106140661067118008910C9280941095D19601974099409A209D819E499F64A10AA210A428A510A645A902C039C29EC460CA1FCCEFCEEFF7
:40018000D00FD208D60FD878E60401510202030E0602076F09240D2C11311342172C19241B081D2C2108231026012A012D2C310F333134013602374038023B0C3E513F407B
:4001C00054185604580459045B045D305F018010820C841C85108602884089108B0C911C9302950C960397119B039C099E10A014A40CA509A611A710A810A914AC20B21FBA
:40020000B31FB420B640BE50C054C102C6CBC7E0C82CC9FFCAFFCBFFCEF0CF44D00CD401D804D904DA04DB04DC32DD22DF01E6C0EA40EB0201080280042207200E221208F2
:4002400013041402168A1704180519021E241F80210F22422420271029012B012F283028310233403719381039493C203D083E013F02451046404C014F4056A25A025C021F
:400280005D105E8460858380848091049202930495C3960199489B099D809E019F40A010A104A288A328A428A508A606AA40B110B301C07CC2A0C4F6CA69CCEFCE6FD0A073
:4002C000D210D6F1D80DE404EC0103130433060C07080A080C0A0E34116C13031531170E1C031E1424332604274C29312B462C402E153010320F33303460354A370F382071
:4003000039083A083BA03E013F044021410345EE47CB483349FF4AFF4BFF4EF04F44500C54015604580459045A045B045C335D335F0166C06A406B02800D8121830287EC68
:4003400088028A0D8B018C0D8D048F43921094E29588960897039C0DA082A254A312A40DA80DAC81ADE0AE32B070B30FB40FB510B680B7E0BA20BE40BF40C031C102C20568
:40038000C404C50CC70EC811C9FFCAFFCBFFCC62CDA0CEF0CF41D00CD804D904DA04DD03DF01E640E702E910EA30EB10ED10EE10EF12016003400514070109080A410F02B4
:4003C0001028110112021602170819601A401C601D141F2421142240272929802A012C042F243108370939AA3D083E0240054220430244044602470849084B804D065208F2
:4004000057095C405D125E0867407E807F40824087409005920293049A229F20A104A280A302B080C0EBC28DC4AFCA69CCC2CECFD07FD208D6F0D880E004004C012002A31F
:400440000403051009300A400C4F0D020E901042130B1401150118FF197F1CF31D701E0C1F0F20082178230724042503280C294F2B302EB3307C31033340340F3504368CE3
:40048000373839203AA23F045608580459045B045C335D905F018301940A965198019A269C149E49A49FA89FAC80B060B218B301B407B680BB20BE01C002C704C9FFCA0715
:4004C000CBFFCC40CD20CEF0CF05D008D602D711D804D904DA04DB04DC33DD33DF01E040E1A8E240E320000801820208040105010780080209180B020D080E080F02100819
:40050000138A1540171419921B801C091D081E081F222281231424042510262829122A202B203109322033803A553F0247205504560258805F106002624063026D406F144B
:4005400074087615770A8D108F01C00FC2EFC4EFCA07CC0FCE8FD020D628D808EE0606010A0112041301140224082A04300232043408360137013B083E554002470449FF5E
:400580004A074BFF4C404D204EF04F05500854185604580459045A045B045C205D225F01604061A86240632080C08140820285318660870E888089228B108C908D068E40D7
:4005C0008F90901F91049220947F95909680970699929B049CC09D969E01A196A2FFA4C0A540A604A8C0A929AA08AB16AD17AE9FAF28B180B2FFB330B540B70FB9A0BB0807
:40060000BE04BF01D602D724D804D904DB04DF01001401400340042006100801090A0A010EA0102A110113011504160419081D401E081F062014214022432301271128016B
:4006400029282A02302C3101334034023810394A452056485E026110630365406748682869406B407203910E941495C1960399119C049E4A9F40A002A12AA210A428A60636
:40068000A701AA04AB01B501B710C06FC23DC46FCA0FCC8FCE0FD020D680D8B4040106260C0A0E5110141249249F289F2C8030183207346036803E10560858045B045C028C
:4006C0005D905F01004001080541072408020C800E500F08102A14121711184119491A081B441E501F14242026512C902F143509368037103C013E684410460147104E0467
:400700004F80561458805E20600262806C2A7480762877248C108E01942098809B119C029E14A641AB02AF40B080B520B640C0F5C2F8C4F7CAE0CCF0CEF0D070D230D62824
:40074000D808E804EE0430103304352036043B2065206720CCF0CE10322069046B04862097209C109F04A604CC10E640110458088710950497209C10A604C410D640E6406C
:400780009C10A604A808EE2010107C40C408DE04060256205C1082209440B010C001D402D604EA04804094409A02A81082029A029C10A604AA04AC10EE600C101F806201E8
:4007C000C201C601D802AA01AB80B010EA04000D01010C0D0E090F01100511011C051D0100EA010F0B4124000004000000010000300100400907161815220A0804410300AD
:400800000041000000100000000000400040000000080021003F00400700380080022000000000051304500002CEF0BD3BFFFFFF2200F00804000000090000000404040406
:40084000000000010000C00040011011C001001140014001000000000000000000000000000000000100000B0C100000043000000070B30F4F0190004C03A300037F00001F
:400880000802000000204000F34F0C30FF780007420000008C037C380F40000400802A0000000010350201000600C00E18FFFFFF62A0F0410C0000000000021104040404BD
:4008C00022220001000000000000400200103010001010120000000000000000000000000000000000000000000014002000102323002000000000005400807F7F00400033
:400900000000000008F7F700060000006C0000FFFF000000000000000500180100000000000000000000000000000000000000000000000000000000000000000000000033
:400940000000000000000000000000000000000000000000000000000000000000000000000000000000000000000000000000000000000000000000000000000000000077
:400980000000000000000000000000000000000000000000000000000000000000000000000000000000000000000000000000000000000000000000000000000000000037
:4009C00000000000000000000000000000000000000000000000000000000000000000000000000000000000000000000000000000000000000000000000000000000000F7
:400A000000000000000000000000000000000000000000000000000000000000000000000000000000000000000000000000000000000000000000000000000000000000B6
:0200000490006A
:0400000000004005B7
:0200000490105A
:04000000BC90ACAF55
:0200000490303A
:0200000030F9D5
:0200000490402A
:4000000000000000000000000000000000000000000000000000000000000000000000000000000000000000000000000000000000000000000000000000000000000000C0
:400040000000000000000000000000000000000000000000000000000000000000000000000000000000000000000000000000000000000000000000000000000000000080
:400080000000000000000000000000000000000000000000000000000000000000000000000000000000000000000000000000000000000000000000000000000000000040
:4000C0000000000000000000000000000000000000000000000000000000000000000000000000000000000000000000000000000000000000000000000000000000000000
:0200000490501A
:0C00000000012E16106900012E3A41622A
:00000001FF