:400000000080002011000000052400000524000080B500AF024A034B1B68136002F026FABC760040FA46004010B5054C237833B9044B13B10448AFF300800123237010BDA3
:400040009881FF1F0000000044980000084B10B51BB108490848AFF300800848036803B910BD074B002BFBD0BDE81040184700BF000000009C81FF1F44980000C880FF1FAA
:400080000000000080B500AF0A2002F08FFAFF2002F0E4FDFF2002F0E1FDFF2002F0DEFD00BF80BD80B582B000AF7860786802F031FEFFF7E7FF00BF0837BD4680BD00BF26
:4000C00080B588B000AF78603960786802F022FE0A4802F01FFE07F10C030A221946386807F031FB07F10C03184602F013FEFFF7C9FF00BF2037BD4680BD00BF4C980000AC
:4001000080B582B000AF78603960786802F002FE074802F0FFFD386802F0FCFD054802F0F9FDFFF7AFFF00BF0837BD4680BD00BF549800005C98000080B483B000AF074B80
:400140001B781A46054B5B781B0213447B607B6818460C37BD4680BC704700BF6492FF1F80B588B000AF7860396007F10C030A221946386807F0E7FA786802F0CBFD07484D
:4001800002F0C8FD07F10C03184602F0C3FDFFF779FF00BF2037BD4680BD00BF6098000080B500AF02F06CFC4FF4FA6002F0FEF90248FFF777FF00BF80BD00BF68980000C1
:4001C00080B483B000AF7860034A7B68136000BF0C37BD4680BC7047BC81FF1F80B500AF0F48FFF75FFF642002F0E0F90D4B1B6819460D48FFF764FF642002F0D7F9094BBB
:4002000000221A6002E0052002F0D0F9074B1B78482BF8D1054B30221A7000BF80BD00BF74980000BC81FF1F80980000CC80FF1F90B597B004AFF860B960C7E900230023C9
:400240003B642F49F86803F0A9FB78640A2002F0ADF912E03B6C01333B642949F86803F09DFB78640A2002F0A1F93B6C642B04DD4FF42F70FFF7A4FF3FE07B6C002BE9D0FB
:400280004FF000021F4BD7E9000106F0DDFE03460C4607F11400BA6D0292CDE90034BA68194907F0D7FE07F11403184607F0F6FE024607F114031946786C03F081FC0346BA
:4002C000002B03D140F2BD20FFF77AFF0123FB6300233B640EE03B6C01333B64786C03F097FAF8633B6C642B04DD40F2BE20FFF767FF02E0FB6B002BEDD14C37BD4690BD8B
:400300008C98000000408F409098000090B593B000AF3E4A4FF000034FF00004C2E9003464233B646BE00023FB6361E007F128033A6C3749184607F08DFE07F12803354942
:40034000184603F02BFB78643B6C184602F02EF90023BB6315E0BB6B0133BB6307F128032C49184603F01AFB78643B6C184602F01DF9BB6B642B04DD40F2C620FFF720FFB4
:4003800040E07B6C002BE6D0204B18CB38461A462346214907F05EFE3B46184607F07EFE02463B461946786C03F00AFC0346002B04D140F2C720FFF703FF23E001237B634D
:4003C0000023BB630EE0BB6B0133BB63786C03F01FFA7863BB6B642B04DD4FF43270FFF7EFFE0FE07B6B002BEDD1FB6B0133FB63FB6BB3F57A7F99DB3B6C0A3B3B643B6CCA
:40040000002B90DC4C37BD4690BD00BFF881FF1F9C9800008C980000A8980000B0B598B006AF7860084611461A460346FB700B46BB7013467B7007F130037A6833491846CA
:4004400007F008FE07F130033149184603F0A6FA78640A2002F0AAF800233B6414E03B6C01333B6407F130032949184603F096FA78640A2002F09AF83B6C642B04DD4FF4BD
:400480003470FFF79DFE3DE07B6C002BE7D0F978BD787A7807F108003B6E0493D7E91634CDE9023400922B460A461A4907F0D2FD07F10803184607F0F1FD024607F1080346
:4004C0001946786C03F07CFB0346002B03D140F2D120FFF775FE0123FB6300233B640EE03B6C01333B64786C03F092F9F8633B6C642B04DD40F2D220FFF762FE02E0FB6B39
:40050000002BEDD14837BD46B0BD00BFB09800008C980000BC98000080B500AF03F01CF900BF80BD80B500AF002002F013FA02F031FA0346DA0F13445B101BB2184680BD00
:4005400080B500AF02F046FF02F05AFE02F018F902F0F0F900BF80BD80B582B000AF00237B601FE000233B6016E0124A7B689B001A443B68134400221A700F4A7B689B00C0
:400580001A443B6813441B784FF478411846FFF7E7FD3B6801333B603B68032BE5DD7B6801337B607B68022BDCDD00BF0837BD4680BD00BF5892FF1FD098000080B586B084
:4005C00000AF0346FB710023FB6000237B614CE000233B6143E0294A7B699B001A443B6913441B78FA799A4236D1254A7B699B001A443B6913441B78002B0CBF01230023C1
:40060000DBB219461E4A7B699B001A443B6913440A461A701A4A7B699B001A443B6913441B78002B0CD0154A7B699B001A443B6913441B7848F2E0711846FFF791FD0BE0BC
:400640000E4A7B699B001A443B6913441B784FF478411846FFF784FD3B6901333B613B69032BB8DD7B6901337B617B69022BAFDDFB6818461837BD4680BD00BFD098000003
:400680005892FF1F80B500AFFFF766FF0F4B30221A700F48FFF706FD0C4B1B78482B06D0592B02D0302B0AD003E000230CE001230AE0064B1B781846FFF780FF00E000BF59
:4006C000024B30221A70E7E7184680BDCC80FF1FDC98000080B582B000AF02F09DFA0346FB71FB79FF2B2CD0184B1B78012B14D1174B1B681749FA79CA54154B1B680133A8
:40070000134A1360124B1B68042B1AD10F4B02221A700F4B00221A6013E0FB79262B06D10A4B01221A700A4B00221A6009E0FB79482B03D1084B48221A7002E0074AFB79DD
:40074000137000BF0837BD4680BD00BFB881FF1F1882FF1F6492FF1FCE80FF1FCC80FF1F98B500AF2A4B1B680133294A1360284B1B68632B05DD274B01221A70244B0022DC
:400780001A60254B1B680133234A1360234BD3E900014FF00002224B06F07AF903460C461E4AC2E900341F4B1B6801331D4A13601D4B1B68DA0F13445B101A46194B1B68BC
:4007C0009A4202DC194B01221A60194B1B680133174A1360164B1A68134B1B689A4205DB134B00221A60134B01221A60124B1B680133114A1360104B1B68B3F5FA7F05DB19
:400800000D4B00221A600D4B01221A6000BF98BDE481FF1FE881FF1FEC81FF1FF881FF1F0000F03F0082FF1FC481FF1F0482FF1F0882FF1F0C82FF1F1082FF1F1482FF1F01
:4008400080B582B000AF0346FB71FB79184601F02FFF00BF0837BD4680BD00BF80B500AF0120FFF7EDFFFFF777FE02F07DFEFFF767FE02F0F1FB084802F032FCFFF790FCD5
:40088000064802F027FBFFF747FE62B60020FFF7D7FF00BF80BD00BF61070000D506000080B582B000AF78607B68DBB2184602F003FE7B68DAB2034B1A7000BF0837BD46A2
:4008C00080BD00BFDD81FF1F80B500AF02F010FE0346002B0CBF01230023DBB2184602F0EBFD02F005FE03461A46024B1A7000BF80BD00BFDD81FF1F80B582B000AF7860B7
:400900007B68DBB2184602F001FE7B68DAB2034B1A7000BF0837BD4680BD00BFDE81FF1F80B500AF02F010FE0346002B0CBF01230023DBB2184602F0E9FD02F005FE0346CC
:400940001A46024B1A7000BF80BD00BFDE81FF1F80B582B000AF78607B68DBB2184602F07FFE7B68DAB2034B1A7000BF0837BD4680BD00BFDF81FF1F80B500AF02F08EFEB9
:400980000346002B0CBF01230023DBB2184602F067FE02F083FE03461A46024B1A7000BF80BD00BFDF81FF1F80B500AF0020FFF777FF0020FFF7A0FF0020FFF7C9FF00BF81
:4009C00080BD00BF80B500AFFFF7EEFF0A2001F0EDFD0248FFF766FB00BF80BD6898000080B584B000AF0346FB71B24B30221A70B148FFF757FB0023FB603123FB72012348
:400A0000BB72FB794C2B04D0542B0ED0432B17D023E0AA4B4FF496721A60A94B32221A60A84B4FF496721A601CE0A44B32221A60A34B4FF4FA721A60A24B3C221A6011E05B
:400A40009E4B4FF496721A609D4B4FF4FA721A609C4B4FF496721A6004E00120FFF7B0FB0123D6E1984B41F288321A60974B41F288321A60964B41F288321A60954B372276
:400A80001A60BB7A002B7ED00023BB72FB7A312B37D18A4B1B6819468F48FFF711FB874B1B688E4A82FB03129210DB17D31A19468B48FFF705FB824B1B6819468948FFF777
:400AC000FFFA7F4B1B68854A82FB03129210DB17D31A19468448FFF7F3FA7A4B1B6819468248FFF7EDFA774B1B68814A82FB03121A44D210DB17D31A19467E48FFF7E0FABC
:400B000041E0714B1B6819467B48FFF7D9FA6E4B1B687A4A82FB03125211DB17D31A19467748FFF7CDFA694B1B6819467548FFF7C7FA664B1B68714A82FB03121211DB171B
:400B4000D31A19467048FFF7BBFA614B1B6819466E48FFF7B5FA5E4B1B68684A82FB03125211DB17D31A19466948FFF7A9FA594B1B6819466748FFF7A3FA564B1B68194637
:400B80006548FFF79DFA4B4B1B78302B02D0FFF7D3FAF860474B1B78303B292B00F22C8101A252F823F000BF030E0000F90D0000F90D0000F90D0000F90D0000F90D000019
:400BC000F90D0000F90D0000F90D0000F90D0000F90D0000F90D0000F90D0000F90D0000F90D0000F90D0000F90D0000F90D0000F90D00008B0D0000F90D0000F90D000003
:400C0000410D0000F90D0000F50D0000F90D0000F90D0000F90D0000F90D00001D0D0000510C0000F90D0000790C0000F90D0000670D0000F90D0000B10D0000F90D0000F0
:400C4000F90D0000F90D0000CF0D0000F10D0000FB68002B01D10123FB60FA6813469B0013445B001A46154B1A60144B1B6819461948FFF725FAC5E0FB794C2B05D0FB68EE
:400C8000322B07DC3223FB6004E0FB68002B01D10123FB60FA6813469B0013445B001A46074B1A60064B1B6819460E48FFF708FAA8E000BFCC80FF1FF0980000C081FF1F34
:400CC000C481FF1FC881FF1FCC81FF1FD081FF1FD481FF1FD881FF1F00990000676666660C990000189900002499000030990000898888883C99000048990000D34D6210EF
:400D00005499000060990000709900008099000090990000A0990000AC990000FB68002B01D10123FB60FA6813461B019B1A3B4A13603A4B1B6819463948FFF7C1F961E0C8
:400D4000FB68002B01D10123FB60FB684FF4FA7202FB03F3334A1360324B1B6819463248FFF7AEF94EE0FB68002B01D10123FB60FB68FA2202FB03F32C4A13602B4B1B68C8
:400D800019462B48FFF79CF93CE0FB68002B01D10123FB60FB684FF4FA7202FB03F3254A1360244B1B6819462348FFF789F929E0FB68002B01D10123FB60204AFB68136098
:400DC0001E4B1B6819461E48FFF77AF91AE0FB7A312B05D13223FB721A48FFF763F904E03123FB721848FFF75DF90123BB7209E000230EE001230CE00120FFF7E1F9022300
:400E000007E000BF114B30221A70052001F0CEFB37E618461037BD4680BD00BFC881FF1F30990000CC81FF1F48990000D081FF1F60990000D481FF1F80990000D881FF1F4D
:400E4000A0990000B8990000F0980000CC80FF1F90B58BB000AFF860B9607A60F86805F075FF43A3D3E9002306F0EEF803460C46184621464FF000023F4B05F0BBFF0346EF
:400E80000C461846214606F097FA0346FB60B86805F05CFF36A3D3E9002306F0D5F803460C46184621464FF00002334B05F0A2FF03460C461846214606F07EFA0346BB601E
:400EC000786805F043FF2AA3D3E9002306F0BCF803460C46184621464FF00002264B05F089FF03460C461846214606F065FA03467B60224801F00EFFF86806F0BBFB07F1B1
:400F000014030A22194606F01EFC07F11403184601F000FFFFF7B6F8194801F0FBFEB86806F0A8FB07F114030A22194606F00BFC07F11403184601F0EDFEFFF7A3F8114830
:400F400001F0E8FE786806F095FB07F114030A22194606F0F8FB07F11403184601F0DAFEFFF790F800BF2C37BD4690BDAFF300800000000000FEAF4000006940CC9900006E
:400F8000D8990000E49900002DE9B04390B000AFC7E90201C7E90023D7E9020102460B4605F076FD03460C46C7E90234A04B1B68184605F0B9FE03460C46C7E90C349D4B95
:400FC0001B68184605F0B0FE03460C46C7E90A34994B1B68184605F0A7FE03460C46C7E90834012002F098F94FF00002934BD7E9000106F067F90346002B03D0002001F0CC
:40100000A3FB02E0012001F09FFB0023FB63FAE0F86B05F089FE04460D464FF000024FF08043D7E9020106F00FF802460B462046294606F051F90346002B69D0D7E9082364
:40104000D7E9020106F000F803460C461A4623464FF000007A4905F0F7FF03460C4625461C46F86B05F060FE80468946D7E90A23D7E9020105F0E8FF02460B464046494681
:4010800005F004FD02460B462046294605F0B2FE03460C461846214604F0CEFA4FF00002664B05F0F5FC03460C461A4623464FF00000624905F0C8FF03460C46C7E90634A4
:4010C00001F032FB0346002B0CBF01230023DBB2184601F00BFBD7E90623D7E90C0105F089FE03460C461A4623464FA1D1E9000105F0AAFF03460C46C7E90434D7E9040143
:4011000006F03AF903469BB2184601F071FA77E0D7E90823D7E9020105F096FF03460C461A4623464FF00000454905F08DFF03460C4625461C46F86B05F0F6FDD7E902235D
:4011400005F0A4FC02460B4690469946D7E90A23D7E9020105F078FF02460B464046494605F096FC02460B462046294605F042FE03460C461846214604F05EFA4FF00002AB
:401180002E4B05F085FC03460C461A4623464FF000002A4905F058FF03460C461A4623464FF00000254905F071FC03460C46C7E9063401F0B9FA0346002B0CBF01230023BC
:4011C000DBB2184601F092FAD7E90623D7E90C0105F010FE03460C461A46234612A1D1E9000105F031FF03460C46C7E90434D7E9040106F0C1F803469BB2184601F0F8F90A
:40120000FB6B0133FB63F86B05F08EFDD7E9022306F062F80346002B7FF4FAAE00BF4037BD46BDE8B08300BF0000000080842E41D080FF1FD480FF1FD880FF1F0000F03F47
:401240000000F0BF0000000090B589B000AFC7E90201C7E90023D7E9020102460B4605F017FC03460C46C7E90234012002F054F84FF00002204BD7E9000106F023F8034601
:40128000002B03D0002001F05FFA02E0012001F05BFA0023FB611BE001F046FA0346002B0CBF01230023DBB2184601F01FFA10A4D4E90034C7E90434D7E9040106F05CF8BB
:4012C00003469BB2184601F093F9FB690133FB61F86905F029FDD7E9022305F0FDFF0346002BD9D100BF2437BD4690BDAFF300800000000000DBDA400000F03F80B500AF85
:401300004FF00002034B4FF000000249FFF79CFF00BF80BD0000F03F80B500AF4FF00002034B4FF000000349FFF78EFF00BF80BD0000F0BF0000F03F80B582B000AF28231C
:401340007B60786805F0F0FC4FF00002034BFFF77BFF00BF0837BD4680BD00BF0000F03F80B582B000AF28237B60786805F0DCFC4FF00002034BFFF767FF00BF0837BD46D1
:4013800080BD00BF0000F0BF80B500AF4FF00002034B4FF000000349FFF7F6FD00BF80BD0000F03F0000794080B500AF4FF00002034B4FF000000349FFF7E6FD00BF80BDE4
:4013C0000000F0BF0000794080B582B000AF0346FB71FB79322B16D0332B26D0312B00D035E0FFF771FA1C4B1B78002B05D048F2E0711A48FEF7B4FE29E04FF4784117481B
:40140000FEF7AEFE23E0FFF78BFA154B1B78002B05D048F2E0711348FEF7A2FE17E04FF478411048FEF79CFE11E0FFF7A5FA0E4B1B78002B05D048F2E0710C48FEF790FE71
:4014400004E04FF478410948FEF78AFE00BF00BF0837BD4680BD00BFDD81FF1FF0990000DE81FF1FFC990000DF81FF1F089A000080B582B000AF0346FB71FB79213B1E2BE7
:401480005CD801A252F823F01D1500003D150000291500003D1500003D1500003D1500003D1500003D1500003D1500003D15000005150000171500000B150000111500006C
:4014C0003D1500003D1500003D1500003D1500003D1500003D1500003D1500003D1500003D1500003D1500003D1500003D1500003D1500003D1500003D1500003D150000CC
:4015000023150000FFF7FAFE19E0FFF705FF16E0FFF712FF13E0FFF723FF10E0FFF734FF0DE0FFF741FF0AE0FFF72EFF064B1B68184601F03BF8FFF737FF00E000BF00BF61
:401540000837BD4680BD00BFCC81FF1F90B583B000AF2948FEF7A6FD284B30221A70FFF723FA4FF478412648FEF7FAFD4FF478412448FEF7F5FD4FF478412348FEF7F0FD42
:40158000224B1B78DBB2002B19D0204B00221A70FEF7C8FF03467B6079681D48FEF790FD1C4B1B68184606F011F80446786806F00DF803461A4618492046FFF749FC0F4B5A
:4015C0001B781846FFF700FF0C4B1B781846FFF74FFF0A4B1B78482B04D0592B00D003E0002305E0012303E0044B30221A70C7E718460C37BD4690BD149A0000CC80FF1F22
:40160000F0990000FC990000089A0000E881FF1F209A0000D881FF1F00F07F4580B58AB000AFF860B9607A603B6007F114030A221946F86806F087F8254801F06BFB07F14F
:401640001403184601F066FB224801F063FB07F114030A221946B86806F075F807F11403184601F057FB1B4801F054FB07F114030A221946386806F066F807F1140318467F
:4016800001F048FB134801F045FB07F114030A221946786806F057F807F11403184601F039FB0C4801F036FB07F114030A2219464FF4784006F047F807F11403184601F07B
:4016C00029FBFEF7DFFC00BF2837BD4680BD00BF289A0000309A000080B584B000AF786039607B684FF4967202FB03F2104B1B6892FBF3F36E33FB603B68C82202FB03F3D7
:401700000C4A82FB03129213DB17D21A0A4B1B6892FBF3F3C3F586730133BB6003230322B968F868FFF77AFF00BF1037BD4680BDC081FF1F73B2E745C881FF1F80B582B0F4
:4017400000AF7860FFF730F90948FEF7ABFC79680848FEF7D5FC02E0012000F027FF064B1B78482BF8D100BF0837BD4680BD00BF349A0000449A0000CC80FF1F90B597B007
:4017800004AF0346FB71A648FEF78CFC002387F84730012387F8463000233B640023FB63A04B1B681946A048FEF78AFC002387F837304FF000034FF00004C7E90A344FF0F6
:4017C00000034FF00004C7E90834984B1B684EF6602202FB03F3184605F0A6FA03460C46C7E90634914B1B6819469148FEF768FC904B1B78302B40F06A818A4B1B683A6C4E
:401800009A4280F25D8197F84730002B00F0EF80894B1B68002B00F0A580874B00221A60864BD3E90001D7E9062305F073FD0346002B06D0002387F84730002387F8463090
:401840005CE0012387F84630FEF76CFE0346BB637A4B18CBC7E90834794B1B68BA6B9A4203DA012387F8373002E0002387F83730744B1B68184605F057FA704B18CB1A46BB
:40188000234605F047FD0346002B02D0002387F8373097F83730002B2AD0684BD3E90001D7E90A2305F0F2F803460C46C7E904344FF000024FF00003D7E90A0105F002FD1B
:4018C0000346002B04D05D4B18CBC7E90A3415E05D4B1B68184605F027FAD7E9042305F0FBFC0346002B09D0002387F8473005E04FF000034FF00004C7E90A34534B1B78D1
:40190000002B0FD0524B1978524B1A78524B1878BB6B0293D7E90834CDE900340346386CFEF77CFD97F84730002B1BD1FB79542B0AD0424B18CB97F8462000921A4623466D
:40194000396C4648FEF774FC3C4B18CB1846214605F0EAFC03461946386CFFF7BDFE3B6C01333B643E4B1B68002B11D03C4B00221A60324B18CB1846214605F0D5FC0346DF
:4019800019463848FEF79CFBB96B3748FEF798FB364B1B68002B00F09A80344B00221A60334B00221A60244B00221A60314AFB6B13441B781846FEF773FF2E4AFB6B134453
:4019C00004331B781846FEF797FF2A4AFB6B134408331B781846FEF7BBFFFB6B0133FB630422FB6B934272DB0023FB636FE0FEF7DBFF396C2048FEF763FB3B6C642202FB59
:401A000003F2084B1B6892FBF3F3FB60F9681B48FEF756FBFFF7B8FC194B00221A6034E0509A0000C081FF1F649A0000C881FF1F749A0000CC80FF1F0482FF1FF881FF1FE4
:401A4000D881FF1FD081FF1FD481FF1FDC81FF1FDD81FF1FDE81FF1FDF81FF1F849A00001482FF1F909A0000989A00000C82FF1F0082FF1F5892FF1FA49A0000B09A000011
:401A8000EC81FF1F0A2000F091FD184B1A68184B1B689A42F6DBFFF787FC012387F84730144A4FF000034FF00004C2E90034124B00221A60114B00221A600023FB6306E0CE
:401AC0000F4B30221A700F48FFF738FE0AE00C4B1B78532B7FF48CAE094B30221A700A48FFF72CFE00BF4C37BD4690BDEC81FF1FCC81FF1FF881FF1F0882FF1F0082FF1F25
:401B0000CC80FF1FBC9A0000D49A000090B587B004AF854B5A221A708448FEF7C3FA642000F044FD0020FEF7BBFE0020FEF7E4FE0020FEF70DFF7E48FEF7B4FA7D48FEF736
:401B4000B1FA7D48FEF7AEFA7C48FEF7ABFA7C48FEF7A8FA7B48FEF7A5FADCE07A4B1B78303B232B00F2D48001A252F823F000BF011C0000AB1C0000C71C0000E31C0000B0
:401B8000111D0000111D0000111D0000111D0000111D0000111D0000111D0000111D0000111D0000111D0000111D0000111D0000111D0000111D0000111D00002F1C000028
:401BC000111D0000111D0000111D0000111D0000111D0000111D0000111D0000111D0000111D0000091C0000111D0000111D0000111D0000111D0000111D0000FF1C000021
:401C0000012000F0D3FC83E05048FEF74BFAFFF7CBFB4FF47A7000F0C9FCFFF7B5FB4FF47A7000F0C3FC4A48FEF73CFA70E04948FEF738FA00237B6018E07A6813469B00DE
:401C400013449A001344184605F06EF80A4601460023009313460A4679683F48FEF7E8FA642000F0A3FC7B6801337B607B68092BE3DD00233B6011E0384B18CB7B2202920C
:401C8000CDE900340023002200213868FEF7C6FB642000F08BFC3B6801333B603B68092BEADD2F48FEF7FEF932E0FEF70DFE2D4B1B78002B03D02C48FEF7F4F928E02B4824
:401CC000FEF7F0F924E0FEF72BFE294B1B78002B03D02848FEF7E6F91AE02748FEF7E2F916E0FEF749FE1F4B1B78002B03D02348FEF7D8F90CE02248FEF7D4F908E021489B
:401D0000FEF7D0F9FEF702FB1F48FEF7CBF900BF0D4B30221A70044B1B785A2B3FF41EAF00BF0C37BD4690BDCE80FF1FE89A0000F49A0000089B0000149B0000209B00009E
:401D40002C9B0000389B0000CC80FF1F489B00005C9B0000709B00007C9B0000F881FF1F889B0000DF81FF1F949B0000A09B0000DE81FF1FAC9B0000B89B0000C49B00004B
:401D8000D09B0000DC9B0000EC9B000080B582B000AF0346FB71FB791846FEF721FE0346002B01D001231BE0052000F0FFFBFFF7CDFB0346002B01D0012311E0052000F069
:401DC000F5FBFEF75FFC0346002B01D0012307E0052000F0EBFBFB791846FFF7CFFC002318460837BD4680BD80B582B000AF0346FB71FB791846FFF7C9FF0346002B0CD01A
:401E0000094B1B68002B02D0FEF7E8F901E0FEF7D9FD064B30221A7001E0FEF7D3FD00BF0837BD4680BD00BFBC81FF1FCC80FF1F80B500AFFEF712FD404B1B78482B07D166
:401E4000FEF7C0FD3E4B30221A703C4B30221A703B4B1B78303B2A2B6BD801A252F823F00D1F0000331F0000331F0000331F0000331F0000331F0000331F0000331F000062
:401E8000331F0000331F0000331F0000331F0000331F0000331F0000331F0000331F0000331F0000331F0000331F0000251F0000331F0000331F0000331F0000331F000010
:401EC000331F0000331F0000331F0000331F0000151F0000331F0000331F0000331F0000331F0000331F0000331F0000331F00001D1F0000331F0000331F0000331F0000F6
:401F0000331F0000331F00002D1F0000012000F04DFB12E04C20FFF767FF0EE05420FFF763FF0AE04320FFF75FFF06E0FFF7EEFD03E00120FEF744F900BF7DE7CE80FF1FB7
:401F4000CC80FF1F80B582B000AF786039603A680021786805F004FC00BF0837BD4680BD80B584B000AFF860B9607A607A68B968F86805F0EAFB00BF1037BD4680BD00BFF5
:401F800080B483B000AF0346FB71FEE780B487B000AF7860396000233B6100237B6127E07B699B007A6813441B68BB60BB68FB73BB6823F0FF03BB6014E03B695B003A6852
:401FC00013441B781A46BB68134419463B695B003A6813445B780B703B6901333B61FB7B013BFB73FB7B002BE7D17B6901337B617B69212BD4D900BF1C37BD4680BC7047B2
:4020000080B582B000AF464B00221A80454B58221A70454B00221A80444B19221A70444B44221A80434B18221A70434B4FF450721A80424B18221A70042241494148FFF77B
:402040008FFF414B06221A70404B52221A70404B404A1278D2B21A703F4B40F618021A803E4B41F251221A800023FB7019237B6014E0FB785B00DAB2394B1B78DBB203F097
:402080000103DBB21343DBB203F00303FB704FF4F07001F015FB7B68013B7B607B68002B02D0FB78032BE4D17B68002B02D10320FFF766FF2B4B4FF480721A80294B072233
:4020C0001A70294B00221A70284B48221A70254B00221A70264B00221A70264B02221A70254B04221A70254A244B1B78DBB243F00F03DBB21370224A214B1B78DBB243F0D9
:402100000103DBB213701F4A1E4B1B78DBB263F07F03DBB2137000BF0837BD4680BD00BF80400040824000408440004086400040884000408A4000408C4000408E4000407F
:4021400018090048004100400043004000420040A14600400F01004922420040204200402542004004400040064000400840004009400040014000400B400040A2430040B7
:40218000A1430040A043004080B582B000AF274B1B78FB71264B1B78BB71264B1B787B71254AFB7903F00703DBB21370234AFB791B09DBB213701E4ABB7943F00303DBB2CA
:4021C00013701C4A7B7943F00303DBB213701C4B10221A701B4B80221A701B4B10221A701A4B40221A701A4B04221A70194B20221A70194B40221A70184B04221A70184B86
:4022000020221A70174B20221A700A2000F0F0F9084A7B791370064ABB791370124B44221A7000BF0837BD4680BD00BFCF010049F8460040F94600406E5800406F58004064
:402240000D51004009590040005A0040045A0040175A0040185A0040005B0040035B0040285B00402B5B00407658004080B586B000AF72B64E4B61221A70FFF7C1FE4C4B7F
:4022800001221A704B4A4B4B1B78DBB243F00403DBB213700023FB7513E0FA7D13465B0013445B00444A13443B613B691A683B699B889BB219461046FFF744FEFB7D013325
:4022C000FB75FB7D092BE8D90023FB751CE0FA7D13469B0013445B00384A1344FB60FB681B68BB60FB685B687B60FB681A7A5B7A1B0213437B807B881A467968B868FFF78B
:402300002FFEFB7D0133FB75FB7D012BDFD92C494FF09040FFF73AFE2A4A2A4B1B78DBB243F00203DBB21370274A274B1B78DBB243F00203DBB21370244A244B1B78DBB2AD
:4023400043F04003DBB21370214A214B1B78DBB243F01003DBB2137008221E491E48FFF7FFFD0A221D491E48FFF7FAFD0A221D491D48FFF7F5FD08221C491D48FFF7F0FD06
:402380000A221C491C48FFF7EBFD1C4A1B4B1B78DBB243F00803DBB21370FFF7F5FE0E220A491748FFF7DCFD00BF1837BD4680BD00480040E8460040FC9B0000389C0000C7
:4023C000880000480350014013500140A0430040C2430040E408004802510040EC080048C0510040F80800481051004004090048225100400C090048305100402243004065
:40240000B043004080B500AF05F05AF903461B680C2B00D1FEE7FEE780B584B000AF7860104B1A687B6813441A460F4BD31AB3F5007F09DC0B4B1B68FB600A4B1A687B68F7
:402440001344084A136007E005F03AF902460C2313604FF0FF33FB60FB6818461037BD4680BD00BFDC80FF1F2893FF1F80B586B000AF224B7B61224B3B61204B7B6135E059
:402480003B691B68FB603B695B68BB603B699B683B6000237B600CE0FB681A68BB681A60BB680433BB60FB680433FB607B6804337B607A683B689A42EED13B69DB683B6069
:4024C00000237B6008E0BB6800221A60BB680433BB607B6804337B607A683B689A42F2D13B6910333B617B69013B7B617B69002BC6D105F0EBF8FFF79BFCFEE70100000039
:40250000709F000080B582B000AF184B184A1A60184A184B1B6843F40073136000237B600FE07B68032B04D8134A7B6852F8233000E0124B12497A6841F822307B680133FF
:402540007B607B682F2BECD90E4B1B78DAB20E4B1A700E4B0A4A1A60FFF788FE0C4B00221A6000BF0837BD4680BD00BF0CED00E00004FA0514ED00E00000000005240000AA
:402580000080FF1FBC760040C480FF1F08ED00E0C080FF1F80B483B000AF0346FB7101BE00BF0C37BD4680BC704700BF80B582B000AF786008E00C4B1B68184601F080F8BE
:4025C0007B68A3F500437B607B68B3F5004FF2D8064B1B687A6802FB03F3184601F070F800BF0837BD4680BDEC80FF1FE480FF1F80B582B000AF0346FB80FB88054A1278BE
:4026000002FB03F3184601F05BF800BF0837BD4680BD00BFE880FF1F80B584B000AF03463960FB710F4B1B68FB60FB791F2B02D90020FFF7AFFFFB7903F01F0310339B0020
:40264000FA6813441B68BB60FB7903F01F0310339B00FA6813443A681A60BB6818461037BD4680BD08ED00E080B582B000AF03460A46FB711346BB71BB79072B02D90020E9
:40268000FFF788FFFB791F2B02D90020FFF782FFFB7903F01F0303F1604303F56443BA795201D2B21A7000BF0837BD4680BD00BF80B485B000AF0346FB710B4B1B78DBB2DA
:4026C00023F01003FB730849FB791B01DBB203F01003DAB2FB7B1343DBB20B7000BF1437BD4680BC704700BF2051004080B485B000AF0346FB710B4B1B78DBB223F00203A7
:40270000FB730849FB795B00DBB203F00203DAB2FB7B1343DBB20B7000BF1437BD4680BC704700BF3051004080B400AF054B1B78DBB203F002035B08DBB21846BD4680BCCE
:40274000704700BF3151004080B485B000AF0346FB710A4B1B78DBB223F00103FB730749FB7903F00103DAB2FB7B1343DBB20B7000BF1437BD4680BC704700BF30510040BF
:4027800080B500AF064B1B78002B04D100F00AF8034B01221A7000F029F800BF80BD00BF1C82FF1F80B500AF102000F04FF906210320FFF759FF0A490320FFF72DFF094A0D
:4027C000084B1B78DBB243F00603DBB213700C2000F086F8044B00221A8000BF80BD00BF412A0000095900406C92FF1F80B582B000AF00F06DFF0346FB712E4A2D4B1B78E7
:40280000DBB243F00203DBB213702B4A2A4B1B78DBB243F00203DBB21370284A274B1B78DBB243F00103DBB21370254A244B1B78DBB243F00103DBB21370224B1B78BB71B5
:40284000BB7943F00203BB71BB7943F00103BB711C4ABB7913701C4B04221A701B4A1B4B1B78DBB223F04003DBB21370174A174B1B78DBB243F00303DBB21370144B0822EF
:402880001A70144B02221A70134A134B1B78DBB243F00803DBB213700A20FFF7A9FE0F4B08221A60FB79184600F016FF00BF0837BD4680BDAB430040BB430040A1430040EE
:4028C000B14300400B5900400E5900400D59004008590040164600402F5B004080E200E080B584B000AF0346FB71FB790A2B07D00C2B02D0082B06D008E0C423FB730BE0E3
:402900008423FB7308E04423FB7305E0C423FB730020FFF73FFE00BF054AFB7B1370FB79184600F04FF800BF1037BD4680BD00BF0A59004080B400AF054A054B1B78DBB2DE
:4029400043F00103DBB2137000BFBD4680BC70470859004080B584B000AF0346FB710C4B1B78DBB203F00103FB73FB7B012B02D0FB79002BF3D0FB7B012B04D10120FFF7AD
:4029800037FE034B1B78FB7B18461037BD4680BD0959004080B483B000AF084B1B88FB80074B1B881BB29BB2FA88D31A9BB21BB218460C37BD4680BC704700BFA25B004052
:4029C0006E92FF1F80B584B000AF0346FB71FB790A2B08D00C2B02D0082B08D00BE04FF48053FB600DE04FF48063FB6009E04FF48073FB6005E00023FB600020FFF7CAFDD3
:402A000000BF0C4B00221A80FB6842F2107202FB03F303F58063002B01DA03F2FF73DB121A46054B1A60054B00221A8000BF1037BD4680BD7092FF1F6892FF1F6E92FF1FB1
:402A400080B400AF00BFBD4680BC704780B483B000AF0346FB710949084B1B78DBB25AB297F9073023F007035BB213435BB2DBB20B7000BF0C37BD4680BC7047024100404B
:402A800080B500AF064B1B78002B04D100F00AF8034B01221A7000F03BF800BF80BD00BF1D82FF1F80B500AF11490420FFF7B4FD06210420FFF7D8FD0E4B00221A700E4B49
:402AC00072221A700D4B20221A700D490520FFF7A3FD06210520FFF7C7FD0A4B06221A70094B47221A70094B02221A7000BF80BD592D00002082FF1F8F6400408A6400408A
:402B0000312E00002F6400403F6400408C64004080B582B000AF00F0DBFD0346FB71154A144B1B78DBB243F02003DBB21370124A114B1B78DBB243F01003DBB213700F4BF1
:402B400010221A600E4A0E4B1B78DBB243F01003DBB213700B4B20221A60084B20221A6000F09EF9FB79184600F0B6FD00BF0837BD4680BD9F6400409A64004000E100E0E5
:402B80009C64004080E200E080B483B000AF1B4B10221A601A4B1B78BB711A4B1B787B71194B1B78DBB2002B03D1BA797B799A4217D0BB79154AD35CFB71BB790133BB7134
:402BC000BB79132B01D90023BB710D4ABB7913700D4B1B78DBB2002B06D00B4B00221A7002E00B4B1B78FB710A4B10221A60FB7918460C37BD4680BC704700BF80E100E06E
:402C00002182FF1F2282FF1F2382FF1F7492FF1F4D64004000E100E090B583B000AF0C4B10221A600B4B1B78FB800A4B00221A70094B10221A60FB881B029CB2FFF7A4FF62
:402C400003469BB223439BB218460C37BD4690BD80E100E02082FF1F00E100E080B485B000AF0346FB71254B1B78FB73244B1B78BB73FA7BBB7B9A4208D2FA7BBB7B013BA2
:402C80009A420CBF01230023DBB207E0FA7BBB7BD31A132B0CBF01230023DBB2002BE2D1BA7BFB7B9A420AD1164B1B78DBB203F00403002B03D1144AFB79137018E0FB7BC0
:402CC000132B01D90023FB73FB7B1049FA79CA54FB7B0133FB73094AFB7B1370094B1B78DBB203F00203002B02D0094B20221A6000BF1437BD4680BC704700BF1F82FF1F70
:402D00001E82FF1F6C6400404C6400408892FF1F00E200E080B584B000AF78600023FB810C4B1B78002B10D009E0FB897A6813441B781846FFF792FFFB890133FB81FB8981
:402D40007A6813441B78002BEFD100BF1037BD4680BD00BF1D82FF1F80B483B000AF0023FB712B4B1B78BB71BB797B71BB7903F01E03002B0CD097F9063003F01E035AB2AB
:402D8000244B1B785BB213435BB2DAB2214B1A70BB7903F02003002B30D01F4B1B787B711E4B1B78DBB219461D4A7B7953540123FB71FB79002B21D01A4B1B78DBB2002B07
:402DC00002D0194B01221A70144B1B78DBB20133DAB2124B1A70114B1B78DBB2132B02D90E4B00221A700D4B1B78DAB20F4B1B78DBB29A4202D10B4B01221A70BB7903F066
:402E00002003002BADD100BF0C37BD4680BC70476A6400402082FF1F4D6400402282FF1F7492FF1F2382FF1F2482FF1F2182FF1F80B400AF17E0154B1B78DBB2132B02D96E
:402E4000124B00221A70124B104A1278D2B21146104A525CD2B21A700C4B1B78DBB20133DAB20A4B1A70094B1B78DAB20A4B1B789A4206D0094B1B78DBB203F00403002B5B
:402E8000D9D000BFBD4680BC704700BF1E82FF1F4C6400408892FF1F1F82FF1F6C64004080B400AF094A094B1B78DBB243F00803DBB21370064A064B1B78DBB243F0080349
:402EC000DBB2137000BFBD4680BC7047A2430040B243004080B582B000AF786000F03CF8786800F009F8062000F018F800F028F800BF0837BD4680BD80B485B000AF78606C
:402F0000054B1B68FB60FB6844337A681A6000BF1437BD4680BC704708ED00E080B483B000AF0346FB71054AFB795B01DBB2137000BF0C37BD4680BC704700BF01E400E0E2
:402F400080B400AF034B02221A6000BFBD4680BC704700BF00E100E080B400AF034B02221A6000BFBD4680BC704700BF80E100E080B500AF224A224B1B78DBB203F00103F5
:402F8000DBB213701F4A1F4B1B78DBB223F00303DBB213701C4A1C4B1B78DBB223F03003DBB21370184A184B1B78DBB243F03003DBB21370144A144B1B78DBB223F00F0345
:402FC000DBB21370104A104B1B78DBB243F00F03DBB213700D4A0D4B1B78DBB243F00103DBB2137045F6BF5000F058F845F6BF5000F066F8002000F041F800BF80BD00BF5B
:40300000004F0040024F00400B4F0040014F004080B400AF0D4A0D4B1B78DBB243F00103DBB213700A4A0A4B1B78DBB243F00103DBB21370074A074B1B78DBB243F0010343
:40304000DBB2137000BFBD4680BC7047A3430040B3430040004F004080B500AF064B1B78002B04D1FFF784FF034B01221A70FFF7CFFF00BF80BD00BF2682FF1F80B483B0B8
:4030800000AF0346FB71044AFB79137000BF0C37BD4680BC704700BF034F004080B485B000AF0346FB80FB88FB81044AFB89138000BF1437BD4680BC704700BF044F00408C
:4030C00080B483B000AF0346FB80044AFB88138000BF0C37BD4680BC704700BF064F004080B582B000AF786000F03CF8786800F009F8062000F018F800F028F800BF08372F
:40310000BD4680BD80B485B000AF7860054B1B68FB60FB6848337A681A6000BF1437BD4680BC704708ED00E080B483B000AF0346FB71054AFB795B01DBB2137000BF0C3726
:40314000BD4680BC704700BF02E400E080B400AF034B04221A6000BFBD4680BC704700BF00E100E080B400AF034B04221A6000BFBD4680BC704700BF80E100E080B500AF64
:403180000A4B0C221A700A4A094B1B78DBB243F02003DBB21370074B80221A70012000F05DF8012000F03EF800BF80BD04580040055800400658004080B400AF0D4A0D4B44
:4031C0001B78DBB243F00203DBB213700A4A0A4B1B78DBB243F00203DBB21370074A074B1B78DBB263F07F03DBB2137000BFBD4680BC7047A9430040B94300407758004082
:4032000080B500AF064B1B78002B04D1FFF7B6FF034B01221A70FFF7CFFF00BF80BD00BF2782FF1F80B485B000AF0346FB710A4B1B78DBB223F00303FB73FB7903F00303A4
:40324000DAB2FB7B1343FB73034AFB7B137000BF1437BD4680BC70470558004080B588B000AF0346FB71284A07F114031068516803C3127A1A70254A07F1080310685168A3
:4032800003C3127A1A70FB79082B39D8204A204B1B78DBB223F07F03DBB213701C481C4B1B78DAB2FB7907F120010B4413F80C1CFB7907F1200E734413F8183C9B00DBB20F
:4032C00003F00C03DBB20B43DBB21343DBB20370104A104B1B78DBB223F00C03DBB213700C490C4B1B78DAB2FB7907F12000034413F8183C1343DBB243F00C03DBB20B70DD
:4033000000BF2037BD4680BD4C9C0000589C0000065800400558004080B485B000AF0346FB710B4B1B78DBB223F00403FB730849FB799B00DBB203F00403DAB2FB7B134316
:40334000DBB20B7000BF1437BD4680BC704700BF3051004080B500AF094B02221A70094B0C221A70084B01221A70052000F060F8032000F07FF8032000F03EF800BF80BD97
:4033800000580040015800400258004080B400AF0D4A0D4B1B78DBB243F00103DBB213700A4A0A4B1B78DBB243F00103DBB21370074A074B1B78DBB263F07F03DBB2137091
:4033C00000BFBD4680BC7047A9430040B94300407758004080B500AF064B1B78002B04D1044B01221A70FFF7B5FFFFF7CFFF00BF80BD00BF2882FF1F80B485B000AF03468B
:40340000FB710A4B1B78DBB223F00303FB73FB7903F00303DAB2FB7B1343FB73034AFB7B137000BF1437BD4680BC70470158004080B483B000AF0346FB71FB79072B11D8B8
:403440000B4A0B4B1B78DBB223F07003DBB213700749074B1B78DAB2FB791B01DBB21343DBB20B7000BF0C37BD4680BC704700BF0258004080B483B000AF0346FB71FB791F
:40348000032B11D80B4A0B4B1B78DBB223F00C03DBB213700749074B1B78DAB2FB799B00DBB21343DBB20B7000BF0C37BD4680BC704700BF0258004080B485B000AF03468B
:4034C000FB710A4B1B78DBB223F00103FB730749FB7903F00103DAB2FB7B1343DBB20B7000BF1437BD4680BC704700BFC051004080B400AF044B1B78DBB203F00103DBB265
:403500001846BD4680BC7047C151004080B485B000AF0346FB710B4B1B78DBB223F00203FB730849FB795B00DBB203F00203DAB2FB7B1343DBB20B7000BF1437BD4680BCCE
:40354000704700BFC051004080B400AF054B1B78DBB203F002035B08DBB21846BD4680BC704700BFC151004080B500AF064B1B78002B04D100F00AF8034B01221A7000F03F
:4035800025F800BF80BD00BF2982FF1F80B400AF094B72221A70094B20221A70084B06221A70084B47221A70074B00221A7000BFBD4680BC704700BF8B65004088650040DB
:4035C00028650040386500408B64004080B582B000AF00F07DF80346FB71114A104B1B78DBB243F02003DBB213700E4A0D4B1B78DBB243F01003DBB213700B4A0A4B1B7823
:40360000DBB243F01003DBB2137000F00FF8FB79184600F061F800BF0837BD4680BD00BF9B650040986500409B64004080B400AF094A094B1B78DBB243F00403DBB21370E8
:40364000064A064B1B78DBB243F00403DBB2137000BFBD4680BC7047A2430040B243004080B485B000AF0346FB710B4B1B78DBB223F02003FB730849FB795B01DBB203F0A8
:403680002003DAB2FB7B1343DBB20B7000BF1437BD4680BC704700BF1051004080B400AF054B1B78DBB203F020035B09DBB21846BD4680BC704700BF115100400000000018
:4036C0000230800803D000BF01380046FCD17047EFF3108072B6704780F31088704700BF094B10B5D8689A68002308E0114652F8084B1CB901230B60486810BD0133834275
:40370000F4D3002010BD00BF9C92FF1F084B30B50022DC689B6808E05D6819460833854202D100230B6030BD0132A242F4D330BD9C92FF1F01230373704700230373704715
:4037400010B1002282720260704718B1027B0AB1013A02737047000038B501F06DFD20B3124C4200E260000101F05AFD238AA060E068584301F054FDA568E168228A0023B4
:4037800004E005EBC3046060013380188B42F8D3102001F045FD054C6061282001F040FDA37CA06143F00203A37438BD9C92FF1F38B510220D460021044601F063FCFFF78C
:4037C0008FFF08B9013038BDA0604FF0FF33002065602360A07338BD38B5837A044643B1056801F039FB2846FFF7AFFF2046FFF7A7FF002038BD08B50368827A03B19B68B5
:4038000022B11BB1FFF7E8FF002008BD012008BD08B901307047FFF7EEBF000038B5104B9C69217B59B921606160A16004F11000142201F027FC237B013323730DE0656A44
:4038400045B9282001F0D6FC606218B12946282201F018FC646A002CE3D1204638BD00BF9C92FF1F38B50E4B5C69A17AE56839B92046102201F006FC0123A372E5600CE088
:4038800045B9102001F0B6FCE06018B12946102201F0F8FBE468002CE7D1204638BD00BF9C92FF1F2DE9F74F06460020884691469B469DF830A09DF83470FFF7AFFF054638
:4038C00008B9044610E0FFF7CDFF044660B180F80B900560AE604046214652463B46CDF800B001F0EDF830B12046FFF729FF2846FFF72BFF00242046BDE8FE8F2DE9FF41D4
:403900000C461F4604A9002341F8043D15469DF8286000F0A5F88046B8B1039B0BB11B789BB1404600F025F900280EDD14F0150F01D0032809D1039939B1404622462B468F
:4039400000970196FFF7AEFF00E0002004B0BDE8F08100002DE9F3410646884600240E4D404655F83410E70001F0C2FB10B9002C04DA0DE001340F2CF1D109E07D19A8798B
:4039800029790090EA796B793046FFF7B7FF00E00020BDE8FC8100BF649C0000FFF7DABF10B5437B04460BB1012010BD40682168A268A37B01F007FD10B10120607310BDB5
:4039C000207310BD10B5437B044663B9037B53B140682168A268A37B01F0F5FC08B1012363730023237310BD036870B5994204460D46164607D0037B0BB1FFF7E3FF002318
:403A00002560A673E37370BDFFF7DCBF10B50446FFF7D8FFA068BDE81040FFF777BE01230373FFF7CFBF10B50446407B08B1012010BDE37B5BB960682168A268A37B01F065
:403A40005CFC10B10120607310BD0122E27310BD08B5436813B94FF0FF3008BD984708BD2DE9F0470F463A21064601F070FB044610B93446174D27E00378C6EB000A5BB13D
:403A800014F8013F43B162783A2A05D1A3F130085FFA88F8023401E04FF000080D4D2B6828791B689847814601F02FFB504508D148463146524601F030FB10B92B794345C1
:403AC00002D0ED6D002DEAD107B13C602846BDE8F08700BFB892FF1FF8B5174C064694F85B10E56D69B960220127204601F0CAFA84F85B70E5653046FFF7AAFF00280EDA6B
:403B000018E045B9602001F075FBE06518B12946602201F0B7FAE46D002CE0D10AE0074B2660DA6F0132DA670323207184F85B7084F85A302046F8BDB892FF1F9C92FF1F8D
:403B4000FFF7CABF38B504460D4601F0A4FB08B9013838BD204601F0B1FB204601F04AFD204600F0D7FC08B184F8595094F8590038BD90F8593023B990F85A1009B1FFF7AC
:403B8000E1BF1846704730B51346BAB1B0B10268857A0AB1946804B900247DB172B16CB1C27A12F0100204D14FF6FA730381104630BD1A46BDE8304001F070B9002030BD9D
:403BC000FFF7E1BF0C2802D0102805D102E001EB510070474800704788007047036840689B685B6AB0FBF3F0704710B5046D836CE4B199421AD3E318994217D2013B99428F
:403C00000CBF4FF0FF31013172B190F836300C2B02D0102B05D102E00905090D03E089B201E021F070411160012010BD002010BD40F6F473984201D80C2070474FF6F473FB
:403C4000984294BF102020207047027F8368023902FB01307047431EDBB21F2B13D92F2811D007D826280ED002D8222809D10AE02A3804E03A2804D33F2804D95B38022895
:403C800001D90120704700207047034638B30B2A01DD0B2200E0013A00201CE0082809D191F808C0BCF1200F0DD04FF02E0C03F801CB08E038B991F800C0BCF1050F02D1C6
:403CC000ACF1200C04E011F800C0BCF1200F01D003F801CB01309042E0DB00221A7070472DE9F04788B005AE04460D463046114600229A469DF84490BDF84C80BDF85070B6
:403D000000F01EFD08B1002413E020462946524600F00FFE044660B1129B31460093109A4B46CDF80480029700F0C6FF2846FFF701FD204608B0BDE8F08710B59DF80C4018
:403D40000394BDE8104000F0D9BD00002DE9F04F144E87B0109DDDF848809DF84440376800950194CDF8088005937F68934682468946B84732680C4BDDF814C09A420DD089
:403D800060B9504649465A46634610951194CDF8488007B0BDE8F04FFFF7CFBF07B0BDE8F08F00BFF080FF1F0C9D000070B5C37A04460B7010300D4601F0F8F9064604F1D8
:403DC0000E0001F0F3F940EA0640686004F1120001F0ECF90004A86004F1180001F0E6F9064604F1160001F0E1F940EA0640E86004F11C0001F0C1F9286170BD2DE9F8453B
:403E0000038A04460E46924687692BB907F118002146626900F064FC38465146224600F0E7FC0546204600F065FCD5B12B78C3B1E52BF1D095F80B80B8F10F0FECD018F0B6
:403E40000808E9D170692946B269FFF71EFF28463146FFF7ABFF238A404601332382BDE8F8854FF0FF30BDE8F8850222FFF7BCBD2DE9F04790F8366005460C463046114657
:403E80009146FFF79FFEB5F81E80AB6A20FA08F89845824602D30020BDE8F0876B8E05F118079844204641463A46FFF7DEFF2046FFF7B9FD18B14FF0FF30BDE8F087AA8BA4
:403EC000A168013A0AEA020A1FFA8AFA92450AEB01031AF8015001D0013309E0204608F101013A46FFF7C1FF2046FFF79CFDA36818780C2E45EA002009D0202E0FD15D7834
:403F000040EA05409D7840EA0560BDE8F08719F0010F02D00009BDE8F0870005000DBDE8F08700002DE9F34190F83630144603FB02F7828B8846D200511E0F40D71B0546E3
:403F4000B7FBF3F7002618E00E4B93F88030022B05D12846214601AAFFF747FE28B9284641462246FFF784FF0190019B0134A34205D10136B6B2013F1C46002FE4DC3046BB
:403F8000BDE8FC819C92FF1F2DE9F34105460E46144698461F681CE0114B93F88030022B05D12846214601AAFFF71FFE28B9284631462246FFF75CFF0190737B0BB10024E4
:403FC0000BE0AA6B019B0132934204D81BB1013F1C46002FE0D1C8F800702046BDE8FC819C92FF1F73B504680E4623681BB9FFF7F5FD013039E0FFF7F1FD236998423CBF31
:404000004FF0FF3323612369B3F1FF3F04D12268013323616261E3832169E28B451A954234BF2B4613463BB16069C918C018D21A60612161E283ED1A0DB9284615E002AB14
:4040400043F8045D31466269A068FFF79DFF6061019B21690246C91A4D19256123B9A0683146FFF75FFFE08301987CBD13B502AC44F8043D2346FFF787FF019B002B18BF70
:4040800000201CBD2DE9F0410746884615461E460024384641462A460123FFF7E7FF30B1BA6B0134944201D80546F2E7002406B134602846BDE8F0812DE9F74F04460D4653
:4040C0001E461746002A00F0B98090F836001146FFF778FDB4F81EA0A36A20FA0AFA9A45814680F0AB80638E04F118089A44284651464246FFF7B9FE2846FFF794FC6B7B5E
:40410000002B40F09B80A38BAA68013B09EA03091FFA89F303EB020926B9216C8F4203D2276401E0791C216494F8361010290AD0202911D1484601F020F83146074648466F
:4041400001F026F84EE0484601F030F8B1B20746484601F027F845E0284600920193FFF7E9FA009A019B17F0010F13F802B01BD00BF00F0141EA06119954A28B013A93420F
:4041800002D009F1010309E028460AF101014246FFF76BFE2846FFF746FCAB681F7832093F0147EA1B171CE09E54A28B013A934202D009F1010309E028460AF101014246EF
:4041C000FFF753FE2846FFF72EFCAB681A78310A02F00F0701F00F0122F00F024BEA07270A431A702846FFF7A5FA94F83630202B18D1B4F84620AAB9B4F844102846FFF7A2
:40420000F3FB2846FFF70FFCA8684FF0FF3100F5F47000F0BDFF2846FFF78CFA4FF00103A4F84630E36BB3F1FF3F09D00FB10133E3632EB1E36B013BE36301E0012000E08A
:404240000020BDE8FE8F6FF07043FFF735BF70B5036D04460E4693B1002506E0AA1820463146531CFFF728FF0135236DA26C013B9D42F3D320463146AA18FFF7E4FF0023F3
:40428000A3642365E364636570BD70B506460D461C460AB1FFF710FF304629462246BDE87040FFF7D0BF00002DE9F84504460E4615461F46002B36D01C4B93F88030022B75
:4042C00031D190F8368011464046FFF77BFCB4F81CA00AF1FF3A2AEA000A4FEACA0ABAFBF8FAAA44A8460EE0204631464246FFF7BFFD50B9A36C0BB9C4F84880E36C08F13D
:4043000001080133E364D045EED9E36C5BB167653B685A6922B1204631462B46FFF7CCFE236D01332365BDE8F88500BF9C92FF1F2DE9F8459846274B054693F880300F46B8
:40434000022B1646846B19D1436D984503D0C36C0BB1FFF77CFFB8F1000F0FD06B6D43450CD12B6DEA6C9A4204D9AC6C1C1901332B652CE028463946FFF769FF012E04F118
:40438000010A01D9564505D92E6C012E01D9564500D902263446284639462246FFF768FD50B101345445F6D902240DE0284639462246FFF75DFD30B9284639462246434619
:4043C000FFF772FF03E00134B442EFD300242046BDE8F8859C92FF1FF8B507460E461546FFF7A6FF044628B1384631462A462346FFF74BFF2046F8BDB2F1FF3F73B50446AB
:404400000D4614D0561A013611D0FFF7FDFA084B00211A8AA06800F035FE022300936068A3682946324600F0A9FF0023E3737CBD9C92FF1F2DE9F84F984690F83630044612
:404440000C2B0D4616465AD04FF0FF3AD1463CE094F836003146FFF7B5FBB4F81CB0678E0BF1FF3B10EA0B0BE38B1DD1D840013F3F18022228463946FFF7B6FAA38BAA68ED
:404480009B0852F80B1079B9013B0BF1040BF8D13BE0494628465246FFF7AEFFB946BB462846FFF74AF9DA462946324601232046FFF7DCFD29460746324620460023FFF7A5
:4044C000FBFD2FB108F1FF383E46B8F1000FBFD1284649465246FFF78FFF13E02946324601232046FFF7C2FD29460746324620460023FFF7E1FD2FB108F1FF383E46B8F1E8
:40450000000FEBD14046BDE8F88F0AF1010B5F45BFD1C5E72DE9F8450546FFF7E1F8044608B90546D0E0284600F054FF684E338A834208D338B10021284622460B4600F0BF
:40454000DCFE002804DA2046FFF7E0F80025BBE004F5FF7000F02AFE4AF65523984240F0AD8004F10B0000F021FE10F47E4F074600F0A480338A8342C0F0A080237C022B99
:4045800040F09C8094F80D80B8F1000F00F096800021402205F1180000F074FD04F1130000F004FE064620B904F1200000F0E5FD064604F1160000F0F9FD824680B904F1AD
:4045C000280000F0F3FD10F08F0F77D104F1240000F0D3FD824604F12C0000F0CEFDE862022385F83530C5F828A0AE6185F8348004F10E0000F0DAFD688604F1110000F08C
:40460000D5FD95F835206B8E288602FB0A3A7A0992B2B0FBF2F25244AF832A62092301219940B94201D1EB8302E00133102BF6D108FB07F7B61AB6FBF8F6AE636F623046F2
:40464000FFF7F6FA202818BFC5F82CA04FF0FF33202885F83600EB6332D104F1300000F0A5FD00230146A5F844002246284600F044FE002822DB204600F07FFD804604F52F
:40468000F27000F07AFD074604F5FE7000F075FD104B984514D1104B9F4211D10F4B98420ED104F5F67000F068FD286404F5F47000F063FDB04203D8E86301E0002500E0E2
:4046C00001252046FFF722F82846BDE8F88500BF9C92FF1F5252614172724161000055AA00238B60837F202B01D102B942694A600A60704783680133836070472DE9F0415A
:404700000C46202105461F469DF818604FF0000800F0B8FC10E014F8080036B9E52804D1B8F1000F01D1E03802E000F009FDC0B205F8080008F10108B845ECDBBDE8F0819C
:404740002DE9F74506460D4608462849002A14BF92464FF0FF3A00F0CBFC804650B930462946022200F05DFEB01C2021092200F089FC37E04FF0FF34002715F80780B8F1C8
:40478000000F01D0574505D1B4F1FF3F08BF3C4664B925E04046FFF75EFA08B3B8F12E0F08BF3C4601370D2FE7D119E0082C17DC3F1B042F14DC30462946082223464FF01B
:4047C0000008CDF80080FFF799FF0123611C009306F10800691803227B1EFFF78FFF01E04FF001084046BDE8FE8500BF1C9D00002DE9F74FD2F808B0436A4FEA4B18B8FBBF
:40480000F3F8D368054698450E461446D2F8009001D20023D360B5F81EA0E368AAF1050A0BB9D4F804902BFA0AF7B9F1000F17D095F83420B8EB0303019206D04A462846BE
:404840003146FFF713FC814640B3494605F11800FFF7FBF9019B591E01EA0707C11906E02B8E43FA0AF39F4218D2E96A79183046C4F80090C4F80C800122FFF7B5F83046C7
:40488000FFF7D1F850B9013000FA0AFAB3680AF1FF3A0AEA0B0B03EB4B1000E00020BDE8FE8F2DE9FF4107460E4601A811461A460A9D9DF82C40FFF743FFC8B93846314680
:4048C0002A46FFF795FF8046A0B1037883B101A90B2200F0C7FB38B998F80B3004EA0302A24201D1082B05D12846FFF703FFE5E74FF00008404604B0BDE8F0812DE9F045ED
:4049000087B002AF04460E46154698469DF83CA039460E9A1830FFF7E3FE204631462A4643460097CDF804A0FFF7BBFF07B0BDE8F0852DE9F04500F1180785B005460C467D
:40494000384669469246FFF7CBFE284621466A46FFF74EFF06466846E846FFF7CBFE002E37D1BAF1000F02D12B8E002B35D12146009A00232846FFF785FB2146024600233D
:404980002846FFF729FD80462046FFF748F8B8F1000F22D0AA8B0021A06800F073FB38464146FFF752F995F8347000257E1E361808E0314620460122FFF716F82046FEF7D8
:4049C000EFFF013E01357B1BB3F1FF3FF1D1A66803E033780BB1E52BB7D1304605B0BDE8F08538B504461A3000F0E0FB054604F1140000F0DBFB45EA004038BD2DE9F045D0
:404A00001D4685B007460E462A6010465C21904600F09DFB4FF0000A0446A04508D108F10108C5F8008040465C2100F090FB044694B1C8EB0403002B0EDD10220192103A06
:404A40000292384631464246CDF800A0FFF77EF970B1FFF7C6FF824628685C2100F077FBA04604460028D8D10C9B0130C3F800A005B0BDE8F085F8B505460C461E46174632
:404A8000DAB16FF01A0313700846FEF753FE16B94FF47A7608E007F11C0000F06EFB6B6A5E1E3618B6FBF3F63846FFF79AFF2146024633462846FFF7BDFC607BF8BD000066
:404AC0002DE9F04FD1F8008093B0D8F808700BAD044608930E464FF0FF333946284609920F939DF870A0FEF763FE10AB009338462946224611ABFFF781FFD0B1F27A109B99
:404B000007920FAA00930292002338462946119A0193FFF71BF9044680B1C37A13F0100F07D10D9BDDF82CB0C3EB00094FEA691906E02846FEF76AFF0125A3E0834681463B
:404B4000099B002B3CD0002C33D0524B5D6912E02B687BB1AA7A6AB19A8B4A450AD19A695A4507D19B68BB4204D14FF6F772328100257EE0ED68002DEAD10DF12C0C6146FC
:404B8000384622460123CDF818C0FFF774FFDDF818C018B14FF0FF3333816AE03E4B1B68DC6824B138466146109A0F9BA0472C4606E0BAF1000F03D1089A002A44D065E070
:404BC000089BEBB1CCB1E37A13F0010F0BD0079A12F0150F07D04FF6FA733381BAF1000F01D1012500E000252046FFF7FAFE074604F11C0000F0C1FA29E0BAF1000F45D0BE
:404C0000BAF1010F01D000251BE0ECB900F01EFF214B20221B68019282B2000C03920490009402949D6838460BA9119A109BA84750B10D9ADDF82CB0C2EB00094FEA691979
:404C4000254628462F4602E00125002007464FF0FF33C8F81030C8F818B0A8F81C90079AC8F8040012F0010308BF1846C8F800707060B6F908300BA835EA230528BF0125AE
:404C8000FEF7C4FE284613B0BDE8F08F01255046DCE700BF9C92FF1FF080FF1F70B505460C461A3089B200F07DFA05F11400210CBDE8704000F076BA2DE9F0470446BDF82A
:404CC00024700D469146002120229A46BDF82860DDF8208000F0D6F90B222046294600F0A0FB04F10E00394684F80BA000F05AFA04F11000314600F055FA04F11600394683
:404D000000F050FA04F11800314600F04BFA20464946FFF7C3FF04F11C004146BDE8F04700F036BA07B5426803460AB910460AE081680020009048681968DB6800F0FCFADA
:404D4000003818BF01200EBD2DE9F047046805460F46A668FFF746F981468246002841D0D4F80080B8F1000F1BD14246304639462B46FFF7DDFA0246D8B11C4B6061C4F874
:404D8000108093F880302060022B07D030463946FFF759FA10B10120BDE8F087B9F1010A20D03046394662692B46FFF7C1FA804628B94FF6FE732B810130BDE8F0870B4B35
:404DC00093F88030022B05D03046394662694346FFF75BFA2369C4F8148001332361BAF1010ADDE70020BDE8F08700BF9C92FF1F2DE9F041836804460D4608460122A16943
:404E00009E8BFEF7F1FD2846B4F81C80AF68FEF70AFEF8B9013E06EA4816B6B2BE1906F11C00616800F0B4F921683046FFF736FF00F00CFE0446A1B206F1160000F0B2F93D
:404E400006F11800210C00F0ADF92846BDE8F041FEF7E5BDBDE8F0817FB50668B0F90830B568C3B9C37A13F0110F14D029466846FEF79EFC30466946FFF7BAFF064B6C468C
:404E800093F88030022B03D128466946FFF7DFF96846FEF7BBFD7FBD9C92FF1F03682DE9F04F9F68038995B001339BB2012B04460E46059201D90025CEE0394610AD0CA8D1
:404EC000FEF776FC39462846FEF772FC039626680023D6F808909A4609F118010791D9F82420059906924FF0FF32099308920A950291049320460CA9FFF726FF38B108A837
:404F0000FFF710FF5546002818BF00258FE03269069901324A43B9F81CB063680BF1FF3BD21A0BEA030B029B0798934228BF134601937169FEF789FE99F83430B9F81C20BA
:404F40006768013BB7FBF2F703EA0707C719B9F81C300199CBEB03058D4228BF0D469D4228D0BBF1000F03D1626873689A420FD00DF14008404639460022FEF735FD404672
:404F8000FEF751FD20B14FF6F9725546228154E01298039958442A460DF1400800F041FA404639460022FEF71FFD4046FEF7F8FC90B141E0099B089A9A1897420AD008A894
:404FC000FFF7B0FE002837D101230993039B08970B9301E001330993029B03995B1B019A029363684919521BAA44ED186560736803919D42019207D91BB1194B93F8803034
:405000000BB9012104917560019A1AB101374FF0000B9CE7029B002B7FF46CAF08A8FFF781FE04995546002818BF002529B1304610A9FFF7DDFE00E05546059A954205D03E
:40504000B4F9083013B94FF6F87323810CA8FEF7DDFC10A8FEF7DAFC284615B0BDE8F08F9C92FF1F10B5002308E0C45C11F803C0013A0133644501D0012010BD002AF4D101
:40508000104610BD70B5034602E003F8011C013A1C4622B103F003050133002DF5D193081ED04FF001354D4308E044F8105C44F80C5C44F8085C44F8045C043B032BA4467E
:4050C00004F11004F1DC1C46002603E04CF80650013B0436002BF9D102F003020CEB8404002302E0E154013A0133002AFAD170BD002310F803C0CA5C624501D001207047C5
:405100000133002AF5D110467047002300E00133C25C002AFBD11846704710B500230BE0C45C11F803C0644501D0012010BDC4186478013314B1013A002AF1DC002010BDE7
:40514000A0F16103192B98BF00F0DF007047C9B203E00BB918467047013003788B42F8D1704742780178431C42EA01205A789B7842EA002043EA002070478378C27803EBB2
:405180000222437803EB0222037803EB0220704703460A0A03F8011B42700A0C090E5A70997070470170090A417070474278037843EA022070470000094A0A4BC11C10B56E
:4051C000146821F0030118680919814201D9002010BD11609A685868013220189A6010BD2093FF1F2C82FF1F08B5FFF7E5FF00B9FEE708BDFFF7E0BF30B1044A9368013BFB
:4052000093600BB9024A1360704700BF2C82FF1F2093FF1F014B5860196070472C82FF1F38B50546FFF7E0FF002104462A46FFF729FF204638BD000010B5084CA37C0BB190
:40524000002010BD4FF40073238200F0EFFBA37C012043F00103A37410BD00BF9C92FF1F08B583680BB10020984708BD08B583680BB10120984708BD10B504680079A4689F
:40528000A04710BD37B59DF81850046800790095E468A0473EBD08B5036800799B69984708BD036810B55B69044623B10079984708B1002000E00120607110BD10B54379FD
:4052C00004460BB9FFF7EDFF607910BDF7B504461F460E461546FFF7F1FF2046FFF7C6FF2A463146012320460097FFF7C5FF05462046FFF7B5FF2846FEBD10B5046909196D
:40530000BDE81040FFF7E2BFF7B5044615461F460E46FFF7D3FF2046FFF7A8FF0023009331462B463A462046FFF7ACFF05462046FFF796FF2846FEBD30B504699DF80C503F
:4053400009190395BDE83040FFF7DEBFF7B5044615461F460E46FFF7B1FF2046FFF786FF0123009331462B463A462046FFF78AFF05462046FFF774FF2846FEBD30B50469A1
:405380009DF80C5009190395BDE83040FFF7DEBF73B504460E461546FFF790FF2046FFF765FF00232A460093314601332046FFF769FF05462046FFF753FF002D14BF4FF067
:4053C000FF3000207CBD10B504690919BDE81040FFF7DEBF30B5054685B0FFF76FFF2B6828791C694FF47B71002201ABA04708B1002001E0BDF80C0005B030BD70B5064655
:405400000D46FFF75BFF336830791C694FF47B7100222B46A047002814BF4FF0FF30002070BD11F0030F70B584460B4632D110F0030F2FD195100446AC4611E053F8106CA0
:40544000ACF1040C44F8106C53F80C6C44F80C6C53F8086C44F8086C53F8046C44F8046C10341033BCF1030FE8D8AB081B0100EB030CCB1815F003050AD0284600215C589E
:405480004CF8014004310138F9D1AD00AC445B1902F0030213F0010F19462FD11CF0010F60462BD15410254610E031F8086C043D20F8086C31F8066C20F8066C31F8046C10
:4054C00020F8046C31F8026C20F8026C08300831032DEAD8A108C9005B1814F003048C440AD0204600215D5A2CF8015002310138F9D16400A4441B1902F00102614610E015
:4055000013F8040C043A01F8040C13F8030C01F8030C13F8020C01F8020C13F8010C01F8010C18460433032A8C4601F10401E7DC32B10023C15C0CF8031001339342F9D14E
:4055400070BD0378E92B01D101207047EB2B01D0002070478078902814BF00200120704708B500F5FF70FFF721FE4AF65523984214BF0020012008BD01EB001000F5E370A7
:40558000FFF7FBBDF0B50D4685B01446064658B352B300210B46FFF799FE002824DB2046FFF7DEFF00B32046FFF7CBFF10B10024274616E02146FFF7DFFF074604F5E57004
:4055C000FFF7DBFD01A904463046FFF717FF5CB157B1E219FF23120AB2FBF3F2029B9A4202D81DB12C6001E04FF0FF37384605B0F0BD000073B50446FFF7ECFE0646FEF711
:405600006FF80C4B05461B8AB3420DD366B1204601A92A46FFF7B6FFB0F1FF3F04D02061019B6361002400E0FF242846FEF76EF860B27CBD9C92FF1F2DE9F0438BB00646BA
:405640000F4600F075F8DFF8E480044698F900300D46013337D03046394600F0DFF9002831D02BA3D3E900233046394601F052FE814668BB28A3D3E900233046394601F061
:405680002BFE00B398F90030254C002000210422022BCDF82090CDE90467CDE90267CDE906018DE814002CD0684600F0BDF940B3089B1BB102F004F8089B0360DDE90601DA
:4056C0000BB0BDE8F083204629460BB0BDE8F083134898F9003003210022CDE90467CDE902670190009108922BB90E4B4FF06042CDE90623D8E70C490020022BCDE90601B6
:40570000D2D101F0DDFF22230360D1E7AFF30080EF39FAFE422E864051302DD5104987C0209D0000FFFFEF470000F07FF480FF1F2DE9F04FB04F21F00042BA4283B00C46E4
:405740004FEAD17605460DD9AC4FBA4225D9C1F31303034340F0EF800EB10020014603B0BDE8F08FA64B9A4200F2CC80A54B9A4200F2DE808AA3D3E9002301F089F900220F
:40578000A14B01F0C7FD002800F005812846214600229D4B01F07CF9E1E783A3D3E9002301F0B8FD002840F0CB8081A3D3E900232846214601F090FD0028CED17EA3D3E955
:4057C0000023924F284607EBC608214601F012FBD8E9002301F05CF901F0A6FD804601F0A3FA77A3D3E9002306460F4601F002FB02460B462846214601F048F972A3D3E907
:405800000023CDE900013046394601F0F3FA82468B46DDE9000152465B4601F037F905460C462A4623462846214601F0E3FA68A3D3E9002306460F4601F0DCFA66A3D3E9D1
:40584000002301F023F932463B4601F0D3FA64A3D3E9002301F01CF932463B4601F0CAFA61A3D3E9002301F011F932463B4601F0C1FA5FA3D3E9002301F00AF932463B4656
:4058800001F0B8FA02460B462846214601F0FEF806460F462846214632463B46B8F1000F56D001F0A7FA324604460D463B4600204FF0804101F0EAF802460B46204629461A
:4058C00001F0C2FB02460B465046594601F0DEF8DDE9002301F0DAF80B4602464A49002001F0D4F86FF47F7398454FDA08F57A7801EB085100224FF0B87301F07BFA03B07C
:40590000BDE8F08F424B9A423FF658AF414BF4002344D3E9002301F0B9F83F4BC6F101081C44CDE90001D4E900ABC6EB080870E74FF0000875E702460B4601F0A9F80EE792
:4059400017A3D3E900231046194601F053FA06E701F050FA0022804689464FF080433046394601F093F802460B464046494601F06BFB2A46234601F089F802460B46002040
:40598000214901F083F803B0BDE8F08F01EB085103B0BDE8F08F804643E700BFAFF300809C7500883CE4377EEF39FAFE422E864051302DD5104987C0FE822B654715F73FC4
:4059C0000000E0FE422EE63F763C7935EF39EA3DD0A4BE726937663EF16BD2C541BDBB3E2CDE25AF6A56113F93BDBE166CC1663F3E5555555555C53F412E8640FFFFEF7F43
:405A0000422ED63FFFFF2F3E0000F03F289D0000B1A2F03F489D0000389D000041F0004101F58010C00F70470020704780B500AF4FF480510348FFF7EDFB0348FEF780F818
:405A400000BF80BD3882FF1FA09D000080B485B000AF0023FB810023BB8100237B8101233B810123FB800023BB80FB895B089BB21A46BB895B011A447B89DB0213443B609E
:405A80003A89FB885B011A44BB885B0213441B043A6813433B603B6818461437BD4680BC704700BF4FF6FF7070470000014B1868704700BF3892FF1F00487047C09D00004B
:405AC00000F098BD37B501220DF10701054600F0A9FD9DF80740FF2C14BF0A240724284601220DF1070100F09DFD9DF80700FF2803D1013CE4B2002CF1D13EBD37B504696B
:405B0000857828460DF10701012200F08BFD9DF807300BB1002003E0013CF2D14FF0FF303EBD37B54FF0FF3305460C468DF8073006E028460DF10701012200F08FFD013C79
:405B4000002CF6DC3EBD000038B5094C2368032B02DD4FF0FF3509E0DDB2013323601420FFF75EFB04EB850460608570284638BD3892FF1F08B5034B4FF400711B68984794
:405B800008BD00BFF880FF1F4FEAD20CACEBD103CCF10F0C10B501336044002410F801CB013B4CEA0424F9D101F00703511A02228A40DC40013A04EA020010BD7FB5130EBB
:405BC00085788DF80530130C01F03F018DF80630130A41F040018DF8073000238DF808208DF804101A4601A911F802C000215B00DBB283EA0C0E1EF0800F18BF83F00903D7
:405C00000131082904D04FEA4C0C5FFA8CFCEEE70132052AE7D15B0043F001038DF809308678C4680122304603A900F0FBFC9DF80C30FF2B04D00CB9FF2009E0013CF1E775
:405C4000284601A9062200F009FD2846FFF73AFF04B070BDF7B5847806460F4620460121FFF75FFF204600F011FC304609210022FFF7A4FF8DF8070028BBF6680546012252
:405C800020460DF1060100F0CDFC9DF80630FE2B06D0FC2B04D00135ADB2B542EFD112E00DF1070520463946102200F0BBFC29462046012200F0B6FC29462046012200F073
:405CC000B1FC002500E0FF25204600F0F3FB20460121FFF726FF2846FEBD00002DE9F04F9B46494B89B003EB800305925C684A02029103924FF00309029AA578E678039B7B
:405D00002846022E08BF13461E4600F0D3FB01212846FFF706FFBBF1010F0CBF4FF0110A4FF0120A284600F0B1FB204651463246FFF744FF002851D1059F5E46A378E2680D
:405D4000B44604924FF000081E460FE0012230460DF11F01CDF804C000F064FC9DF81F20DDF804C0FE2A05D008F10108049B9845ECD333E0284639464FF40072664600F071
:405D800051FC0222284607A900F04CFC9DF81C30384601939DF81D80FFF7ECFE4FF6FF729042019B0CD048EA0328404508D0BAF1120F13D120460C210022FFF7FFFE0DE018
:405DC000013E02D007F50077B8E7BAF1120F07D120460C213246FFF7F1FE01E04FF0FF36284600F067FB28460121FFF79AFE3EB1B9F1000F02D009F1FF397DE74FF0FF3635
:405E0000304609B0BDE8F08F3892FF1F2DE9F04F99464C4B87B0029203EB80039DF840205D68009103926B78002B40F085804B0201930327009BAC78EE78019A2046022E9C
:405E400008BF1A46164600F035FB01212046FFF768FEB9F1010F0CBF4FF0180A4FF0190A204600F013FB284651463246FFF7A6FE8DF81700002850D120460121FFF751FE26
:405E8000029ECB46B8463046FFF774FE0DF11707BAF1180F0CBFFE23FC2301228DF817308DF81500030A394620468DF8143000F0D5FB204631464FF4007200F0CFFB0222E8
:405EC000204605A900F0CAFB01222046394600F0A9FB9DF8173003F01F03052B1CD12846FFF70CFEC0B9039A0AB906F50076BBF1010BC8D1BAF1190F474611D106A96FF0D6
:405F00000203204601F8013D012200F0A7FB2846FFF7F4FD20B100E047464FF0FF3600E00026204600F0C6FA20460121FFF7F9FD26B10FB1013F7DE74FF0FF36304607B097
:405F4000BDE8F08F3892FF1F2DE9F04F877887B0044638460D4600F099FA20463A210022FFF72CFE064638B1384600F0A3FA38460121FFF7D6FD58E00DF114080422414641
:405F8000384600F04FFB4046FFF7EBF88046384600F090FA01213846FFF7C3FDB8F1000F28F07F02B8BF4FEA987BD2B240F272634FEA1828B8BF0BF0010B1FFA88F8002A5D
:405FC00014BF1A460022012111EA080F05D10136F6B24900102E89B2F6D140F27260824233460DD06422724302F5FA6208E011EA080F07D049000133013689B2DBB2F6B239
:406000000F2EF4D964214B434FF6FE7103F5FA6302EA01014FF6FC72384603EA020200F0B5FA10F0FF0F40F099804FF0FF3092E028467E217F22FFF7A7FD8246EB78DFF80A
:406040002C8103F0030203F0780308EBD30358F822101B7C3846594389B200F053FA0646002877D06B7803F00702DB1003F00F0308EB82024344126A93F810800292B8F13D
:40608000000F67D0A978284603911C221A21FFF77BFD0190BAF1000F1FD1502153222846FFF772FD4FF0010909FA00F92F2131222846FFF769FD1FFA89F982463E212846BA
:4060C00049224FEA5929FFF75FFD0AF1020A09FA0AF9013000FB09F910E0BAF1010F01D0012038E0284630214522FFF74DFD4FEA8029BBF1000F01D00223E37008FB06F2F1
:40610000029B0399B2FBF3F2642303FB01225A437343D208DB089A4294BFE260E360FA235E43019BF6089A400C21B24294BF2261266128460D22FFF727FD0546384600F008
:40614000CDF94FF4007128436070A180C4F80890002000E0FF2007B0BDE8F08FE378A778012B3FF465AF4FF0000A67E7589D0000F0B5857887B004464FF4C871284600F085
:40618000C1F9B0F5C87F00F2CC804CF25033E3600026284600F08EF90A212846FFF7C1FC624B93E8030001902846ADF8081000F06DF9062201A9284600F050FA2846FFF785
:4061C00081FC0746284600F075F901212846FFF7A8FC17F0010F03D10136052ED9D1A0E0284600F053F9082120464FF4D572FFF7E5FC10F0040F52D0284600F05BF9A578C2
:406200004FF4FA66284600F041F9002237212046FFF7D4FC28460121FFF783FC292100222046FFF7CBFC0746284600F043F928460121FFF776FC17B90123E3701EE017F0BE
:40624000040F01D1013EDDD14FF4FA66284600F01DF9012100222046FFF7B0FC0746284600F028F928460121FFF75BFC0FB9E77004E0012F55D1013EE8D152E001AD2046A9
:406280002946FFF7E7FC00284BD120462946FFF75BFEC0B2002844D10123237043E00422A07805A900F0BEF9284600F003F99DF81730AA2B35D19DF8163003F00F03012BF5
:4062C0002FD1A5784FF4FA66284600F0DFF8002237212046FFF772FC28460121FFF721FC29214FF080422046FFF768FC0746284600F0E0F828460121FFF713FC0FB1013EA0
:40630000E2D101AE20463146FFF7A4FC48B90125E57020463146FFF717FEC0B208B9257001E04FF0FF3007B0F0BD00BF989D000010B5084B03EB80035C6823783BB9FFF7E3
:40634000BFFB20B12046BDE81040FFF711BF4FF0FF3010BD3892FF1F38B51D46154BA1F57B7103EB80035C68072918D8DFE801F00A17171704041719204600211422FEF7D6
:4063800081FE0CE0237833B92046FFF7F1FE10B14FF0FF3038BDA3882B81A3686B60002038BD2046FEF728FF024B00201A68013A1A6038BD3892FF1F80B582B000AF034658
:4063C000FB71FB79002B11D1154B1B78002B1FD1134B01221A7000F053FA01219F2000F069FA00F033FA00F09FF911E00C4B1B78002B0FD10A4B01221A7000F041FA01214C
:406400009F2000F057FA00F021FA00F08DF901E000BF00E000BF00BF0837BD4680BD00BF4C92FF1F80B584B000AF03460A46FB711346BB71FB79002B11D1BB79184600F0FE
:40644000ADF900BF00F08EF9034603F00103DBB2002BF7D000F0BCF90346FB7311E0BB79184600F09BF900BF00F07CF9034603F00103DBB2002BF7D000F0AAF90346FB73F1
:4064800000BFFB7B18461037BD4680BD80B582B000AF0346FB71FB79002B03D1002000F0D5FA03E0002000F0D1FA00BF00BF0837BD4680BD80B582B000AF0346FB71FB79AB
:4064C000002B03D1012000F0C1FA03E0012000F0BDFA00BF00BF0837BD4680BD80B485B000AF0346FB71FB79002B02D10023FB6002E00023FB6000BFFB6818461437BD463E
:4065000080BC704780B584B000AF03460A46FB711346BB80BB88B3F5C87F03D24FF4C873BB8006E0BB88B3F57A7F02D94FF47A73BB80BB885B00FB81FB894FF47A42B2FB9D
:40654000F3F39BB2BB60FB79002B0CD100F098F9BB689BB2013B9BB20121184600F0AAF900F074F90CE000F08BF9BB689BB2013B9BB20121184600F09DF900F067F900BFF9
:40658000BB8818461037BD4680BD00BF80B485B000AF0346FB710B46BB8013467B80FB790033032B0FD8BB8840F6E442934207D87B8840F6E342934202D90123FB6012E0B9
:4065C0000023FB600FE0BB8840F6E442934207D87B8840F6E342934202D90123FB6001E00023FB6000BFFB6818461437BD4680BC704700BF80B584B000AF0346FB71FB792E
:406600001846FFF7D9FEFB790033032B02D80223FB6002E00223FB6000BFFB6818461037BD4680BD90B585B000AF0346B9607A60FB73BC68631CBB60FB7BFF211846FFF71C
:40664000F1FE034623707B68013B7B607B68002BEFD100BF1437BD4690BD00BF80B584B000AF0346B9607A60FB73BB685A1CBA601A78FB7B11461846FFF7D4FE7B68013B55
:406680007B607B68002BF0D100BF1037BD4680BD80B500AF084B0F221A7000F0A7F800F061F800F06DF8054B00221A70044B00221A7000BF80BD00BF8965004089640040BE
:4066C0008864004080B582B000AFFDF701F80346FB71124A114B1B78DBB243F02003DBB213700F4A0E4B1B78DBB243F01003DBB213700C4A0B4B1B78DBB243F01003DBB2B1
:406700001370FB791846FCF7E7FF00F01FF800F023F800BF0837BD4680BD00BF99650040996400409864004080B500AF064B1B78002B04D1FFF7ACFF034B01221A70FFF70B
:40674000C1FF00BF80BD00BF4D92FF1F80B400AF00BFBD4680BC704780B400AF00BFBD4680BC704780B483B000AF044B1B78FB71FB7918460C37BD4680BC704769640040F5
:4067800080B483B000AF044B1B78FB71FB7918460C37BD4680BC70476864004080B483B000AF0346FB7100BF074B1B78DBB203F00403002BF8D0054AFB79137000BF0C372D
:4067C000BD4680BC704700BF696400404964004080B483B000AF044B1B78FB71FB7918460C37BD4680BC70475964004080B582B000AF01E0124B1B78124B1B78DBB203F027
:406800002003002BF6D1FCF763FF0346FB710E4A0D4B1B78DBB243F00103DBB213700A4A094B1B78DBB223F00103DBB21370FB791846FCF751FF00BF0837BD4680BD00BF21
:4068400059640040686400409964004080B400AF094A094B1B78DBB243F00103DBB21370064A064B1B78DBB243F00103DBB2137000BFBD4680BC7047A2430040B2430040CA
:4068800080B400AF094A094B1B78DBB223F00103DBB21370064A064B1B78DBB223F00103DBB2137000BFBD4680BC7047A2430040B243004080B584B000AF03460A46FB80E4
:4068C00013467B7100F0B4F80346FB7300F0A4F80346BB81FA88BB899A4200F08880464B1B78DBB203F00103FB72FB7B002B20D1BB89002B02D0FB88002B1AD1BB89002B65
:406900000BD13E4AFB8813803D4A3D4B1B78DBB223F04003DBB2137069E0394A384B1B78DBB243F04003DBB21370344AFB8813805DE0FB7A002B33D0324B00221A70324B39
:4069400001221A70314B00221A70314A304B1B78DBB203F07F03DBB21370294B1B78DBB203F00803002B02D0FB88002B18D1294ABB891380234B07221A7000BF214B1B7858
:40698000DBB203F00103002BF8D11B4A1A4B1B78DBB223F00103DBB213701A4B00221A70154B1B78DBB203F00103002B13D0194AFB881380134A7B79002B01D0032300E0EC
:4069C0000123137000BF0F4B1B78DBB203F00103002BF8D10BE0094AFB8813800649064B1B78DAB2FB7A1343DBB20B70FFE700BF1037BD4680BD00BFA243004080400040D6
:406A000082400040014000401040004014400040084000400240004080B400AF034B1B889BB21846BD4680BC704700BF8040004080B400AF044B1B78DBB203F00703DBB295
:406A40001846BD4680BC70478240004080B485B000AF0346FB710A4B1B78DBB223F00103FB730749FB7903F00103DAB2FB7B1343DBB20B7000BF1437BD4680BC704700BF1F
:406A80002051004081F0004102E000BF83F0004330B54FEA41044FEA430594EA050F08BF90EA020F1FBF54EA000C55EA020C7FEA645C7FEA655C00F0E2804FEA5454D4EB9A
:406AC0005555B8BF6D420CDD2C4480EA020281EA030382EA000083EA010180EA020281EA0303362D88BF30BD11F0004F4FEA01314FF4801C4CEA113102D0404261EB410149
:406B000013F0004F4FEA03334CEA133302D0524263EB430394EA050F00F0A780A4F10104D5F1200E0DDB02FA0EFC22FA05F2801841F1000103FA0EF2801843FA05F35941B7
:406B40000EE0A5F120050EF1200E012A03FA0EFC28BF4CF0020C43FA05F3C01851EBE37101F0004507D54FF0000EDCF1000C7EEB00006EEB0101B1F5801F1BD3B1F5001F4B
:406B80000CD349085FEA30004FEA3C0C04F101044FEA445212F5800F80F09A80BCF1004F08BF5FEA500C50F1000041EB045141EA050130BD5FEA4C0C404141EB010111F425
:406BC000801FA4F10104E9D191F0000F04BF01460020B1FA81F308BF2033A3F10B03B3F120020CDA0C3208DD02F1140CC2F10C0201FA0CF021FA02F10CE002F11402D8BFD9
:406C0000C2F1200C01FA02F120FA0CFCDCBF41EA0C019040E41AA2BF01EB0451294330BD6FEA04041F3C1CDA0C340EDC04F11404C4F1200220FA04F001FA02F340EA0300DE
:406C400021FA04F345EA030130BDC4F10C04C4F1200220FA02F001FA04F340EA0300294630BD21FA04F0294630BD94F0000F83F4801306BF81F480110134013D4EE77FEADB
:406C8000645C18BF7FEA655C29D094EA050F08BF90EA020F05D054EA000C04BF1946104630BD91EA030F1EBF0021002030BD5FEA545C05D14000494128BF41F0004130BD3B
:406CC00014F580043CBF01F5801130BD01F0004545F0FE4141F470014FF0000030BD7FEA645C1ABF194610467FEA655C1CBF0B46024650EA013406BF52EA033591EA030F92
:406D000041F4002130BD00BF90F0000F04BF0021704730B54FF4806404F132044FF000054FF0000150E700BF90F0000F04BF0021704730B54FF4806404F1320410F00045D0
:406D400048BF40424FF000013EE700BF42004FEAE2014FEA31014FEA02701FBF12F07F4393F07F4F81F06051704792F0000F14BF93F07F4F704730B54FF4607401F0004588
:406D800021F0004120E700BF50EA010208BF704730B54FF000050AE050EA010208BF704730B511F0004502D5404261EB41014FF4806404F132045FEA915C3FF4DCAE4FF09C
:406DC00003025FEADC0C18BF03325FEADC0C18BF033202EBDC02C2F1200300FA03FC20FA02F001FA03FE40EA0E0021FA02F11444C1E600BF70B54FF0FF0C4CF4E06C1CEA6D
:406E000011541DBF1CEA135594EA0C0F95EA0C0F00F0DEF82C4481EA030621EA4C5123EA4C5350EA013518BF52EA033541F4801143F4801338D0A0FB02CE4FF00005E1FB94
:406E400002E506F00042E0FB03E54FF00006E1FB03569CF0000F18BF4EF0010EA4F1FF04B6F5007F64F5407404D25FEA4E0E6D4146EB060642EAC62141EA55514FEAC520C0
:406E800040EA5E504FEACE2EB4F1FD0C88BFBCF5E06F1ED8BEF1004F08BF5FEA500E50F1000041EB045170BD06F0004646EA010140EA020081EA0301B4EB5C04C2BFD4EB37
:406EC0000C0541EA045170BD41F480114FF0000E013C00F3AB8014F1360FDEBF002001F0004170BDC4F10004203C35DA0C341BDC04F11404C4F1200500FA05F320FA04F0BE
:406F000001FA05F240EA020001F0004221F0004110EBD37021FA04F642EB06015EEA430E08BF20EAD37070BDC4F10C04C4F1200500FA04F320FA05F001FA04F240EA020091
:406F400001F0004110EBD37041F100015EEA430E08BF20EAD37070BDC4F1200500FA05F24EEA020E20FA04F301FA05F243EA020321FA04F001F0004121FA04F220EA0200EE
:406F800000EBD3705EEA430E08BF20EAD37070BD94F0000F0FD101F00046400041EB010111F4801F08BF013CF7D041EA060195F0000F18BF704703F00046520043EB03032F
:406FC00013F4801F08BF013DF7D043EA0603704794EA0C0F0CEA135518BF95EA0C0F0CD050EA410618BF52EA4306D1D181EA030101F000414FF0000070BD50EA410606BF1C
:407000001046194652EA430619D094EA0C0F02D150EA013613D195EA0C0F05D152EA03361CBF104619460AD181EA030101F0004141F0FE4141F470014FF0000070BD41F0C8
:40704000FE4141F4780170BD70B54FF0FF0C4CF4E06C1CEA11541DBF1CEA135594EA0C0F95EA0C0F00F0A7F8A4EB050481EA030E52EA03354FEA013100F088804FEA03332A
:407080004FF0805545EA131343EA12634FEA022245EA111545EA10654FEA00260EF000419D4208BF964244F1FD0404F5407402D25B084FEA3202B61A65EB03055B084FEA08
:4070C00032024FF480104FF4002CB6EB020E75EB030E22BFB61A754640EA0C005B084FEA3202B6EB020E75EB030E22BFB61A754640EA5C005B084FEA3202B6EB020E75EB91
:40710000030E22BFB61A754640EA9C005B084FEA3202B6EB020E75EB030E22BFB61A754640EADC0055EA060E18D04FEA051545EA16754FEA06164FEAC30343EA52734FEAE1
:40714000C2025FEA1C1CC0D111F4801F0BD141EA00014FF000004FF0004CB6E711F4801F04BF01430020B4F1FD0C88BFBCF5E06F3FF6AFAEB5EB030C04BFB6EB020C5FEA6A
:40718000500C50F1000041EB045170BD0EF0004E4EEA113114EB5C04C2BFD4EB0C0541EA045170BD41F480114FF0000E013C90E645EA060E8DE60CEA135594EA0C0F08BF27
:4071C00095EA0C0F3FF43BAF94EA0C0F0AD150EA01347FF434AF95EA0C0F7FF425AF104619462CE795EA0C0F06D152EA03353FF4FDAE1046194622E750EA410618BF52EAE1
:4072000043067FF4C5AE50EA41047FF40DAF52EA43057FF4EBAE12E74FF0FF3C06E000BF4FF0010C02E000BF4FF0010C4DF804CD4FEA410C7FEA6C5C4FEA430C18BF7FEAFB
