:400000000080002011000000951A0000951A000080B500AF024A034B1B68136001F068FDBC760040FA46004010B5054C237833B9044B13B10448AFF300800123237010BD53
:40004000D881FF1F00000000709F0000084B10B51BB108480849AFF300800848036803B910BD074B002BFBD0BDE81040184700BF00000000709F0000DC81FF1F0881FF1F83
:400080000000000080B500AF012002F0D3FA80BD80B500AF13494FF00002134BC1E9002312494FF00002124BC1E9002311494FF00002114BC1E90023002003F09DF8002041
:4000C00003F07CF8012003F05BF8002002F01CF9002003F019F8012003F016F8012003F031F880BD28B3FF1F00E0854038B3FF1F000059C09892FF1F0000244000000000DF
:400100002DE9B04390B000AFC7E90201C7E90023D7E902231046194606F0DEFE02460B46C7E902239A4BD3E90023C7E90C23994BD3E90023C7E90A23974BD3E90023C7E9B3
:400140000823012002F0E0FFD7E900014FF00002924B07F0DBFA0346002B03D0002002F0B7F802E0012002F0B3F80023FB63F8E0F86B06F0FDFF04460D46D7E902014FF0C2
:4001800000024FF0804307F083F902460B462046294607F0C5FA0346002B67D0D7E90201D7E9082307F074F902460B464FF000007B4907F06DF902460B4614461D46F86B35
:4001C00006F0D6FF80468946D7E90201D7E90A2307F05EF902460B464046494606F07AFE02460B462046294607F028F802460B461046194605F034FC02460B46104619463F
:400200004FF00002654B06F067FE02460B464FF00000624907F03CF902460B46C7E9062302F046F80346002B0CBF01230023DBB2184602F01FF8D7E90C01D7E9062306F0FB
:40024000FDFF02460B4650A1D1E9000107F020F902460B46C7E90423D7E9040107F0B0FA03469BB2184601F04FFF77E0D7E90201D7E9082307F00CF902460B464FF000004B
:40028000474907F005F902460B4614461D46F86B06F06EFF02460B4610461946D7E9022306F018FE02460B4690469946D7E90201D7E90A2307F0ECF802460B4640464946D7
:4002C00006F00AFE02460B462046294606F0B6FF02460B461046194605F0C2FB02460B46104619464FF000022C4B06F0F5FD02460B464FF00000294907F0CAF802460B465D
:400300004FF00000254906F0E5FD02460B46C7E9062301F0CDFF0346002B0CBF01230023DBB2184601F0A6FFD7E90C01D7E9062306F084FF02460B4613A1D1E9000107F0D4
:40034000A7F802460B46C7E90423D7E9040107F037FA03469BB2184601F0D6FEFB6B0133FB63F86B06F004FF02460B4610461946D7E9022307F0D4F90346002B7FF4F8AEF0
:400380004037BD46BDE8B0830000000080842E4128B3FF1F38B3FF1F9892FF1F0000F03F0000F0BFAFF3008080B588B000AFC7E90201C7E90023D7E902231046194606F0FC
:4003C0008BFD02460B46C7E90223012002F09CFED7E900014FF00002214B07F097F90346002B03D0002001F073FF02E0012001F06FFF0023FB611BE001F05AFF0346002B01
:400400000CBF01230023DBB2184601F033FF12A3D3E90023C7E90423D7E9040107F0D0F903469BB2184601F06FFEFB690133FB61F86906F09DFE02460B4610461946D7E966
:40044000022307F06DF90346002BD5D12037BD4680BD00BFAFF300800000000000DBDA400000F03FAFF3008080B500AF0423184606F07EFE02460B46104619464FF00002B8
:40048000014BFFF791FF80BD0000F0BF80B500AF0423184606F06CFE02460B46104619464FF00002014BFFF77FFF80BD0000F03F80B500AF4FF44873184606F059FE024625
:4004C0000B46104619464FF00002024BFFF718FE80BD00BF0000F0BF80B500AF4FF44873184606F045FE02460B46104619464FF00002024BFFF704FE80BD00BF0000F03F39
:4005000080B500AF02F0B2F84FF47A7001F0DAFD064802F0E5F9FF2002F086F9FF2002F083F9FF2002F080F980BD00BF989F000080B588B000AF78600D4802F0D1F97A6867
:4005400007F10C03104619460A2207F070FC07F10C03184602F0C4F9FF2002F065F9FF2002F062F9FF2002F05FF92037BD4680BD0CA0000080B500AF064802F0B1F9FF20A8
:4005800002F052F9FF2002F04FF9FF2002F04CF980BD00BF18A0000080B588B000AF78600D4802F09DF97A6807F10C03104619460A2207F03CFC07F10C03184602F090F9F1
:4005C000FF2002F031F9FF2002F02EF9FF2002F02BF92037BD4680BD28A0000080B582B000AF154B5B78DBB21A46134B9B78DBB21B021A4413469B0013445B007B600F486D
:4006000002F06EF978680E490A2207F010FC0C4802F066F9FF2002F007F9FF2002F004F9FF2002F001F9FF2002F0FEF87B6818460837BD4680BD00BFE092FF1FC09F0000B7
:40064000A492FF1F00000000B0B588B000AF78603960786806F09EFD02460B46104619464FF000024E4B06F035FC02460B4614461D464C4B1B68184606F07AFD02460B46D5
:40068000104619464FF00002454B06F023FC02460B462046294606F0FBFE02460B46104619463DA3D3E9002306F0C8FD02460B46104619464FF000023B4B06F00DFC02461E
:4006C0000B461046194607F09BF803467B60374B1B68184607F09EF903463868194607F0A1FA03464FF07E50194607F0DDF8034618462F4907F0E2F9034618462D4907F0F5
:40070000D5F803463B602C4802F0EAF8786807F025FB024607F10C03104619460A2207F086FB07F10C03184602F0DAF82C2002F07BF8386807F012FB024607F10C031046FE
:4007400019460A2207F073FB07F10C03184602F0C7F82C2002F068F807F10C03032019460A2207F064FB07F10C03184602F0B8F82C2002F059F8114802F0B2F8FF2002F02E
:4007800053F8FF2002F050F8FF2002F04DF82037BD46B0BDAFF300800000000000C077400000F03FF481FF1F00805140F881FF1F00003443000070423CA0000044A000008C
:4007C00080B588B000AF78603960786806F0E2FC02460B46104619464FF000024A4B06F057FE02460B461046194645A3D3E9002306F024FD02460B46104619464FF000028E
:40080000424B06F069FB02460B461046194606F0F7FF03467B60386806F0BCFC02460B46104619464FF00002394B06F031FE02460B464FF00000374906F04CFB02460B46BF
:40084000104619464FF00002334B06F0F7FC02460B46104619464FF00002304B06F03CFB02460B461046194606F0CAFF03463B602B4802F035F8786807F070FA024607F1E0
:400880000C03104619460A2207F0D1FA07F10C03184602F025F82C2001F0C6FF386807F05DFA024607F10C03104619460A2207F0BEFA07F10C03184602F012F82C2001F0A5
:4008C000B3FF07F10C03032019460A2207F0AFFA07F10C03184602F003F82C2001F0A4FF104801F0FDFFFF2001F09EFFFF2001F09BFFFF2001F098FF2037BD4680BD00BF26
:400900000000000000C0774000003E4000805140000059400000F03F0080664000004E403CA0000048A0000080B58AB000AFF860B9607A60F86806F02DFC02460B4610469A
:40094000194653A3D3E9002306F0A2FD02460B46104619464FF000024F4B06F06FFC02460B461046194606F04BFF0346FB60B86806F010FC02460B461046194644A3D3E9DF
:40098000002306F085FD02460B46104619464FF00002414B06F052FC02460B461046194606F02EFF0346BB60786806F0F3FB02460B461046194636A3D3E9002306F068FD43
:4009C00002460B46104619464FF00002324B06F035FC02460B461046194606F011FF03467B602E4801F07CFFF86807F0B7F9024607F11403104619460A2207F018FA07F12A
:400A00001403184601F06CFFFF2001F00DFFFF2001F00AFFFF2001F007FF214801F060FFB86807F09BF9024607F11403104619460A2207F0FCF907F11403184601F050FF65
:400A4000FF2001F0F1FEFF2001F0EEFEFF2001F0EBFE144801F044FF786807F07FF9024607F11403104619460A2207F0E0F907F11403184601F034FFFF2001F0D5FEFF2008
:400A800001F0D2FEFF2001F0CFFE2837BD4680BD0000000000FEAF400080664050A000005CA0000068A0000080B582B000AF01F05FFE0346FB704E4B1B78DBB2002B77D1AE
:400AC000FB78482B02D14B4B00221A70FB78532B02D1484B01221A70FB784D2B38D1454B02221A70444B1B78DBB2002B28D1FFF7DFFC414B01221A70404B00221A60404B36
:400B000000221A603F4B00221A603F4B00221A6000237B600CE03D4A7B68002142F823103B4A7B68002142F823107B6801337B607B68B3F57A7FEEDB364B00221A7007E0A2
:400B40002D4B1B78DBB2012B02D12B4B00221A70FB78412B02D1274B03221A70FB78452B02D1244B04221A70FB784C2B02D1214B02221A70FB78582B05D11E4B00221A705C
:400B80001B4B01221A70FB782B2B01D1FFF77EFCFB782D2B01D1FFF767FCFB78212B01D1FFF79AFCFB78552B02D11B4B01221A600F4B1B78DBB2012B16D1184B1B785A1C42
:400BC000D1B2164A11701946154AFB785354134B1B78042B08D1114B00221A70044B00221A70104B01221A700837BD4680BD00BF2982FF1FFC81FF1F2182FF1F0082FF1FB2
:400C00000482FF1F3C82FF1FF881FF1F00A3FF1F6093FF1F2882FF1F3882FF1F4C82FF1FE092FF1F2A82FF1F80B400AF1C4B1B6801331B4A13601B4B1B680133194A136019
:400C4000194B1B680133184A1360154B1B68642B0AD1134B00221A60144B1B78DBB2002B02D1134B01221A700E4B1B68B3F57A7F05D10C4B00221A600E4B01221A700A4B14
:400C80001B6841F28832934205D1074B00221A60094B01221A70BD465DF8047B704700BF1482FF1F1882FF1F1C82FF1F2882FF1F1082FF1F1182FF1F1282FF1FB0B588B03D
:400CC00002AF786039604FF461730A2202FB03F27B689A4226DB786806F09CFE03461846294906F09FFF0346184606F053FA04460D4607F10C023B680093104623492246D3
:400D00002B4607F03DFD224B1C6807F10C03184607F05AFD024607F10C032046194603F063F92EE00A227B6893FBF2F102FB01F29B1A002B25D1786806F06CFE03461846CF
:400D4000114906F06FFF0346184606F023FA04460D4607F10C023B68009310460B4922462B4607F00DFD0A4B1C6807F10C03184607F02AFD024607F10C032046194603F03B
:400D800033F91837BD46B0BD0000204178A0000020B3FF1F80B500AF054B1B68184602F04BFF0346002B02D1C82001F08BF980BD20B3FF1F80B500AF0E2002F01DFB02207D
:400DC00001F080F90C2002F017FB80BD80B500AF0C2002F011FB80BD80B500AF162002F00BFB80BD2DE9B043A2B002AF62B6012001F012FA02F05EFA02F0FCF802F0CAFA5A
:400E0000FFF7D8FFFFF7E8FFFFF7E0FFAB4802F0C7FAAB4B00221A6010E0A94B1B68A94A002142F82310A64B1B68A74A002142F82310A34B1B680133A14A1360A04B1B68AF
:400E4000B3F57A7FE9DB9E4B00221A6017E09C4B1C689B4B1B680133184606F0DBFD02469A4B43F82420964B1B68994A4FF0000142F82310924B1B680133914A1360904B00
:400E80001B681D2BE3DD01F0AFFF02F079FEFFF737FB904801F002FE8F4801F001FF01F0BDFE01F04BFA01F01DFB8C4B1B78DBB2184601F043FF8A4B1B78DBB2184601F02F
:400EC0005BFF012001F076FF864801F009FD4FF4967001F0F7F8002001F09EF901230A2202FB03F3804A13604FF07D5318467F4906F0E4FD03461C460A23184606F08AFD3C
:400F000003462046194606F0D9FD0346184606F025FF0246764B1A600A23184606F07AFD02464FF07C531046194606F0C7FD0346184606F013FF02466E4B1A6001230A225C
:400F400002FB03F36C4A1360FFF7A2F80023FB671EE001F07FF90346002B0CBF01230023DBB2184601F058F9322001F0ABF801F071F90346002B0CBF01230023DBB2184674
:400F800001F04AF9322001F09DF8FB6F0133FB67FB6F092BDDDD002001F0B4FA01F0D2FA03461A46554B1A604C4B1B78DBB2184601F0C4FE4A4B1B78DBB2184601F0DCFEE8
:400FC0004F4B1B78DBB2184601F0F4FE4D4B1B78DBB2002B00F049824A4B00221A70484B1B78DBB2012B40F0408201F033F90346002B0CBF01230023DBB2184601F00CF9C2
:40100000002001F07FFA01F09DFA03461A463B4B1A603D4B1B68002B2FD13C4B3B673B6F1B78DBB287F85F3097F85F301A46384B1B6801333748384907F0A2FB374801F002
:401040004FFC344801F04CFC354801F049FCFF2001F0EAFBFF2001F0E7FBFF2001F0E4FB2C48304902F0AEFE02462F4B1A60142001F028F8244B01221A602C4B1A681F4B6C
:401080001B6810461946FFF719FE284B1A68184B1B689A4202DB194B00221A60174B1B685A2B49DD214B1B680133204A1360204B00221A601F4B00221A60C0E184A00000F5
:4010C0004082FF1F00A3FF1F6093FF1FA8B2FF1FE892FF1FA90A0000290C00002982FF1F2A82FF1F989F0000DC92FF1F00006145A4B2FF1F30B3FF1FA092FF1FE492FF1FF1
:401100002182FF1F1082FF1F4882FF1FB3A100000482FF1FB892FF1F90A000009CA00000F89F0000A8A0000020B3FF1F0082FF1F0C82FF1F0882FF1F9A4B1A689A4B1B68F7
:401140009A42B4BF01230023DAB2984B1B68002B0CBF01230023DBB21340DBB2002B0BD0904B1B6801338F4A1360904B00221A608F4B00221A6062E18E4B1B68592BD4BFB6
:4011800001230023DAB2894B1B68002B0CBF01230023DBB21340DBB21946824B1A68824B1B689A42ACBF01230023DBB20B40002B1BD07C4B1B6801337A4A13607C4B1B68E2
:4011C00001337B4A13607A4B1A687B4B1B689A4240F03581754B01221A60724B1A68764B1B68D31A6F4A136029E1724B1B68592BD4BF01230023DAB26C4B1B68012B0CBFD3
:4012000001230023DBB21340DBB2002B00F01781664B00221A60664B00221A60FFF7BAFD664B00221A60664B1B68002B4CD1644B01221A60634B00221A60634B1B68624AC4
:4012400012680132614941F823205F4B1B68554A12685F4941F823205E4B1A68514B1B689A4214DA4F4B1B685A4A13605A4B1B78DBB2022B0BD1594801F032FBFF2001F04C
:40128000D3FAFF2001F0D0FAFF2001F0CDFA544801F026FBFF2001F0C7FAFF2001F0C4FAFF2001F0C1FA4F4B00221A604E4B00221A60454B1B680133434A1360394B002240
:4012C0001A604A4B01221A703F4B1A68484B1B689A4240F09F80474B00221A70444B1B68394A13602F4B00221A60FFF7F5F83A4B00221A70404801F0F3FAFF2001F094FA71
:40130000FF2001F091FAFF2001F08EFA3B4801F0E7FAFF2001F088FAFF2001F085FAFF2001F082FA364801F0DBFAFF2001F07CFAFF2001F079FAFF2001F076FA314801F041
:40134000CFFAFF2001F070FAFF2001F06DFAFF2001F06AFA2C4801F0C3FAFF2001F064FAFF2001F061FAFF2001F05EFA1D4B00221A601D4B00221A60174B04221A70234B54
:4013800001221A60642000F09DFE214801F0A8FAFF2001F049FAFF2001F046FAFF2001F043FA4CE00082FF1FDC92FF1F0C82FF1F0882FF1FE492FF1F30B3FF1F4882FF1F6C
:4013C0002482FF1F3C82FF1F0482FF1F00A3FF1F6093FF1FF881FF1FFC81FF1FACA00000BCA000002C82FF1F3082FF1F2882FF1FF481FF1F2182FF1F989F0000CCA00000A2
:40140000F0A0000004A1000010A100003882FF1F20A10000974B01221A70FFF75DF840F6C413184600F04EFEFFF742F8914B00221A70914B00221A60904B00221A6090482D
:4014400001F04EFA8F4B1B6818468F490A2206F0EEFC8D4801F044FAFF2001F0E5F9FF2001F0E2F9FF2001F0DFF9884B1B78DBB2042B00F2068301A252F823F0911400008D
:40148000ED14000009150000F51500003D1800007F4B1B78DBB2012B15D17D4B00221A707C4B00221A70FFF799F802467A4B1A60794B1B68794A82FB03121211DB17D31A1F
:4014C0000133774A1360774B1B68642202FB03F2714B1B6892FBF3F31846FFF729F8724B00221A60714B00221A60CBE2FEF7CAFD644B1B68184606F08DFA03466C486D49C6
:401500001A46FFF711FABDE26B4B1B78DBB2012B6CD1654B1B68002B68D1684801F0E0F9674B1B68184658490A2206F080FC564801F0D6F9FF2001F077F9FF2001F074F92E
:40154000FF2001F071F95F4801F0CAF9524B1B6818464D490A2206F06AFC4B4801F0C0F9FF2001F061F9FF2001F05EF9FF2001F05BF94D4B01221A60534B00221A6023E016
:40158000514B1B68514A52F82330002B15DD4E4B1B684E4A52F82330184606F03BFA0446494B1B684A4A52F82330184606F032FA034620461946FFF747F8434B1A68384BF5
:4015C0001B681344404A13603F4B1A68354B1B689A42D5DD334B1B68642202FB03F22E4B1B6892FBF3F31846FEF7A2FF2F4B00221A6047E2304B1B78DBB2012B40F01A81CA
:401600002A4B1B68002B40F01581324801F068F92B4B1B6818461C490A2206F008FC1A4801F05EF9FF2001F0FFF8FF2001F0FCF8FF2001F0F9F8204B00221A701B4B0122BD
:401640001A601F4B1B68244A82FB03121A441211DB17D31A214A13601B4B00221A60B8E00023BB674FF00003FB66034B00221A606DE000BF2882FF1F4082FF1F2482FF1FE1
:40168000FC9F0000E492FF1FA492FF1FFC81FF1F2A82FF1F2982FF1FF481FF1F3FC525430C81FF1F0482FF1F2C82FF1F3082FF1F0000B44200806D451182FF1F2CA10000E9
:4016C000F881FF1F40A100004482FF1F00A3FF1F6093FF1F54A1000089888888D892FF1FB24B1B68B24A52F82330184605F040FD04460D46AF4B1B680133184605F038FD9F
:4017000080468946AC4B1B68184605F031FD02460B464046494605F091FD02460B46104619464FF00002A54B05F0D6FB02460B462046294605F0FEFF0346002B02D0BB6FD3
:401740000133BB67994B1B680133984A1360974B1A689B4B1B689A42C2DBB86F05F008FD04460D46964B1B68184605F001FD02460B462046294605F08BFE02460B4610468F
:40178000194606F03DF80346FB668A4B1C68F86E05F000FD02460B464FF00000874905F099FB02460B46104619464FF00002854B05F044FD02460B461046194606F020F822
:4017C0000246814B43F824207A4B1B680133794A1360784B1B681D2B7FF742AF4FF000007A49FEF7EDFF734B00221A6012E0714B1B68774A52F823106E4B1B68724A52F8C1
:40180000233008461946FEF7DBFF6A4B1B680133684A1360674B1B681D2BE8DD684B1B68642202FB03F26B4B1B6892FBF3F31846FEF77EFE684B00221A6023E1664B0022B7
:401840001A60664B00221A60654B3B673B6F1B78DBB287F85F30634B1B68012B40F0D480614B1B68002B40F0CF805F4B01221A6097F85F301A4607F1400318465B4906F0C5
:401880007FFF07F140031846594902F09BFAB866642000F017FC574B07F120041D460FCD0FC495E80F0007C4237007F12003184606F08AFF024607F12003B86E194602F0B7
:4018C00093FB0346002B00D1DCE000237B6700237B6741E0364A7B6F52F82330184605F047FC02460B46104619464FF00002424B05F0CEFD02460B461046194605F080FFF3
:4019000003467B663D4A7B6F52F82340786E05F041FC02460B463946CDE9002308463849224606F02DFF3B46184606F04DFF02463B46B86E194602F057FB0346002B10D0F6
:40194000244B1B68013B7A6F92FBF3F31846FEF723FE7B6F01337B671E4B1B687A6F9A42B8DBB86E02F068F90346002B1CD1C82000F0A8FB1B4B00221A60224B01221A60C4
:40198000194B00221A60FEF7F5FD97F85F300133DBB287F85F3007F15F0318461049012201F028FA38662FE000BF6BE04082FF1F6093FF1F4482FF1FD892FF1F0000F03FC9
:4019C0000482FF1F00005940E892FF1F0000C842A8B2FF1FF481FF1F2C82FF1F3082FF1FB3A100003882FF1F3482FF1F68A10000A8A0000090A100000000244000A3FF1FBA
:401A000074A100003C82FF1F1F4B1B68002B16D11E4800F065FF97F85F3018461C490A2206F005FA1A4800F05BFFFF2000F0FCFEFF2000F0F9FEFF2000F0F6FE20E0124BDF
:401A40001B68012B1CD16420FEF7A6FDFEF792FD0E4800F045FF97F85F30013B18460C490A2206F0E4F90A4800F03AFFFF2000F0DBFEFF2000F0D8FEFF2000F0D5FE01E089
:401A800000E000BFFFF787BA3C82FF1F80A10000A492FF1F80B400AFFEE700BF80B584B000AF7860104B1A687B6813441A460F4BD31AB3F5007F09DC0B4B1B68FB600A4B35
:401AC0001A687B681344084A136007E006F06CF902460C2313604FF0FF33FB60FB6818461037BD4680BD00BF1081FF1F08B4FF1F80B586B000AF224B7B61224B3B61204B06
:401B00007B6135E03B691B68FB603B695B68BB603B699B683B6000237B600CE0FB681A68BB681A60BB680433BB60FB680433FB607B6804337B607A683B689A42EED13B69DF
:401B4000DB683B6000237B6008E0BB6800221A60BB680433BB607B6804337B607A683B689A42F2D13B6910333B617B69013B7B617B69002BC6D106F01DF9FFF733F9FEE71C
:401B8000010000000CA5000080B582B000AF174B174A1A60174A174B1B6843F40073136000237B600FE07B68032B04D8124A7B6852F8233000E0114B11497A6841F8223004
:401BC0007B6801337B607B682F2BECD90D4B1B78DAB20D4B1A700D4B094A1A6000F092F90B4B00221A600837BD4680BD0CED00E00004FA0514ED00E000000000951A00001B
:401C00000080FF1FBC7600400481FF1F08ED00E00081FF1F80B582B000AF78603960786800213A6806F010F90837BD4680BD00BF80B584B000AFF860B9607A60F868B96832
:401C40007A6806F0F6F81037BD4680BD80B483B000AF0346FB71FEE780B487B000AF7860396000233B6100237B6127E07B699B007A6813441B68BB60BB68FB73BB6823F0FA
:401C8000FF03BB6014E03B695B003A6813441B781A46BB68134419463B695B003A6813445B780B703B6901333B61FB7B013BFB73FB7B002BE7D17B6901337B617B69232BF6
:401CC000D4D91C37BD465DF8047B704780B582B000AF3D4B00221A803C4B58221A703C4B00221A803B4B19221A703B4B05221A803A4B18221A703A4B4FF450721A80394BAB
:401D000018221A70384B4FF450721A80374B18221A70374B06221A70364B52221A70364B364A1278D2B21A70354B40F618021A80344B41F251221A800023FB7019237B605D
:401D400014E0FB785B00DAB22F4B1B78DBB203F00103DBB21343DBB203F00303FB704FF4F07001F039FB7B68013B7B607B68002B02D0FB78032BE4D17B68002B02D10320B4
:401D8000FFF764FF214B4FF480721A801F4B07221A701F4B00221A701E4B48221A701B4B00221A701C4B00221A701C4B02221A701B4A1B4B1B78DBB243F01F03DBB2137075
:401DC0000837BD4680BD00BF80400040824000408440004086400040884000408A4000408C4000408E40004090400040924000400043004000420040A14600400F010049C6
:401E00002242004020420040254200400440004006400040084000400940004001400040A243004080B582B000AF264B1B78FB71254B1B78BB71254B1B787B71244AFB796E
:401E400003F00703DBB21370224AFB791B09DBB213701D4ABB7943F00303DBB213701B4A7B7943F00303DBB213701B4B10221A701A4B80221A701A4B10221A70194B402221
:401E80001A70194B04221A70184B20221A70184B40221A70174B04221A70174B20221A70164B20221A700A2000F02EF9074A7B791370054ABB791370114B44221A700837FF
:401EC000BD4680BDCF010049F8460040F94600406E5800406F5800400D51004009590040005A0040045A0040175A0040185A0040005B0040035B0040285B00402B5B0040E2
:401F00007658004080B586B000AF72B6504B61221A70FFF7DBFE4E4B01221A704D4A4D4B1B78DBB243F00403DBB213700023FB7513E0FA7D13465B0013445B00464A1344B1
:401F40003B613B691A683B699B889BB210461946FFF760FEFB7D0133FB75FB7D072BE8D90023FB751CE0FA7D13469B0013445B003A4A1344FB60FB681B68BB60FB685B68F2
:401F80007B60FB681A7A5B7A1B0213437B807B88B86879681A46FFF74BFEFB7D0133FB75FB7D002BDFD04FF090402D49FFF754FE2C4A2C4B1B78DBB243F00203DBB21370D9
:401FC000294A294B1B78DBB243F00203DBB21370264A264B1B78DBB243F04003DBB21370234A234B1B78DBB243F01003DBB21370204821490822FFF71BFE204820490A22B2
:40200000FFF716FE1F4820490A22FFF711FE1F481F490A22FFF70CFE1E481F490822FFF707FE1E481E490A22FFF702FE1D4A1D4B1B78DBB243F00803DBB21370FFF7F2FE95
:4020400019480A490E22FFF7F3FD1837BD4680BD00480040E8460040B4A10000E4A10000900000480350014013500140A0430040C24300400251004070090048C05100401A
:4020800078090048F0510040840900481051004090090048225100409C09004830510040A409004822430040B043004080B483B000AF0346FB7101BE0C37BD465DF8047BAD
:4020C000704700BF80B582B000AF786008E00C4B1B68184601F080F97B68A3F500437B607B68B3F5004FF2D8064B1B687A6802FB03F3184601F070F90837BD4680BD00BF16
:402100002081FF1F1881FF1F80B582B000AF0346FB80FB88044A127802FB03F3184601F05BF90837BD4680BD1C81FF1F80B582B000AF01F059F90346FB7100BF00BF00BFD9
:4021400000BF00BF00BF00BF00BF00BF00BF00BF00BF00BF00BF00BF00BF094A084B1B889BB243F004039BB21380054B1B88BFF36F8FFB79184601F03BF90837BD4680BDE3
:402180000048004080B584B000AF03463960FB710F4B1B68FB60FB791F2B02D90020FFF785FFFB7903F01F0310339B00FA6813441B68BB60FB7903F01F0310339B00FA683F
:4021C00013443A681A60BB6818461037BD4680BD08ED00E080B582B000AF03460A46FB711346BB71BB79072B02D90020FFF75EFFFB791F2B02D90020FFF758FFFB7903F0CE
:402200001F0303F1604303F56443BA795201D2B21A700837BD4680BD80B485B000AF0346FB710B4B1B78DBB223F01003FB730849FB791B01DBB203F01003DAB2FB7B134390
:40224000DBB20B701437BD465DF8047B704700BF2051004080B400AF054B1B78DBB203F010031B09DBB21846BD465DF8047B70472151004080B485B000AF0346FB710B4B42
:402280001B78DBB223F00203FB730849FB795B00DBB203F00203DAB2FB7B1343DBB20B701437BD465DF8047B704700BF3051004080B400AF054B1B78DBB203F002035B086C
:4022C000DBB21846BD465DF8047B70473151004080B485B000AF0346FB710A4B1B78DBB223F00103FB730749FB7903F00103DAB2FB7B1343DBB20B701437BD465DF8047B9F
:40230000704700BF3051004080B485B000AF0346FB71094B1B78DBB203F07F03FB730649FB79DB01DAB2FB7B1343DBB20B701437BD465DF8047B70473051004080B500AFC5
:40234000054B1B78002B04D100F008F8024B01221A7000F025F880BD5082FF1F80B500AF102000F04DF902200721FFF733FF02200849FFF707FF084A074B1B78DBB243F034
:402380000603DBB213700C2000F084F8034B00221A8080BDF52500000959004044B3FF1F80B582B000AF01F01FF80346FB712E4A2D4B1B78DBB243F00203DBB213702B4AB4
:4023C0002A4B1B78DBB243F00203DBB21370284A274B1B78DBB243F00403DBB21370254A244B1B78DBB243F00403DBB21370224B1B78BB71BB7943F00203BB71BB7943F03F
:402400000103BB711C4ABB7913701C4B04221A701B4A1B4B1B78DBB223F04003DBB21370174A174B1B78DBB243F00303DBB21370144B08221A70144B02221A70134A134BE0
:402440001B78DBB243F00803DBB213700A20FFF75BFE0F4B04221A60FB79184600F0C8FF0837BD4680BD00BFAB430040BB430040A2430040B24300400B5900400E590040A3
:402480000D59004008590040164600402F5B004080E200E080B584B000AF0346FB71FB790A2B07D00C2B02D0082B06D008E0C423FB730BE08423FB7308E04423FB7305E0EF
:4024C000C423FB730020FFF7F1FD00BF044AFB7B1370FB79184600F04FF81037BD4680BD0A59004080B400AF054A054B1B78DBB243F00103DBB21370BD465DF8047B7047D3
:402500000859004080B584B000AF0346FB710C4B1B78DBB203F00103FB73FB7B012B02D0FB79002BF3D0FB7B012B04D10120FFF7EBFD034B1B78FB7B18461037BD4680BDC9
:402540000959004080B483B000AF094B1B88FB80084B1B889BB29BB2FA88D31A9BB29BB21BB218460C37BD465DF8047B704700BFA25B004046B3FF1F80B584B000AF034628
:40258000FB71FB790A2B08D00C2B02D0082B08D00BE04FF48053FB600DE04FF48063FB6009E04FF48073FB6005E00023FB600020FFF77CFD00BF0C4B00221A80FB6842F27B
:4025C000107202FB03F303F58063002B01DA03F2FF73DB121A46054B1A60054B00221A801037BD4680BD00BF48B3FF1F40B3FF1F46B3FF1F80B400AFBD465DF8047B704703
:4026000080B483B000AF0346FB71094B084A1278D2B2D1B2FA7922F00702D2B20A43D2B2D2B21A700C37BD465DF8047B704700BF8A40004080B485B000AF0346FB710A4BEB
:402640001B78DBB223F00103FB730749FB7903F00103DAB2FB7B1343DBB20B701437BD465DF8047B704700BFC051004080B500AF054B1B78002B04D100F008F8024B01228A
:402680001A7000F039F880BD5182FF1F80B500AF03201149FFF776FD03200721FFF79AFD0E4B00221A700E4B72221A700D4B20221A7004200C49FFF765FD04200721FFF7EC
:4026C00089FD0A4B06221A70094B47221A70094B02221A7080BD00BF212900005482FF1F896400408A650040F92900002C6400403C6400408F64004080B582B000AF00F063
:4027000073FE0346FB71154A144B1B78DBB243F02003DBB21370124A114B1B78DBB243F01003DBB213700F4B08221A600E4A0E4B1B78DBB243F01003DBB213700B4B102254
:402740001A60084B10221A6000F08EF9FB79184600F04EFE0837BD4680BD00BF996400409A65004000E100E09F64004080E200E080B483B000AF0023FB71234B08221A60A4
:40278000224B1B78BB71224B1B787B71214B1B78DBB2002B03D1BA797B799A4218D0BB791D4AD35CFB71BB790133BB71BB79132B01D90023BB71154ABB791370154B1B781D
:4027C000DBB2002B03D0134B00221A7012E011E0124B1B783B713B7903F02003002B09D00F4B1B78FB713B7903F01E03002B01D00023FB710B4B08221A60FB7918460C373C
:40280000BD465DF8047B704780E100E05582FF1F5682FF1F5782FF1F4CB3FF1F6A6500404965004000E100E080B485B000AF0346FB71254B1B78FB73244B1B78BB73FA7B29
:40284000BB7B9A4208D2FA7BBB7B013B9A420CBF01230023DBB207E0FA7BBB7BD31A132B0CBF01230023DBB2002BE2D1BA7BFB7B9A420AD1164B1B78DBB203F00403002BC8
:4028800003D1144AFB79137018E0FB7B132B01D90023FB73FB7B1049FA79CA54FB7B0133FB73094AFB7B1370094B1B78DBB203F00203002B02D0094B10221A601437BD465D
:4028C0005DF8047B704700BF5382FF1F5282FF1F6F6400404F64004060B3FF1F00E200E080B584B000AF78600023FB810B4B1B78002B10D009E0FB897A6813441B78184696
:40290000FFF792FFFB890133FB81FB897A6813441B78002BEFD11037BD4680BD5182FF1F80B483B000AF0023FB712B4B1B78BB71BB797B71BB7903F01E03002B0BD0BB79AD
:4029400003F01E03DAB2254B1B78DBB21343DBB2DAB2224B1A70BB7903F02003002B30D01F4B1B787B711F4B1B78DBB219461E4A7B7953540123FB71FB79002B21D01B4BF1
:402980001B78DBB2002B02D0194B01221A70154B1B78DBB20133DAB2124B1A70114B1B78DBB2132B02D90F4B00221A700D4B1B78DAB2104B1B78DBB29A4202D10B4B01220D
:4029C0001A70BB7903F02003002BAED10C37BD465DF8047B704700BF6A6500405482FF1F496500405682FF1F4CB3FF1F5782FF1F5882FF1F5582FF1F80B400AF17E0154BA7
:402A00001B78DBB2132B02D9124B00221A70124B104A1278D2B21146104A525CD2B21A700C4B1B78DBB20133DAB20A4B1A70094B1B78DAB20A4B1B789A4206D0094B1B7818
:402A4000DBB203F00403002BD9D0BD465DF8047B704700BF5282FF1F4F64004060B3FF1F5382FF1F6F64004080B400AF094A094B1B78DBB243F01003DBB21370064A064BF1
:402A80001B78DBB243F01003DBB21370BD465DF8047B7047A2430040B243004080B582B000AF786000F03CF8786800F009F8072000F018F800F028F80837BD4680BD00BF60
:402AC00080B485B000AF7860054B1B68FB60FB6840337A681A601437BD465DF8047B704708ED00E080B483B000AF0346FB71054AFB795B01DBB213700C37BD465DF8047BC4
:402B0000704700BF00E400E080B400AF034B01221A60BD465DF8047B704700BF00E100E080B400AF034B01221A60BD465DF8047B704700BF80E100E080B500AF214A214B68
:402B40001B78DBB203F00103DBB213701E4A1E4B1B78DBB223F00303DBB213701B4A1B4B1B78DBB223F03003DBB21370174A174B1B78DBB243F03003DBB21370134A134BBF
:402B80001B78DBB223F00F03DBB213700F4A0F4B1B78DBB243F00F03DBB213700C4A0C4B1B78DBB243F00103DBB2137045F6BF5000F054F845F6BF5000F062F8002000F05A
:402BC0003DF880BD004F0040024F00400B4F0040014F004080B400AF0D4A0D4B1B78DBB243F00103DBB213700A4A0A4B1B78DBB243F00103DBB21370074A074B1B78DBB24D
:402C000043F00103DBB21370BD465DF8047B7047A3430040B3430040004F004080B500AF054B1B78002B04D1FFF786FF024B01221A70FFF7CFFF80BD5A82FF1F80B483B036
:402C400000AF0346FB71044AFB7913700C37BD465DF8047B704700BF034F004080B485B000AF0346FB80FB88FB81044AFB8913801437BD465DF8047B704700BF044F00401E
:402C800080B483B000AF0346FB80044AFB8813800C37BD465DF8047B704700BF064F004080B582B000AF786000F03CF8786800F009F8072000F018F800F028F80837BD4655
:402CC00080BD00BF80B485B000AF7860054B1B68FB60FB6844337A681A601437BD465DF8047B704708ED00E080B483B000AF0346FB71054AFB795B01DBB213700C37BD4696
:402D00005DF8047B704700BF01E400E080B400AF034B02221A60BD465DF8047B704700BF00E100E080B400AF034B02221A60BD465DF8047B704700BF80E100E080B485B0E1
:402D400000AF0346FB710B4B1B78DBB223F02003FB730849FB795B01DBB203F02003DAB2FB7B1343DBB20B701437BD465DF8047B704700BF2051004080B485B000AF034607
:402D8000FB710B4B1B78DBB223F04003FB730849FB799B01DBB203F04003DAB2FB7B1343DBB20B701437BD465DF8047B704700BF2051004080B485B000AF0346FB71094B7F
:402DC0001B78DBB203F07F03FB730649FB79DB01DAB2FB7B1343DBB20B701437BD465DF8047B70472051004080B400AFBD465DF8047B704780B5ADF5147D00AF07F10C03B8
:402E0000186007F1080319603B1D1A6007F108031B68C7F8343207F108031A683B1D1B681344B3F5802F80F08C8000F0B3FB07F11403184600F0C0FBD7F834321B0CC7F8C6
:402E40004C32D7F834321B0ADBB2C7F84832D7F84C321A02D7F8483213441B02C7F838320023C7F840320023C7F83C325CE00023C7F8443234E0D7F83822D7F834329A42DF
:402E800019D33B1DD7F840221B689A4213D207F10C031A68D7F840321344197807F59A72D7F8443213440A461A70D7F840320133C7F840320AE0D7F838321B78D9B207F546
:402EC0009A72D7F8443213440A461A70D7F838320133C7F83832D7F844320133C7F84432D7F84432FF2BC6D9D7F84C32D9B2D7F848329AB207F59A73084611461A4600F093
:402F000085FBC7F83C02D7F848320133C7F84832D7F84832FF2B07D9D7F84C320133C7F84C320023C7F848323B1DD7F840221B689A4203D2D7F83C32002B98D0FFF7F6F880
:402F400002E00123C7F83C32D7F83C32002B07D0D7F83C32012B03D04FF0FF33C7F83C32D7F83C32184607F51477BD4680BD00BF80B500AF0A4B0C221A700A4A094B1B78B8
:402F8000DBB243F02003DBB21370074B80221A70012000F05BF8012000F03CF880BD00BF04580040055800400658004080B400AF0D4A0D4B1B78DBB243F00203DBB213702A
:402FC0000A4A0A4B1B78DBB243F00203DBB21370074A074B1B78DBB263F07F03DBB21370BD465DF8047B7047A9430040B94300407758004080B500AF054B1B78002B04D14C
:40300000FFF7B6FF024B01221A70FFF7CFFF80BD5B82FF1F80B485B000AF0346FB710A4B1B78DBB223F00303FB73FB7903F00303DAB2FB7B1343FB73034AFB7B1370143762
:40304000BD465DF8047B70470558004080B588B000AF0346FB71284A07F114031068516803C3127A1A70254A07F108031068516803C3127A1A70FB79082B39D8204A204BBA
:403080001B78DBB223F07F03DBB213701C481C4B1B78DAB2FB7907F120010B4413F80C1CFB7907F1200E734413F8183C9B00DBB203F00C03DBB20B43DBB21343DBB20370BA
:4030C000104A104B1B78DBB223F00C03DBB213700C490C4B1B78DAB2FB7907F12000034413F8183C1343DBB243F00C03DBB20B702037BD4680BD00BFF0A10000FCA100001B
:40310000065800400558004080B485B000AF0346FB710B4B1B78DBB223F00403FB730849FB799B00DBB203F00403DAB2FB7B1343DBB20B701437BD465DF8047B704700BFAA
:403140003051004080B485B000AF0346FB710B4B1B78DBB223F00803FB730849FB79DB00DBB203F00803DAB2FB7B1343DBB20B701437BD465DF8047B704700BF30510040DB
:4031800080B485B000AF0346FB710B4B1B78DBB223F01003FB730849FB791B01DBB203F01003DAB2FB7B1343DBB20B701437BD465DF8047B704700BF3051004080B485B0A2
:4031C00000AF0346FB710B4B1B78DBB223F02003FB730849FB795B01DBB203F02003DAB2FB7B1343DBB20B701437BD465DF8047B704700BF3051004080B485B000AF034673
:40320000FB710B4B1B78DBB223F04003FB730849FB799B01DBB203F04003DAB2FB7B1343DBB20B701437BD465DF8047B704700BF3051004080B500AF094B02221A70094BD1
:403240000C221A70084B01221A70052000F05EF8032000F07DF8032000F03CF880BD00BF00580040015800400258004080B400AF0D4A0D4B1B78DBB243F00103DBB213709C
:403280000A4A0A4B1B78DBB243F00103DBB21370074A074B1B78DBB263F07F03DBB21370BD465DF8047B7047A9430040B94300407758004080B500AF054B1B78002B04D18A
:4032C000034B01221A70FFF7B5FFFFF7CFFF80BD5C82FF1F80B485B000AF0346FB710A4B1B78DBB223F00303FB73FB7903F00303DAB2FB7B1343FB73034AFB7B137014379F
:40330000BD465DF8047B70470158004080B483B000AF0346FB71FB79072B11D80B4A0B4B1B78DBB223F07003DBB213700749074B1B78DAB2FB791B01DBB21343DBB20B706F
:403340000C37BD465DF8047B704700BF0258004080B483B000AF0346FB71FB79032B11D80B4A0B4B1B78DBB223F00C03DBB213700749074B1B78DAB2FB799B00DBB213431D
:40338000DBB20B700C37BD465DF8047B704700BF0258004080B400AFBD465DF8047B704780B584B000AF78600123FB737B681B78BB730BE0BB7B184600F01EF8FB7B7A6867
:4033C00013441B78BB73FB7B0133FB73BB7B002BF0D11037BD4680BD0230800803D000BF01380046FCD17047EFF3108072B6704780F31088704700BFFEB5494652465B4658
:403400000EB40746244909688A46244A12682448022103F047FD030020480068C018204903F040FD143883460121C9430C4601250026FFF7D9FF814651460B7823400B706F
:4034400058460130FFF7C8FF3800F04028400B78234003430B705846FFF7BEFF0136072EF2D9002001300138013001200B78234003430B7058460430FFF7AEFF4846FFF745
:40348000B7FF00BF00BF00BF0EBC894692469B46FEBD00BFAFF300802C81FF1F1481FF1F80250000AFF3008080B582B000AF00F077F94FF0FF337B6000F0A6FA0346002B20
:4034C00024D1012000F06EFA0346072B1BD11348022100F087F90346022B0DD100237B6002E00120FEF710FE0D4B1B78DBB203F00203002BF5D006E0094B1B78DBB203F004
:403500000203002BE3D000F0B3FA01E004237B607B6818460837BD4680BD00BF74B3FF1F2247004080B582B000AF00F039F900F06BFA0346002B23D100F0C2FA78607B685F
:40354000072B1AD102E00120FEF7DEFD104B1B78DBB203F00203002BF5D00D4B1B78DBB203F00203002B08D0094B1B78DBB29B08DBB2002B01D100237B6000F079FA01E0A2
:4035800004237B607B6818460837BD4680BD00BF2247004080B582B000AFFFF7C3FF78607B68002B02D1FFF77FFF78607B6818460837BD4680BD00BF80B584B000AF78609F
:4035C0000023FB6000F0ECF87B68002B06D10E4B1B680D4A13600123FB6010E000F014FA0346002B06D0084B1B68074A13600423FB6004E0044A7B68136000F039FAFB680D
:4036000018461037BD4680BD6082FF1F80B584B000AF03463A60FB710B46BB80FB793F2B01D9102301E04FF48073FB81F979BA88FB89084611463A6800F006F8B860BB688C
:4036400018461037BD4680BD80B586B000AFBA601A460346FB730B46BB811346FB8000237B61FB7B3F2B04D8FB7B042B01D901237B61FB7B5BB2002B01DA01237B61FB7B80
:403680003F2B04D9FB7B412B01D901237B61FB7B3F2B06D8BB89B3F5807F0CD901237B6109E0BB89802B01D901237B61FB88102B01D001237B61BB68002B01D101237B6118
:4036C0007B69002B62D100F09FF90346002B5BD1F97BBA89FB8808461146BA6800F0AEF878617B69072B4CD102E00120FEF70CFD294B1B78DBB203F00203002BF5D0264BCF
:403700001B78DBB203F00203002B09D0224B1B78DBB29B08DBB2002B02D100237B6102E04FF0FF337B617B69002B2AD11B4B1A781A4B5B78F87BB98900F0E8F878617B6908
:40374000072B1ED102E00120FEF7DEFC124B1B78DBB203F00203002BF5D00F4B1B78DBB203F00203002B09D00B4B1B78DBB29B08DBB2002B02D100237B6102E04FF0FF3385
:403780007B6100F075F901E004237B617B6918461837BD4680BD00BF2247004074B3FF1F80B582B000AFFFF71FFE0346FB710B4A0A4B1B78DBB243F00803DBB21370084A25
:4037C000074B1B78DBB243F00803DBB21370FB791846FFF70DFE0837BD4680BDA0430040B043004080B584B000AF78600B46FB700023FB7314E002E00120FEF785FC0D4B5F
:403800001B78DBB203F00103002BF5D0FB7B7A681344094A1278D2B21A70FB7B0133FB73FA7BFB789A42E6D3FB7B18461037BD4680BD00BF224700402047004080B489B07B
:4038400000AFBA601A460346FB730B46BB811346FB800723FB612B4B1B78DBB203F00203002B45D0284BB6221A70274BD5221A70254B02221A70234B1B78DBB203F0020347
:40388000002B32D1204AFB7B137000237B8308E01D497B8BBA6813441B780B707B8B01337B837A8BFB889A42F2D3FB88B3F5807F20D1FB7B3F2B1DD8FB7B03F510331A025D
:4038C000BB8913445B017B6100237B8309E00E497A8B7B6913441B78DBB20B707B8B01337B837B8B1F2BF2D904E00923FB6101E00423FB61FB6918462437BD465DF8047BA2
:40390000704700BF224700402047004090B484B000AF0446084611461A462346FB710346BB800B46BB711346FB700723FB601B4B1B78DBB203F00203002B26D0184BB62252
:403940001A70174BD8221A70154B05221A70134B1B78DBB203F00203002B13D1104AFB7913700F4ABB881B0A9BB2DBB213700C4BBA88D2B21A700A4ABB791370084AFB785B
:40398000137004E00923FB6001E00423FB60FB6818461037BD4690BC704700BF224700402047004080B485B000AF0346FB710723FB60134B1B78DBB203F00203002B16D0C0
:4039C000104BB6221A700F4BE1221A700D4B0E221A700B4B1B78DBB203F00203002B03D1084AFB79137004E00923FB6001E00423FB60FB6818461437BD465DF8047B7047F3
:403A0000224700402047004080B582B000AF04237B60FFF7E9FC0346FB70124B1B78002B16D1104B01221A7000237B600E4B1B6803F00103002B0BD00B4A0B4B1B6823F06D
:403A40000103136000BF00BF00BF084B01221A60FB781846FFF7CCFC7B6818460837BD4680BD00BF6482FF1F040008406882FF1F80B582B000AFFFF7B7FC0346FB710D4B70
:403A800000221A700C4B1B68012B0BD10B4A0B4B1B6843F00103136000BF00BF00BF064B00221A60FB791846FFF7A2FC0837BD4680BD00BF6482FF1F6882FF1F040008407A
:403AC00080B483B000AF07237B600D4B1B78DBB203F00203002B09D00A4BB6221A70094BE0221A70074B0D221A7001E004237B607B6818460C37BD465DF8047B704700BFE1
:403B00002247004020470040094B10B5D8689A68002308E0114652F8084B1CB901230B60486810BD01338342F4D3002010BD00BF78B3FF1F084B30B50022DC689B6808E0BC
:403B40005D6819460833854202D100230B6030BD0132A242F4D330BD78B3FF1F01230373704700230373704710B1002282720260704718B1027B0AB1013A027370470000C4
:403B800038B501F06DFD20B3124C4200E260000101F05AFD238AA060E068584301F054FDA568E168228A002304E005EBC3046060013380188B42F8D3102001F045FD054C55
:403BC0006061282001F040FDA37CA06143F00203A37438BD78B3FF1F38B510220D460021044601F063FCFFF78FFF08B9013038BDA0604FF0FF33002065602360A07338BD68
:403C000038B5837A044643B1056801F039FB2846FFF7AFFF2046FFF7A7FF002038BD08B50368827A03B19B6822B11BB1FFF7E8FF002008BD012008BD08B901307047FFF7E0
:403C4000EEBF000038B5104B9C69217B59B921606160A16004F11000142201F027FC237B013323730DE0656A45B9282001F0D6FC606218B12946282201F018FC646A002C9A
:403C8000E3D1204638BD00BF78B3FF1F38B50E4B5C69A17AE56839B92046102201F006FC0123A372E5600CE045B9102001F0B6FCE06018B12946102201F0F8FBE468002CBC
:403CC000E7D1204638BD00BF78B3FF1F2DE9F74F06460020884691469B469DF830A09DF83470FFF7AFFF054608B9044610E0FFF7CDFF044660B180F80B900560AE604046AA
:403D0000214652463B46CDF800B001F0EDF830B12046FFF729FF2846FFF72BFF00242046BDE8FE8F2DE9FF410C461F4604A9002341F8043D15469DF8286000F0A5F88046E7
:403D4000B8B1039B0BB11B789BB1404600F025F900280EDD14F0150F01D0032809D1039939B1404622462B4600970196FFF7AEFF00E0002004B0BDE8F08100002DE9F34132
:403D80000646884600240E4D404655F83410E70001F0C2FB10B9002C04DA0DE001340F2CF1D109E07D19A87929790090EA796B793046FFF7B7FF00E00020BDE8FC8100BFB0
:403DC00008A20000FFF7DABF10B5437B04460BB1012010BD40682168A268A37B01F007FD10B10120607310BD207310BD10B5437B044663B9037B53B140682168A268A37B1F
:403E000001F0F5FC08B1012363730023237310BD036870B5994204460D46164607D0037B0BB1FFF7E3FF00232560A673E37370BDFFF7DCBF10B50446FFF7D8FFA068BDE8BC
:403E40001040FFF777BE01230373FFF7CFBF10B50446407B08B1012010BDE37B5BB960682168A268A37B01F05CFC10B10120607310BD0122E27310BD08B5436813B94FF0CA
:403E8000FF3008BD984708BD2DE9F0470F463A21064601F070FB044610B93446174D27E00378C6EB000A5BB114F8013F43B162783A2A05D1A3F130085FFA88F8023401E07B
:403EC0004FF000080D4D2B6828791B689847814601F02FFB504508D148463146524601F030FB10B92B79434502D0ED6D002DEAD107B13C602846BDE8F08700BF94B3FF1F77
:403F0000F8B5174C064694F85B10E56D69B960220127204601F0CAFA84F85B70E5653046FFF7AAFF00280EDA18E045B9602001F075FBE06518B12946602201F0B7FAE46D76
:403F4000002CE0D10AE0074B2660DA6F0132DA670323207184F85B7084F85A302046F8BD94B3FF1F78B3FF1FFFF7CABF38B504460D4601F0A4FB08B9013838BD204601F039
:403F8000B1FB204601F04AFD204600F0D7FC08B184F8595094F8590038BD90F8593023B990F85A1009B1FFF7E1BF1846704730B51346BAB1B0B10268857A0AB1946804B9AB
:403FC00000247DB172B16CB1C27A12F0100204D14FF6FA730381104630BD1A46BDE8304001F070B9002030BDFFF7E1BF0C2802D0102805D102E001EB510070474800704776
:4040000088007047036840689B685B6AB0FBF3F0704710B5046D836CE4B199421AD3E318994217D2013B99420CBF4FF0FF31013172B190F836300C2B02D0102B05D102E050
:404040000905090D03E089B201E021F070411160012010BD002010BD40F6F473984201D80C2070474FF6F473984294BF102020207047027F8368023902FB01307047431EEF
:40408000DBB21F2B13D92F2811D007D826280ED002D8222809D10AE02A3804E03A2804D33F2804D95B38022801D90120704700207047034638B30B2A01DD0B2200E0013A7A
:4040C00000201CE0082809D191F808C0BCF1200F0DD04FF02E0C03F801CB08E038B991F800C0BCF1050F02D1ACF1200C04E011F800C0BCF1200F01D003F801CB01309042AD
:40410000E0DB00221A7070472DE9F04788B005AE04460D463046114600229A469DF84490BDF84C80BDF8507000F01EFD08B1002413E020462946524600F00FFE044660B1BE
:40414000129B31460093109A4B46CDF80480029700F0C6FF2846FFF701FD204608B0BDE8F08710B59DF80C400394BDE8104000F0D9BD00002DE9F04F144E87B0109DDDF8F2
:4041800048809DF84440376800950194CDF8088005937F68934682468946B84732680C4BDDF814C09A420DD060B9504649465A46634610951194CDF8488007B0BDE8F04FCE
:4041C000FFF7CFBF07B0BDE8F08F00BF3081FF1FB0A2000070B5C37A04460B7010300D4601F0F8F9064604F10E0001F0F3F940EA0640686004F1120001F0ECF90004A86097
:4042000004F1180001F0E6F9064604F1160001F0E1F940EA0640E86004F11C0001F0C1F9286170BD2DE9F845038A04460E46924687692BB907F118002146626900F064FC99
:4042400038465146224600F0E7FC0546204600F065FCD5B12B78C3B1E52BF1D095F80B80B8F10F0FECD018F00808E9D170692946B269FFF71EFF28463146FFF7ABFF238A69
:40428000404601332382BDE8F8854FF0FF30BDE8F8850222FFF7BCBD2DE9F04790F8366005460C46304611469146FFF79FFEB5F81E80AB6A20FA08F89845824602D3002007
:4042C000BDE8F0876B8E05F118079844204641463A46FFF7DEFF2046FFF7B9FD18B14FF0FF30BDE8F087AA8BA168013A0AEA020A1FFA8AFA92450AEB01031AF8015001D0F9
:40430000013309E0204608F101013A46FFF7C1FF2046FFF79CFDA36818780C2E45EA002009D0202E0FD15D7840EA05409D7840EA0560BDE8F08719F0010F02D00009BDE80C
:40434000F0870005000DBDE8F08700002DE9F34190F83630144603FB02F7828B8846D200511E0F40D71B0546B7FBF3F7002618E00E4B93F88030022B05D12846214601AA96
:40438000FFF747FE28B9284641462246FFF784FF0190019B0134A34205D10136B6B2013F1C46002FE4DC3046BDE8FC8178B3FF1F2DE9F34105460E46144698461F681CE039
:4043C000114B93F88030022B05D12846214601AAFFF71FFE28B9284631462246FFF75CFF0190737B0BB100240BE0AA6B019B0132934204D81BB1013F1C46002FE0D1C8F824
:4044000000702046BDE8FC8178B3FF1F73B504680E4623681BB9FFF7F5FD013039E0FFF7F1FD236998423CBF4FF0FF3323612369B3F1FF3F04D12268013323616261E383DA
:404440002169E28B451A954234BF2B4613463BB16069C918C018D21A60612161E283ED1A0DB9284615E002AB43F8045D31466269A068FFF79DFF6061019B21690246C91AE9
:404480004D19256123B9A0683146FFF75FFFE08301987CBD13B502AC44F8043D2346FFF787FF019B002B18BF00201CBD2DE9F0410746884615461E460024384641462A4603
:4044C0000123FFF7E7FF30B1BA6B0134944201D80546F2E7002406B134602846BDE8F0812DE9F74F04460D461E461746002A00F0B98090F836001146FFF778FDB4F81EA0C4
:40450000A36A20FA0AFA9A45814680F0AB80638E04F118089A44284651464246FFF7B9FE2846FFF794FC6B7B002B40F09B80A38BAA68013B09EA03091FFA89F303EB020998
:4045400026B9216C8F4203D2276401E0791C216494F8361010290AD0202911D1484601F020F831460746484601F026F84EE0484601F030F8B1B20746484601F027F845E053
:40458000284600920193FFF7E9FA009A019B17F0010F13F802B01BD00BF00F0141EA06119954A28B013A934202D009F1010309E028460AF101014246FFF76BFE2846FFF7B3
:4045C00046FCAB681F7832093F0147EA1B171CE09E54A28B013A934202D009F1010309E028460AF101014246FFF753FE2846FFF72EFCAB681A78310A02F00F0701F00F015C
:4046000022F00F024BEA07270A431A702846FFF7A5FA94F83630202B18D1B4F84620AAB9B4F844102846FFF7F3FB2846FFF70FFCA8684FF0FF3100F5F47000F0BDFF2846CC
:40464000FFF78CFA4FF00103A4F84630E36BB3F1FF3F09D00FB10133E3632EB1E36B013BE36301E0012000E00020BDE8FE8F6FF07043FFF735BF70B5036D04460E4693B1D0
:40468000002506E0AA1820463146531CFFF728FF0135236DA26C013B9D42F3D320463146AA18FFF7E4FF0023A3642365E364636570BD70B506460D461C460AB1FFF710FFC3
:4046C000304629462246BDE87040FFF7D0BF00002DE9F84504460E4615461F46002B36D01C4B93F88030022B31D190F8368011464046FFF77BFCB4F81CA00AF1FF3A2AEAA8
:40470000000A4FEACA0ABAFBF8FAAA44A8460EE0204631464246FFF7BFFD50B9A36C0BB9C4F84880E36C08F101080133E364D045EED9E36C5BB167653B685A6922B120460C
:4047400031462B46FFF7CCFE236D01332365BDE8F88500BF78B3FF1F2DE9F8459846274B054693F880300F46022B1646846B19D1436D984503D0C36C0BB1FFF77CFFB8F1D6
:40478000000F0FD06B6D43450CD12B6DEA6C9A4204D9AC6C1C1901332B652CE028463946FFF769FF012E04F1010A01D9564505D92E6C012E01D9564500D902263446284616
:4047C00039462246FFF768FD50B101345445F6D902240DE0284639462246FFF75DFD30B92846394622464346FFF772FF03E00134B442EFD300242046BDE8F88578B3FF1F2E
:40480000F8B507460E461546FFF7A6FF044628B1384631462A462346FFF74BFF2046F8BDB2F1FF3F73B504460D4614D0561A013611D0FFF7FDFA084B00211A8AA06800F0D9
:4048400035FE022300936068A3682946324600F0A9FF0023E3737CBD78B3FF1F2DE9F84F984690F8363004460C2B0D4616465AD04FF0FF3AD1463CE094F836003146FFF7A3
:40488000B5FBB4F81CB0678E0BF1FF3B10EA0B0BE38B1DD1D840013F3F18022228463946FFF7B6FAA38BAA689B0852F80B1079B9013B0BF1040BF8D13BE049462846524699
:4048C000FFF7AEFFB946BB462846FFF74AF9DA462946324601232046FFF7DCFD29460746324620460023FFF7FBFD2FB108F1FF383E46B8F1000FBFD1284649465246FFF7FC
:404900008FFF13E02946324601232046FFF7C2FD29460746324620460023FFF7E1FD2FB108F1FF383E46B8F1000FEBD14046BDE8F88F0AF1010B5F45BFD1C5E72DE9F8454B
:404940000546FFF7E1F8044608B90546D0E0284600F054FF684E338A834208D338B10021284622460B4600F0DCFE002804DA2046FFF7E0F80025BBE004F5FF7000F02AFEDE
:404980004AF65523984240F0AD8004F10B0000F021FE10F47E4F074600F0A480338A8342C0F0A080237C022B40F09C8094F80D80B8F1000F00F096800021402205F11800F5
:4049C00000F074FD04F1130000F004FE064620B904F1200000F0E5FD064604F1160000F0F9FD824680B904F1280000F0F3FD10F08F0F77D104F1240000F0D3FD824604F199
:404A00002C0000F0CEFDE862022385F83530C5F828A0AE6185F8348004F10E0000F0DAFD688604F1110000F0D5FD95F835206B8E288602FB0A3A7A0992B2B0FBF2F2524443
:404A4000AF832A62092301219940B94201D1EB8302E00133102BF6D108FB07F7B61AB6FBF8F6AE636F623046FFF7F6FA202818BFC5F82CA04FF0FF33202885F83600EB63EE
:404A800032D104F1300000F0A5FD00230146A5F844002246284600F044FE002822DB204600F07FFD804604F5F27000F07AFD074604F5FE7000F075FD104B984514D1104BDC
:404AC0009F4211D10F4B98420ED104F5F67000F068FD286404F5F47000F063FDB04203D8E86301E0002500E001252046FFF722F82846BDE8F88500BF78B3FF1F525261417B
:404B000072724161000055AA00238B60837F202B01D102B942694A600A60704783680133836070472DE9F0410C46202105461F469DF818604FF0000800F0B8FC10E014F85B
:404B4000080036B9E52804D1B8F1000F01D1E03802E000F009FDC0B205F8080008F10108B845ECDBBDE8F0812DE9F74506460D4608462849002A14BF92464FF0FF3A00F0A2
:404B8000CBFC804650B930462946022200F05DFEB01C2021092200F089FC37E04FF0FF34002715F80780B8F1000F01D0574505D1B4F1FF3F08BF3C4664B925E04046FFF755
:404BC0005EFA08B3B8F12E0F08BF3C4601370D2FE7D119E0082C17DC3F1B042F14DC30462946082223464FF00008CDF80080FFF799FF0123611C009306F10800691803223F
:404C00007B1EFFF78FFF01E04FF001084046BDE8FE8500BFC0A200002DE9F74FD2F808B0436A4FEA4B18B8FBF3F8D368054698450E461446D2F8009001D20023D360B5F859
:404C40001EA0E368AAF1050A0BB9D4F804902BFA0AF7B9F1000F17D095F83420B8EB0303019206D04A4628463146FFF713FC814640B3494605F11800FFF7FBF9019B591ED6
:404C800001EA0707C11906E02B8E43FA0AF39F4218D2E96A79183046C4F80090C4F80C800122FFF7B5F83046FFF7D1F850B9013000FA0AFAB3680AF1FF3A0AEA0B0B03EB15
:404CC0004B1000E00020BDE8FE8F2DE9FF4107460E4601A811461A460A9D9DF82C40FFF743FFC8B9384631462A46FFF795FF8046A0B1037883B101A90B2200F0C7FB38B940
:404D000098F80B3004EA0302A24201D1082B05D12846FFF703FFE5E74FF00008404604B0BDE8F0812DE9F04587B002AF04460E46154698469DF83CA039460E9A1830FFF74D
:404D4000E3FE204631462A4643460097CDF804A0FFF7BBFF07B0BDE8F0852DE9F04500F1180785B005460C46384669469246FFF7CBFE284621466A46FFF74EFF0646684648
:404D8000E846FFF7CBFE002E37D1BAF1000F02D12B8E002B35D12146009A00232846FFF785FB2146024600232846FFF729FD80462046FFF748F8B8F1000F22D0AA8B002193
:404DC000A06800F073FB38464146FFF752F995F8347000257E1E361808E0314620460122FFF716F82046FEF7EFFF013E01357B1BB3F1FF3FF1D1A66803E033780BB1E52B7B
:404E0000B7D1304605B0BDE8F08538B504461A3000F0E0FB054604F1140000F0DBFB45EA004038BD2DE9F0451D4685B007460E462A6010465C21904600F09DFB4FF0000A53
:404E40000446A04508D108F10108C5F8008040465C2100F090FB044694B1C8EB0403002B0EDD10220192103A0292384631464246CDF800A0FFF77EF970B1FFF7C6FF824678
:404E800028685C2100F077FBA04604460028D8D10C9B0130C3F800A005B0BDE8F085F8B505460C461E461746DAB16FF01A0313700846FEF753FE16B94FF47A7608E007F175
:404EC0001C0000F06EFB6B6A5E1E3618B6FBF3F63846FFF79AFF2146024633462846FFF7BDFC607BF8BD00002DE9F04FD1F8008093B0D8F808700BAD044608930E464FF0C9
:404F0000FF333946284609920F939DF870A0FEF763FE10AB009338462946224611ABFFF781FFD0B1F27A109B07920FAA00930292002338462946119A0193FFF71BF9044691
:404F400080B1C37A13F0100F07D10D9BDDF82CB0C3EB00094FEA691906E02846FEF76AFF0125A3E083468146099B002B3CD0002C33D0524B5D6912E02B687BB1AA7A6AB1B6
:404F80009A8B4A450AD19A695A4507D19B68BB4204D14FF6F772328100257EE0ED68002DEAD10DF12C0C6146384622460123CDF818C0FFF774FFDDF818C018B14FF0FF331E
:404FC00033816AE03E4B1B68DC6824B138466146109A0F9BA0472C4606E0BAF1000F03D1089A002A44D065E0089BEBB1CCB1E37A13F0010F0BD0079A12F0150F07D04FF639
:40500000FA733381BAF1000F01D1012500E000252046FFF7FAFE074604F11C0000F0C1FA29E0BAF1000F45D0BAF1010F01D000251BE0ECB900F020FF214B20221B6801923F
:4050400082B2000C03920490009402949D6838460BA9119A109BA84750B10D9ADDF82CB0C2EB00094FEA6919254628462F4602E00125002007464FF0FF33C8F81030C8F863
:4050800018B0A8F81C90079AC8F8040012F0010308BF1846C8F800707060B6F908300BA835EA230528BF0125FEF7C4FE284613B0BDE8F08F01255046DCE700BF78B3FF1FCB
:4050C0003081FF1F70B505460C461A3089B200F07DFA05F11400210CBDE8704000F076BA2DE9F0470446BDF824700D469146002120229A46BDF82860DDF8208000F0D6F9C9
:405100000B222046294600F0A0FB04F10E00394684F80BA000F05AFA04F11000314600F055FA04F11600394600F050FA04F11800314600F04BFA20464946FFF7C3FF04F11B
:405140001C004146BDE8F04700F036BA07B5426803460AB910460AE081680020009048681968DB6800F0FCFA003818BF01200EBD2DE9F047046805460F46A668FFF746F994
:4051800081468246002841D0D4F80080B8F1000F1BD14246304639462B46FFF7DDFA0246D8B11C4B6061C4F8108093F880302060022B07D030463946FFF759FA10B1012058
:4051C000BDE8F087B9F1010A20D03046394662692B46FFF7C1FA804628B94FF6FE732B810130BDE8F0870B4B93F88030022B05D03046394662694346FFF75BFA2369C4F847
:40520000148001332361BAF1010ADDE70020BDE8F08700BF78B3FF1F2DE9F041836804460D4608460122A1699E8BFEF7F1FD2846B4F81C80AF68FEF70AFEF8B9013E06EA64
:405240004816B6B2BE1906F11C00616800F0B4F921683046FFF736FF00F00EFE0446A1B206F1160000F0B2F906F11800210C00F0ADF92846BDE8F041FEF7E5BDBDE8F081EA
:405280007FB50668B0F90830B568C3B9C37A13F0110F14D029466846FEF79EFC30466946FFF7BAFF064B6C4693F88030022B03D128466946FFF7DFF96846FEF7BBFD7FBD4D
:4052C00078B3FF1F03682DE9F04F9F68038995B001339BB2012B04460E46059201D90025CEE0394610AD0CA8FEF776FC39462846FEF772FC039626680023D6F808909A4607
:4053000009F118010791D9F82420059906924FF0FF32099308920A950291049320460CA9FFF726FF38B108A8FFF710FF5546002818BF00258FE03269069901324A43B9F85B
:405340001CB063680BF1FF3BD21A0BEA030B029B0798934228BF134601937169FEF789FE99F83430B9F81C206768013BB7FBF2F703EA0707C719B9F81C300199CBEB03057E
:405380008D4228BF0D469D4228D0BBF1000F03D1626873689A420FD00DF14008404639460022FEF735FD4046FEF751FD20B14FF6F9725546228154E01298039958442A467C
:4053C0000DF1400800F041FA404639460022FEF71FFD4046FEF7F8FC90B141E0099B089A9A1897420AD008A8FFF7B0FE002837D101230993039B08970B9301E001330993B8
:40540000029B03995B1B019A029363684919521BAA44ED186560736803919D42019207D91BB1194B93F880300BB9012104917560019A1AB101374FF0000B9CE7029B002B8C
:405440007FF46CAF08A8FFF781FE04995546002818BF002529B1304610A9FFF7DDFE00E05546059A954205D0B4F9083013B94FF6F87323810CA8FEF7DDFC10A8FEF7DAFC73
:40548000284615B0BDE8F08F78B3FF1F10B5002308E0C45C11F803C0013A0133644501D0012010BD002AF4D1104610BD70B5034602E003F8011C013A1C4622B103F00305D4
:4054C0000133002DF5D193081ED04FF001354D4308E044F8105C44F80C5C44F8085C44F8045C043B032BA44604F11004F1DC1C46002603E04CF80650013B0436002BF9D1EA
:4055000002F003020CEB8404002302E0E154013A0133002AFAD170BD002310F803C0CA5C624501D0012070470133002AF5D110467047002300E00133C25C002AFBD11846EC
:40554000704710B500230BE0C45C11F803C0644501D0012010BDC4186478013314B1013A002AF1DC002010BDA0F16103192B98BF00F0DF007047C9B203E00BB91846704730
:40558000013003788B42F8D1704742780178431C42EA01205A789B7842EA002043EA002070478378C27803EB0222437803EB0222037803EB0220704703460A0A03F8011B14
:4055C00042700A0C090E5A70997070470170090A417070474278037843EA022070470000094A0A4BC11C10B5146821F0030118680919814201D9002010BD11609A685868E1
:40560000013220189A6010BDFCB3FF1F6C82FF1F08B5FFF7E5FF00B9FEE708BDFFF7E0BF30B1044A9368013B93600BB9024A1360704700BF6C82FF1FFCB3FF1F014B5860A1
:40564000196070476C82FF1F38B50546FFF7E0FF002104462A46FFF729FF204638BD000010B5084CA37C0BB1002010BD4FF40073238200F0F1FBA37C012043F00103A374E7
:4056800010BD00BF78B3FF1F08B583680BB10020984708BD08B583680BB10120984708BD10B504680079A468A04710BD37B59DF81850046800790095E468A0473EBD08B50C
:4056C000036800799B69984708BD036810B55B69044623B10079984708B1002000E00120607110BD10B5437904460BB9FFF7EDFF607910BDF7B504461F460E461546FFF725
:40570000F1FF2046FFF7C6FF2A463146012320460097FFF7C5FF05462046FFF7B5FF2846FEBD10B504690919BDE81040FFF7E2BFF7B5044615461F460E46FFF7D3FF2046FA
:40574000FFF7A8FF0023009331462B463A462046FFF7ACFF05462046FFF796FF2846FEBD30B504699DF80C5009190395BDE83040FFF7DEBFF7B5044615461F460E46FFF75D
:40578000B1FF2046FFF786FF0123009331462B463A462046FFF78AFF05462046FFF774FF2846FEBD30B504699DF80C5009190395BDE83040FFF7DEBF73B504460E4615464B
:4057C000FFF790FF2046FFF765FF00232A460093314601332046FFF769FF05462046FFF753FF002D14BF4FF0FF3000207CBD10B504690919BDE81040FFF7DEBF30B5054603
:4058000085B0FFF76FFF2B6828791C694FF47B71002201ABA04708B1002001E0BDF80C0005B030BD70B506460D46FFF75BFF336830791C694FF47B7100222B46A047002867
:4058400014BF4FF0FF30002070BD11F0030F70B584460B4632D110F0030F2FD195100446AC4611E053F8106CACF1040C44F8106C53F80C6C44F80C6C53F8086C44F8086C4E
:4058800053F8046C44F8046C10341033BCF1030FE8D8AB081B0100EB030CCB1815F003050AD0284600215C584CF8014004310138F9D1AD00AC445B1902F0030213F0010FCD
:4058C00019462FD11CF0010F60462BD15410254610E031F8086C043D20F8086C31F8066C20F8066C31F8046C20F8046C31F8026C20F8026C08300831032DEAD8A108C9002A
:405900005B1814F003048C440AD0204600215D5A2CF8015002310138F9D16400A4441B1902F00102614610E013F8040C043A01F8040C13F8030C01F8030C13F8020C01F8B4
:40594000020C13F8010C01F8010C18460433032A8C4601F10401E7DC32B10023C15C0CF8031001339342F9D170BD0378E92B01D101207047EB2B01D00020704780789028CC
:4059800014BF00200120704708B500F5FF70FFF721FE4AF65523984214BF0020012008BD01EB001000F5E370FFF7FBBDF0B50D4685B01446064658B352B300210B46FFF73E
:4059C00099FE002824DB2046FFF7DEFF00B32046FFF7CBFF10B10024274616E02146FFF7DFFF074604F5E570FFF7DBFD01A904463046FFF717FF5CB157B1E219FF23120A27
:405A0000B2FBF3F2029B9A4202D81DB12C6001E04FF0FF37384605B0F0BD000073B50446FFF7ECFE0646FEF76FF80C4B05461B8AB3420DD366B1204601A92A46FFF7B6FF99
:405A4000B0F1FF3F04D02061019B6361002400E0FF242846FEF76EF860B27CBD78B3FF1F2DE9F0438BB006460F4600F075F8DFF8E480044698F900300D46013337D0304642
:405A8000394600F0E1F9002831D02BA3D3E900233046394601F062FE814668BB28A3D3E900233046394601F03BFE00B398F90030254C002000210422022BCDF82090CDE92A
:405AC0000467CDE90267CDE906018DE814002CD0684600F0BFF940B3089B1BB102F064F9089B0360DDE906010BB0BDE8F083204629460BB0BDE8F083134898F80030032146
:405B00000022CDE90467CDE902670190009108922BB90E4B4FF06042CDE90623D8E70C490020022BCDE90601D2D102F03DF922230360D1E7AFF30080EF39FAFE422E864089
:405B400051302DD5104987C0C4A20000FFFFEF470000F07F3481FF1F2DE9F04FB04D21F00042AA4283B00C464FEAD17682460DD9AC4DAA4225D9C1F31303034340F0F5804A
:405B8000002E40F0158103B0BDE8F08FA64B9A4200F2CC80A54B9A4200F2DD808AA3D3E9002301F099F90022A14B01F0D7FD002800F008815046214600229D4B01F08CF974
:405BC000E1E783A3D3E9002301F0C8FD002840F0C48081A3D3E900235046214601F0A0FD002840F0E5807EA3D3E90023914D504605EBC605214601F021FBD5E9002301F0C6
:405C00006BF901F0B5FD054601F0B2FA76A3D3E9002306460F4601F011FB02460B465046214601F057F972A3D3E90023CDE900013046394601F002FB80468946DDE900011E
:405C400042464B4601F046F982460C46524623465046214601F0F2FA67A3D3E9002306460F4601F0EBFA66A3D3E9002301F032F932463B4601F0E2FA63A3D3E9002301F0E6
:405C80002BF932463B4601F0D9FA61A3D3E9002301F020F932463B4601F0D0FA5EA3D3E9002301F019F932463B4601F0C7FA02460B465046214601F00DF906460F46504610
:405CC000214632463B46002D54D001F0B7FA324682468B463B4600204FF0804101F0FAF802460B465046594601F0D2FB02460B464046494601F0EEF8DDE9002301F0EAF8EF
:405D00000B4602464A49002001F0E4F86FF47F739D4252DA05F57A7501EB055100224FF0B87301F08BFA03B0BDE8F08F424B9A423FF659AF414BF4002344D3E9002301F089
:405D4000C9F83F4BC6F101051C44CDE90001D4E90089AD1B72E7002578E71BA1D1E9000102460B4601F06AFA0DE702460B4601F0B3F808E701F062FA002280468946304622
:405D800039464FF0804301F0A5F802460B464046494601F07DFB5246234601F09BF802460B460020224901F095F803B0BDE8F08F0020014603B0BDE8F08F01EB055103B08C
:405DC000BDE8F08F054641E79C7500883CE4377EEF39FAFE422E864051302DD5104987C0FE822B654715F73F0000E0FE422EE63F763C7935EF39EA3DD0A4BE726937663E79
:405E0000F16BD2C541BDBB3E2CDE25AF6A56113F93BDBE166CC1663F3E5555555555C53F412E8640FFFFEF7F422ED63FFFFF2F3E0000F03FC8A20000B1A2F03FE8A2000073
:405E4000D8A20000AFF3008041F0004101F58010C00F70470020704780B500AF04484FF48051FFF7EBFB0348FEF77EF880BD00BF7882FF1F40A3000080B485B000AF002329
:405E8000FB810023BB8100237B8101233B810123FB800023BB80FB895B089BB21A46BB895B011A447B89DB0213443B603A89FB885B011A44BB885B0213441B043A68134398
:405EC0003B603B6818461437BD465DF8047B70474FF6FF7070470000014B1868704700BF7892FF1F0048704760A3000000F096BD37B501220DF10701054600F0A7FD9DF88A
:405F00000740FF2C14BF0A240724284601220DF1070100F09BFD9DF80700FF2803D1013CE4B2002CF1D13EBD37B50469857828460DF10701012200F089FD9DF807300BB166
:405F4000002003E0013CF2D14FF0FF303EBD37B54FF0FF3305460C468DF8073006E028460DF10701012200F08BFD013C002CF6DC3EBD000038B5094C2368032B02DD4FF0BB
:405F8000FF3509E0DDB2013323601420FFF75CFB04EB850460608570284638BD7892FF1F08B5034B4FF400711B68984708BD00BF3881FF1F4FEAD20CACEBD103CCF10F0C6F
:405FC00010B501336044002410F801CB013B4CEA0424F9D101F00703511A02228A40DC40013A04EA020010BD7FB5130E85788DF80530130C01F03F018DF80630130A41F0DB
:4060000040018DF8073000238DF808208DF804101A4601A911F802C000215B00DBB283EA0C0E1EF0800F18BF83F009030131082904D04FEA4C0C5FFA8CFCEEE70132052AC2
:40604000E7D15B0043F001038DF809308678C4680122304603A900F0F9FC9DF80C30FF2B04D00CB9FF2009E0013CF1E7284601A9062200F005FD2846FFF73AFF04B070BD63
:40608000F7B5847806460F4620460121FFF75FFF204600F00DFC304609210022FFF7A4FF8DF8070028BBF6680546012220460DF1060100F0CBFC9DF80630FE2B06D0FC2BB3
:4060C00004D00135ADB2B542EFD112E00DF1070520463946102200F0B9FC29462046012200F0B4FC29462046012200F0AFFC002500E0FF25204600F0EFFB20460121FFF7B6
:4061000026FF2846FEBD00002DE9F04F9B46494B89B003EB800305925C684A02029103924FF00309029AA578E678039B2846022E08BF13461E4600F0CFFB01212846FFF76C
:4061400006FFBBF1010F0CBF4FF0110A4FF0120A284600F0ADFB204651463246FFF744FF002851D1059F5E46A378E268B44604924FF000081E460FE0012230460DF11F0152
:40618000CDF804C000F062FC9DF81F20DDF804C0FE2A05D008F10108049B9845ECD333E0284639464FF40072664600F04FFC0222284607A900F04AFC9DF81C30384601935A
:4061C0009DF81D80FFF7ECFE4FF6FF729042019B0CD048EA0328404508D0BAF1120F13D120460C210022FFF7FFFE0DE0013E02D007F50077B8E7BAF1120F07D120460C2134
:406200003246FFF7F1FE01E04FF0FF36284600F063FB28460121FFF79AFE3EB1B9F1000F02D009F1FF397DE74FF0FF36304609B0BDE8F08F7892FF1F2DE9F04F99464C4B08
:4062400087B0029203EB80039DF840205D68009103926B78002B40F085804B0201930327009BAC78EE78019A2046022E08BF1A46164600F031FB01212046FFF768FEB9F131
:40628000010F0CBF4FF0180A4FF0190A204600F00FFB284651463246FFF7A6FE8DF81700002850D120460121FFF751FE029ECB46B8463046FFF774FE0DF11707BAF1180F9C
:4062C0000CBFFE23FC2301228DF817308DF81500030A394620468DF8143000F0D1FB204631464FF4007200F0CBFB0222204605A900F0C6FB01222046394600F0A7FB9DF833
:40630000173003F01F03052B1CD12846FFF70CFEC0B9039A0AB906F50076BBF1010BC8D1BAF1190F474611D106A96FF00203204601F8013D012200F0A3FB2846FFF7F4FDE3
:4063400020B100E047464FF0FF3600E00026204600F0C2FA20460121FFF7F9FD26B10FB1013F7DE74FF0FF36304607B0BDE8F08F7892FF1F2DE9F04F877887B00446384664
:406380000D4600F095FA20463A210022FFF72CFE064638B1384600F09FFA38460121FFF7D6FD58E00DF1140804224146384600F04DFB4046FFF7E9F88046384600F08CFA97
:4063C00001213846FFF7C3FDB8F1000F28F07F02B8BF4FEA987BD2B240F272634FEA1828B8BF0BF0010B1FFA88F8002A14BF1A460022012111EA080F05D10136F6B2490067
:40640000102E89B2F6D140F27260824233460DD06422724302F5FA6208E011EA080F07D049000133013689B2DBB2F6B20F2EF4D964214B434FF6FE7103F5FA6302EA010167
:406440004FF6FC72384603EA020200F0B3FA10F0FF0F40F099804FF0FF3092E028467E217F22FFF7A7FD8246EB78DFF82C8103F0030203F0780308EBD30358F822101B7CE7
:406480003846594389B200F051FA0646002877D06B7803F00702DB1003F00F0308EB82024344126A93F810800292B8F1000F67D0A978284603911C221A21FFF77BFD01900F
:4064C000BAF1000F1FD1502153222846FFF772FD4FF0010909FA00F92F2131222846FFF769FD1FFA89F982463E21284649224FEA5929FFF75FFD0AF1020A09FA0AF90130A1
:4065000000FB09F910E0BAF1010F01D0012038E0284630214522FFF74DFD4FEA8029BBF1000F01D00223E37008FB06F2029B0399B2FBF3F2642303FB01225A437343D208C2
:40654000DB089A4294BFE260E360FA235E43019BF6089A400C21B24294BF2261266128460D22FFF727FD0546384600F0C9F94FF4007128436070A180C4F80890002000E03E
:40658000FF2007B0BDE8F08FE378A778012B3FF465AF4FF0000A67E7F8A20000F0B5857887B004464FF4C871284600F0BFF9B0F5C87F00F2CC804CF25033E360002628464C
:4065C00000F08AF90A212846FFF7C1FC624B93E8030001902846ADF8081000F069F9062201A9284600F04CFA2846FFF781FC0746284600F071F901212846FFF7A8FC17F006
:40660000010F03D10136052ED9D1A0E0284600F04FF9082120464FF4D572FFF7E5FC10F0040F52D0284600F057F9A5784FF4FA66284600F03DF9002237212046FFF7D4FC6F
:4066400028460121FFF783FC292100222046FFF7CBFC0746284600F03FF928460121FFF776FC17B90123E3701EE017F0040F01D1013EDDD14FF4FA66284600F019F9012158
:4066800000222046FFF7B0FC0746284600F024F928460121FFF75BFC0FB9E77004E0012F55D1013EE8D152E001AD20462946FFF7E7FC00284BD120462946FFF75BFEC0B252
:4066C000002844D10123237043E00422A07805A900F0BCF9284600F0FFF89DF81730AA2B35D19DF8163003F00F03012B2FD1A5784FF4FA66284600F0DBF800223721204609
:40670000FFF772FC28460121FFF721FC29214FF080422046FFF768FC0746284600F0DCF828460121FFF713FC0FB1013EE2D101AE20463146FFF7A4FC48B90125E57020467D
:406740003146FFF717FEC0B208B9257001E04FF0FF3007B0F0BD00BF38A3000010B5084B03EB80035C6823783BB9FFF7BFFB20B12046BDE81040FFF711BF4FF0FF3010BDC9
:406780007892FF1F38B51D46154BA1F57B7103EB80035C68072918D8DFE801F00A17171704041719204600211422FEF77FFE0CE0237833B92046FFF7F1FE10B14FF0FF30CF
:4067C00038BDA3882B81A3686B60002038BD2046FEF726FF024B00201A68013A1A6038BD7892FF1F80B582B000AF0346FB71FB79002B12D1134B1B78002B0DD1114B0122DB
:406800001A7000F04DFA9F20012100F063FA00F02DFA00F097F912E011E00A4B1B78002B0CD1084B01221A7000F03AFA9F20012100F050FA00F01AFA00F084F900BF083751
:40684000BD4680BD8C92FF1F80B584B000AF03460A46FB711346BB71FB79002B11D1BB79184600F0ABF900BF00F088F9034603F00103DBB2002BF7D000F0BAF90346FB730A
:4068800011E0BB79184600F099F900BF00F076F9034603F00103DBB2002BF7D000F0A8F90346FB7300BFFB7B18461037BD4680BD80B582B000AF0346FB71FB79002B03D156
:4068C000002000F0D3FA03E0002000F0CFFA00BF0837BD4680BD00BF80B582B000AF0346FB71FB79002B03D1012000F0BFFA03E0012000F0BBFA00BF0837BD4680BD00BF54
:4069000080B485B000AF0346FB71FB79002B02D10023FB6002E00023FB6000BFFB6818461437BD465DF8047B704700BF80B584B000AF03460A46FB711346BB80BB88B3F586
:40694000C87F03D24FF4C873BB8006E0BB88B3F57A6F02D94FF47A63BB80BB885B00FB81FB894FF47A42B2FBF3F39BB2BB60FB79002B0CD100F094F9BB689BB2013B9BB2C8
:406980001846012100F0A6F900F070F90CE000F087F9BB689BB2013B9BB21846012100F099F900F063F900BFBB8818461037BD4680BD00BF80B485B000AF0346FB710B4608
:4069C000BB8013467B80FB790033032B0FD8BB8840F6E442934207D87B8840F6E342934202D90123FB6012E00023FB600FE0BB8840F6E442934207D87B8840F6E342934287
:406A000002D90123FB6001E00023FB6000BFFB6818461437BD465DF8047B704780B584B000AF0346FB71FB791846FFF7DBFEFB790033032B02D80223FB6002E00223FB6045
:406A400000BFFB6818461037BD4680BD90B585B000AF0346B9607A60FB73BC68631CBB60FB7B1846FF21FFF7EFFE034623707B68013B7B607B68002BEFD11437BD4690BD68
:406A800080B584B000AF0346B9607A60FB73BB685A1CBA601B78FA7B10461946FFF7D4FE7B68013B7B607B68002BF0D11037BD4680BD00BF80B500AF074B0F221A7000F0EC
:406AC000A7F800F05BF800F069F8044B00221A70034B00221A7080BD8B6400408C6400408A64004080B582B000AFFCF77DFC0346FB71114A104B1B78DBB243F02003DBB2B4
:406B000013700E4A0D4B1B78DBB243F01003DBB213700B4A0A4B1B78DBB243F01003DBB21370FB791846FCF763FC00F01BF800F01FF80837BD4680BD9B6400409C64004060
:406B40009A64004080B500AF054B1B78002B04D1FFF7B0FF024B01221A70FFF7C3FF80BD8D92FF1F80B400AFBD465DF8047B704780B400AFBD465DF8047B704780B483B0F6
:406B800000AF054B1B78FB71FB7918460C37BD465DF8047B704700BF6C64004080B483B000AF054B1B78FB71FB7918460C37BD465DF8047B704700BF6A64004080B483B029
:406BC00000AF0346FB7100BF074B1B78DBB203F00403002BF8D0054AFB7913700C37BD465DF8047B704700BF6C6400404864004080B483B000AF054B1B78FB71FB7918460A
:406C00000C37BD465DF8047B704700BF5864004080B582B000AF01E0114B1B78114B1B78DBB203F02003002BF6D1FCF7DDFB0346FB710D4A0C4B1B78DBB243F00103DBB24C
:406C40001370094A084B1B78DBB223F00103DBB21370FB791846FCF7CBFB0837BD4680BD586400406A6400409864004080B400AF094A094B1B78DBB243F00103DBB2137063
:406C8000064A064B1B78DBB243F00103DBB21370BD465DF8047B7047A2430040B243004080B400AF094A094B1B78DBB223F00103DBB21370064A064B1B78DBB223F001033B
:406CC000DBB21370BD465DF8047B7047A2430040B243004080B584B000AF03460A46FB8013467B7100F0B2F80346FB7300F0A2F80346BB81FA88BB899A4200F08780454BA2
:406D00001B78DBB203F00103FB72FB7B002B20D1BB89002B02D0FB88002B1AD1BB89002B0BD13D4AFB8813803C4A3C4B1B78DBB223F04003DBB2137068E0384A374B1B7809
:406D4000DBB243F04003DBB21370334AFB8813805CE0FB7A002B33D0314B00221A70314B01221A70304B00221A70304A2F4B1B78DBB203F07F03DBB21370284B1B78DBB2EA
:406D800003F00803002B02D0FB88002B18D1284ABB891380224B07221A7000BF204B1B78DBB203F00103002BF8D11A4A194B1B78DBB223F00103DBB21370194B00221A7084
:406DC000144B1B78DBB203F00103002B13D0184AFB881380124A7B79002B01D0032300E00123137000BF0E4B1B78DBB203F00103002BF8D10AE0084AFB8813800549054B8B
:406E00001B78DAB2FB7A1343DBB20B701037BD4680BD00BFA24300408040004082400040014000401040004014400040084000400240004080B400AF034B1B889BB21846C5
:406E4000BD465DF8047B70478040004080B400AF054B1B78DBB203F00703DBB21846BD465DF8047B704700BF8240004080B485B000AF0346FB710A4B1B78DBB223F00103A1
:406E8000FB730749FB7903F00103DAB2FB7B1343DBB20B701437BD465DF8047B704700BF20510040002902D0B0FBF1F0704708B14FF0FF3000F008B80029F8D00246B0FB07
:406EC000F1F000FB11217047704700BF81F0004102E000BF83F0004330B54FEA41044FEA430594EA050F08BF90EA020F1FBF54EA000C55EA020C7FEA645C7FEA655C00F0CE
:406F0000E2804FEA5454D4EB5555B8BF6D420CDD2C4480EA020281EA030382EA000083EA010180EA020281EA0303362D88BF30BD11F0004F4FEA01314FF4801C4CEA1131E4
:406F400002D0404261EB410113F0004F4FEA03334CEA133302D0524263EB430394EA050F00F0A780A4F10104D5F1200E0DDB02FA0EFC22FA05F2801841F1000103FA0EF2F8
:406F8000801843FA05F359410EE0A5F120050EF1200E012A03FA0EFC28BF4CF0020C43FA05F3C01851EBE37101F0004507D54FF0000EDCF1000C7EEB00006EEB0101B1F5F2
:406FC000801F1BD3B1F5001F0CD349085FEA30004FEA3C0C04F101044FEA445212F5800F80F09A80BCF1004F08BF5FEA500C50F1000041EB045141EA050130BD5FEA4C0C43
:40700000404141EB010111F4801FA4F10104E9D191F0000F04BF01460020B1FA81F308BF2033A3F10B03B3F120020CDA0C3208DD02F1140CC2F10C0201FA0CF021FA02F16C
:407040000CE002F11402D8BFC2F1200C01FA02F120FA0CFCDCBF41EA0C019040E41AA2BF01EB0451294330BD6FEA04041F3C1CDA0C340EDC04F11404C4F1200220FA04F02B
:4070800001FA02F340EA030021FA04F345EA030130BDC4F10C04C4F1200220FA02F001FA04F340EA0300294630BD21FA04F0294630BD94F0000F83F4801306BF81F480118B
:4070C0000134013D4EE77FEA645C18BF7FEA655C29D094EA050F08BF90EA020F05D054EA000C04BF1946104630BD91EA030F1EBF0021002030BD5FEA545C05D1400049412C
:4071000028BF41F0004130BD14F580043CBF01F5801130BD01F0004545F0FE4141F470014FF0000030BD7FEA645C1ABF194610467FEA655C1CBF0B46024650EA013406BF08
:4071400052EA033591EA030F41F4002130BD00BF90F0000F04BF0021704730B54FF4806404F132044FF000054FF0000150E700BF90F0000F04BF0021704730B54FF48064FB
:4071800004F1320410F0004548BF40424FF000013EE700BF42004FEAE2014FEA31014FEA02701FBF12F07F4393F07F4F81F06051704792F0000F14BF93F07F4F704730B521
:4071C0004FF4607401F0004521F0004120E700BF50EA010208BF704730B54FF000050AE050EA010208BF704730B511F0004502D5404261EB41014FF4806404F132045FEAF4
:40720000915C3FF4DCAE4FF003025FEADC0C18BF03325FEADC0C18BF033202EBDC02C2F1200300FA03FC20FA02F001FA03FE40EA0E0021FA02F11444C1E600BF70B54FF0DC
